:100000000C9417050C943F050C943F050C943F0588
:100010000C943F050C943F050C943F050C943F0550
:100020000C943F050C943F050C943F050C940B2356
:100030000C943F050C943F050C943F050C943F0530
:100040000C94E3240C943F050C943F050C943F055D
:100050000C943F050C943F050C943F050C943F0510
:100060000C943F050C943F05401AFFFFFFFFFFFF74
:10007000FFFF0000000000000000FF0403E100405B
:10008000810FFF8407F180C0818FFF8E0FF9C1C1FE
:10009000C1CFF7CE0FF9E3C1C1EFFFDF1FFDF7C3FB
:1000A000E1FFFF5F1FFDFFC3E1FFFE9F1FF5FF4361
:1000B000E1FDE1BF9F75FF47F1FDEF3B9FF5FF4776
:1000C00071FDE87F5FF5FF4FE9FDE87F5FF5FF4FCA
:1000D000E9FDE87F5FF5FF4FE9FDE8FFAFE9FF5F6E
:1000E000F5FDE8FFAFD1FF5FF5FDC8FF2629FE5FF4
:1000F000E5F9F8FFE3DDFFDFFDFF00000000000091
:100100000000FFFFFFFFFFFFFFFF000000000000F7
:100110000000A6C66AECE66E66CEAAAA8A4A8AAA39
:100120008AA8AAAEEA4ACAEC8EAC4AAA2A4A8AAA85
:100130008AA84ECAE4ECEEAAEACE1605EE4CA4A8B4
:10014000EAACCEAAE8A8EA40AEAC48050570F8C013
:10015000F870050570F8F8F870050570F8C0F870CB
:10016000050570E0C0E070050570F8D8D8500505A9
:1001700070F8F8F870050570F8D8D850050570F8D3
:10018000D88800050570F818F870050570F8F8F8BB
:1001900070050570F818F870050570381838700586
:1001A0000550D8D8F870050570F8F8F870050550B6
:1001B000D8D8F87005050088D8F8700505000088C3
:1001C000F870050500002070700505000000202073
:1001D00005058850005088050570F858F8A80505F1
:1001E00070F858F850050570F8D0F8A8050570F8B3
:1001F000D0F850050570A8F8F8A8050570A8F8F81B
:1002000050050570F8A8F8A8050570F8A8F850057D
:100210000570F8F8F8A805050000000000050500C5
:10022000505000000505000000000005053848D0CA
:10023000F858050570B0E8702005051870F8D870FA
:10024000050550F8F8E8500505F870B8E8700505A0
:10025000A8F8D8702005052050B8B870050570F8CA
:1002600050507054630000000000000000000000C7
:1002700000000000000000000000007FFFFFFFFF03
:10028000FFFFFFFFFFE08000000000000000000013
:10029000103FFFFFFFFF0FFFFFFFFFC04000000008
:1002A00000900000000020400000000090000000CE
:1002B00000204000000000900000000020400000EE
:1002C00000009000000000204000000000900000AE
:1002D00000002040FF01FFC0903FF80FF0204100D8
:1002E00082002090400410082041008200209040AD
:1002F0000410082041008200209040041008204192
:1003000000820020904004100820410082002090CC
:10031000400410082040FF01FFC0603FF80FF020AC
:10032000400000000000000000002040000000002D
:10033000000000000020400000000000000000005D
:1003400020400000000000000000002040000000ED
:100350000000000000002040FF0180FFFFF0180FA8
:10036000F020410082410000082410082041008252
:10037000410000082410082040FF0240FF0FF02435
:100380000FF02040000240009000240000204000B8
:100390000240009000240000204000024000900035
:1003A0002400002040000240009000240000204073
:1003B000000240009000240000203FFF023FC09058
:1003C0003FC40FFFC0800082002090400410001046
:1003D0007FFE82002090400417FFE00002823FC0B1
:1003E000603FC4140000000282400000002414009A
:1003F000000002824000000024140000000282403D
:1004000000000024140000000282400000002414B8
:10041000000000028240000000241400000002825C
:1004200041FC03F824140000FFFE824105FA082471
:1004300017FFF0000082417C03E824100000FFFF5A
:100440000181400028180FFFF00000000140002843
:100450000000000000000001400028000000000033
:1004600000000140002800000000000000014000E2
:1004700028000000000000000140002800000000EB
:10048000FFFF0181400028180FFFF0000082417F2C
:10049000FFE824100000FFFE82410000082417FF3F
:1004A000F000028241FFFFF82414000000028240A5
:1004B0000000002414000000028240000000241408
:1004C00000000002824000000024140000000282AC
:1004D00040000000241400000002824000000024BC
:1004E00014000000028240FFFFF0241400007FFE91
:1004F00082410000082417FFE080008241000008CC
:10050000241000103FFF0180FF0FF0180FFFC040C4
:10051000000000009000000000204000000000905B
:1005200000000000204000000000900000000020BB
:10053000400000000090000000002040000000008B
:1005400090000000002040FF01FFC0903FF80FF036
:1005500020410082002090400410082041008200C9
:100560002090400410082040FC81FFC0603FF81339
:10057000F0204004800000000000120020400480B1
:100580000000000000120020400480000000000075
:1005900012002040048000000000001200204004EF
:1005A0008000000000001200203E048180FFFFF068
:1005B000181207C00104824100000824120800013B
:1005C000048241000008241208003E030240FF0F8D
:1005D000F0240C07C04000024000900024000020DE
:1005E0004000024000900024000020400002400033
:1005F00090002400002040000240009000240000F1
:1006000020400002400090002400002040FFFC3FFA
:10061000C0903FC3FFF02041000000209040000048
:100620000820410000002090400000082040FFFF0B
:10063000FFC0603FFFFFF02040000000000000000E
:1006400000002040000000000000000000204000EA
:10065000000000000000000020400000000000003A
:100660000000002040000000000000000000203FCB
:10067000FFFFFFFFFFFFFFFFFFC080000000000043
:1006800000000000107FFFFFFFFFFFFFFFFFFFE004
:10069000000000000000000000000000000000005A
:1006A000000000000000596F6461277300202020C3
:1006B00020596F646127730020202020596F6461E6
:1006C00027730003053F213F0A100A1208120E1C6F
:1006D0000E0C1E0C141A14161F161E131E1E1B1EA3
:1006E0001E1F1E3F213F3A2F3A173D173F213F184B
:1006F0001F02040A041F0E04040E1F0A1F0A0E0E16
:100700001F04110E2E252E2F2A2E262929021F0204
:10071000081F08150E04040E150E15151B151B04D5
:100720000604040C040000000017000300031F0A65
:100730001F16371A1904130A153A000300000E1188
:10074000110E000A040A040E040030000404040020
:1007500010001804031F111F121F101D151711156B
:100760001F07041F17151D1F151D01011F1F151F32
:1007700017151F000A00003200040A110A0A0A11A4
:100780000A040115020E11171E051E1F150A0E116F
:100790000A1F110E1F15111F05010E111D1F041F29
:1007A000111F1108100F1F041B1F10101F061F1E02
:1007B000040F0E110E1F09060E112E1F051A121519
:1007C00009011F011F101F0F180F1F0C1F1B041BF7
:1007D000031C03191513001F11030418111F000235
:1007E00001022020200001020C121E1F120C0C120C
:1007F000120C121F0C1A14041E05242A1E1F021CA0
:10080000141D1020201D1F0814111F101E041E1E71
:10081000021C0C120C3E0A040C123E1E040214169A
:100820000A020F120E101E0E100E1E081E120C12BF
:1008300026281E322A26041E21001F00211E040124
:1008400002013F213F0A4E6F2053442063617264CE
:10085000206F720A6E6F204C4F414445522E48451E
:10086000580A0A153A45786974001D20466C617370
:1008700068696E670A20206C6F616465722E2E2E87
:100880000A0A444F4E2754205455524E204F464694
:1008900021004E4F20424154544552590A0A504CAF
:1008A000454153450A5455524E204F464600177352
:1008B00061766500166261636B001574797065007E
:1008C0000A0A0A153A6F6B617920163A65646974F1
:1008D00000596F7520656E74657265640A00540A6C
:1008E00003E181867F3E186D830F0F0E01838660C2
:1008F00033186DC3198F1803C38E6033186DE3303E
:10090000CF1803C39E603630CDE360CF3006C79E5C
:100910007E3E30CDB360CF300CC6F6603330D9B6F2
:1009200060CF33CFCCF66061B0DB1E60CF30D86CC7
:10093000E6C061B0DB1E618F19986CC6C063B19BC5
:100940000E330F0FB078C6FF7E1F1B061E0F175306
:1009500044001613780016131400151020001520FB
:100960001000000005008930080238024978681438
:100970000000450068010000050068013801000022
:100980000500380168010000F6E8DBCFC3B8AEA46B
:100990009B928A827B746E68625C57524E494541D5
:1009A0003E3A3734312E2C29272523211F1D1C1AAE
:1009B0001917161514131211100F0E0D0C0B0A092E
:1009C000080706C709CB090101F7030101FF03006E
:1009D000000000240027002A000000000025002855
:1009E000002B00000000002300260029000404045E
:1009F00004040404040202020202020303030303C8
:100A000003010204081020408001020408102001A4
:100A10000204081020000000070002010000030487
:100A20000600000000000000000063065C061124C0
:100A30001FBECFEFD8E0DEBFCDBF13E0A0E0B1E036
:100A4000E4EDFAE502C005900D92A235B107D9F7A1
:100A500017E0A2E5B3E001C01D92A938B107E1F7A4
:100A60001AE0CCE2DAE004C02297FE010E94222DB7
:100A7000CA32D107C9F70E945B270C945D2D0C94F4
:100A80000000A0E0B0E0E7E4F5E00C942E2DEC01CE
:100A9000A880B980CA80DB80A114B104C104D1044C
:100AA00041F484E2A82E89EDB82E8BE5C82E87E0AC
:100AB000D82EC601B5012DE133EF41E050E00E9490
:100AC000052D27EA31E440E050E00E94912C7B01A3
:100AD0008C01C601B5012DE133EF41E050E00E94E9
:100AE000052DCA01B9012CEE34EF4FEF5FEF0E94E4
:100AF000912C6E0D7F1D801F911F97FF04C06150C8
:100B0000704080409048688379838A839B839B01EF
:100B1000AC015F77B901CA01CDB7DEB7EAE00C944A
:100B20004A2D0E94410508958DE891E00E944105FB
:100B3000089560938D0170938E0180938F0190933F
:100B400090010895FB01DC0102C001900D9241501B
:100B50005040D8F70895FB01DC018D910190801978
:100B60000110D9F3990B0895FB01DC0101900D925E
:100B70000020E1F708958091F804882399F5809189
:100B8000570490915804892B69F5809159049091EC
:100B90005A048F5F9F4F31F58091610490916204F8
:100BA00020915D0430915E04280F391F30935E045C
:100BB00020935D04409163045091640420915F048C
:100BC00030916004240F351F3093600420935F043C
:100BD000892B11F4452B31F080916E048F5F837067
:100BE00080936E0480915D0490915E040296059757
:100BF00058F010925E0410925D0480915B04909115
:100C00006104890F80935B0480915F04909160047C
:100C10000296059758F01092600410925F0480913C
:100C20005C0490916304890F80935C0480915B0461
:100C3000882351F480916104909162048F5F9F4FEB
:100C400019F48BE180935B0480915B048B3140F05D
:100C50008091610490916204019711F410925B04F9
:100C6000089581309105D1F46F5F7F4F21F5109287
:100C70001504109214048DE493E090931304809370
:100C800012048AE494E060E071E00E94C82983E5E0
:100C900095E060E071E00E94C8290895892B59F41D
:100CA0006F5F7F4F41F483E595E00E94FB298AE462
:100CB00094E00E94FB29089580E090E06FEF7FEFC1
:100CC0000E943106089581E090E06FEF7FEF0E946F
:100CD000310608958F929F92AF92BF92CF92DF928A
:100CE000EF92FF920F931F937C01162F57E7852EEB
:100CF00053E0952E49ECA42E42E0B42E6C0134E072
:100D0000CC0CDD1C3A95E1F7CA0CDB1CC40160E099
:100D1000F601448520E0012F0E94601EC40161E0BD
:100D2000F601408120E00E94601EF6012085219599
:100D3000C40162E042850E94601E94E0EE0CFF1C3C
:100D40009A95E1F7F60124812A53C40163E04681B4
:100D50000E94601EAE0CBF1CC401F5016281F60149
:100D60004685212F0E94C51E1F910F91FF90EF9085
:100D7000DF90CF90BF90AF909F908F90089580911B
:100D80006A058F5F65E00E94B02C90936A05209100
:100D9000F4043091F5041216130604F52150304086
:100DA0003093F5042093F4049923C1F580915904FC
:100DB00090915A048F5F9F4F89F58091F8048823A2
:100DC00069F58091570490915804892B39F582E098
:100DD00090E060E070E00E946A0608959923F1F4C3
:100DE0008091590490915A048F5F9F4FB9F480917C
:100DF000F804882399F48091570490915804892B22
:100E000069F480916B0590E060E070E00E946A06F2
:100E100080916B058F5F817080936B0508958F9231
:100E20009F92BF92CF92DF92EF92FF920F931F9308
:100E3000CF93DF93A1E0CA2EA5E0DA2EF9E0EF2EE2
:100E4000F5E0FF2E01E315E0C0E0D0E0E3E0BE2EC8
:100E500076E4872E912C80915B048B9DA001112458
:100E600080915D0490915E04480F591FFE01E75088
:100E7000FB4F80818B9D90011124F601808191812F
:100E8000280F391FC9010196841795070CF461C01A
:100E900021503040421753070CF45BC080915C0432
:100EA0008B9DA001112480915F0490916004480FF4
:100EB000591FFE01E350FB4F80818B9D900111244F
:100EC000F70180819181280F391FC901019684178C
:100ED00095070CF43EC02150304042175307CCF127
:100EE000F80180819181892BA1F58091590490911D
:100EF0005A048F5F9F4F69F58091F4049091F50437
:100F000018161906E4F48091F6049091F7042091E4
:100F1000510430915204280F391F3093520420930A
:100F20005104880F991F9093F7048093F60481E091
:100F300090E0F8019183808385E090E006C0909274
:100F40005A048092590487E090E061E070E00E94CA
:100F50006A06219682E090E0C80ED91EE80EF91EBE
:100F60000E5F1F4FC430D10509F075CFDF91CF91CF
:100F70001F910F91FF90EF90DF90CF90BF909F90C7
:100F80008F900895CF92DF92EF92FF920F931F936D
:100F9000CF93DF9380915D0490915E04892B09F0DB
:100FA0002BC180915F0490916004892B09F024C1CA
:100FB00020915C0430E065E0220F331F6A95E1F771
:100FC00080915B04280F311D3093690520936805DB
:100FD000F90153E0F595E7955A95E1F7F09363052C
:100FE000E093620520953095277030703093650549
:100FF00020936405E059FB4F808190E002C09595F5
:1010000087952A95E2F78170907090936705809399
:101010006605019709F064C080916F048150809348
:101020006F0480FD03C083E090E002C084E090E0A4
:1010300061E070E00E946A06E0916205F09163054C
:10104000E059FB4F81E090E00090640502C0880FFA
:10105000991F0A94E2F72081281B208380915B046A
:10106000813011F08A3149F580915C04843011F0AF
:10107000883119F58091510490915204C296909351
:101080005204809351048091560490E021EF3FEF89
:10109000AC01429FC001439F900D529F900D1124BF
:1010A0008C549F4F9093F5048093F40488EC90E067
:1010B0009093F7048093F60409C0809151049091B5
:1010C00052040A96909352048093510480916F04C5
:1010D000882331F48CE390E0909358048093570474
:1010E00080915B04C82EDD24E0906904F0906A04CE
:1010F00080915C04C82FD0E000916B0410916C04C7
:10110000C6018E0D9F1D9E01200F311F45E0220F4D
:10111000331F4A95E1F7820F931FFC0123E0F595F9
:10112000E7952A95E1F7E35CFD4FE081F0E068E0A8
:1011300070E00E94D02C27E030E0281B390B02C061
:10114000F595E7952A95E2F7E0FD10C0F09262046C
:10115000E09261041093640400936304F0926604C7
:10116000E092650410936804009367048091610421
:10117000909162048C0D9D1D209163043091640454
:10118000C20FD31F15E0CC0FDD1F1A95E1F78C0FAE
:101190009D1F9093690580936805FC01B3E0F59568
:1011A000E795BA95E1F7F0936305E093620568E08F
:1011B00070E00E94D02C27E030E0281B390B3093E0
:1011C000650520936405E35CFD4F808190E002C0DB
:1011D000959587952A95E2F78170907090936705B1
:1011E00080936605892B41F010926204109261048D
:1011F0001092640410926304DF91CF911F910F91BC
:10120000FF90EF90DF90CF900895FF920F931F9380
:10121000CF93DF938091590490915A042FEF8F3F21
:10122000920719F0CD970CF46CC000E010E0C0E01C
:10123000D0E0E3E0FE2EFE01EF5EFA4F8081918167
:10124000019719F422E030E002C020E030E0FE0116
:10125000E75EFA4F0190F081E02D8FEFEF3FF80746
:1012600019F424E030E004C0319711F426E030E0B6
:101270008091F4049091F5041816190614F428E0EE
:1012800030E0FE01EF5CFA4F80819181019711F40B
:101290002AE030E0FE01EF5FFA4F60816150F80113
:1012A000E750FB4F80818F9DC0011124680FFE0124
:1012B000E75FFA4F4081415080915C05481BF8017F
:1012C000E350FB4F80818F9DC0011124480F809116
:1012D0005E05F901E80FF11D9F0173E0220F331F36
:1012E0007A95E1F72E1B3F0B29523E4F82E194E0A5
:1012F0000E94F4160F5F1F4F22960430110509F06B
:101300009ACFDF91CF911F910F91FF900895809117
:101310006105882349F480916F048E3A11F08A3474
:1013200019F480E980936105809161058823B9F102
:1013300045E380915C05481B2091600587E0289F6C
:1013400090011124255D3D4F82E194E069E20E9405
:10135000F4168091610581508093610580915B0452
:101360008D508230E0F480915C048231C1F410929F
:1013700061058091560424E6829FC00111242091CA
:10138000510430915204280F391F30935204209396
:10139000510486E090E061E070E00E946A060895E2
:1013A00080915F0490916004459720915C0443E034
:1013B000249F90011124820F931F90935D058093C9
:1013C0005C058B5F9F4F34F48BEF9FEF90935D052F
:1013D00080935C0580915C0590915D05C99734F020
:1013E00088E390E090935D0580935C0580915704BD
:1013F00090915804892B59F440915C05419582E104
:1014000094E060E023E632E00E94F41608958091B3
:101410005E05882351F440915C05419582E194E09A
:1014200060E023E632E00E94F41608958091F8040B
:10143000882389F080915E05882341F482E194E05D
:1014400060E242E02AE331E00E94F4168091F80461
:1014500081508093F8040895CF93DF9380915C05C9
:1014600090915D052FEF8B3F920719F4C0E0D0E01B
:1014700005C0C89709F04BC0CBE2D0E0809155047D
:10148000823040F082E194E060E04C2F20E631E0D1
:101490000E94F41680915504833040F082E194E07C
:1014A00066E04C2F20E631E00E94F4166091510472
:1014B000709152046A30710514F488E201C086E22A
:1014C0006436710514F420E001C022E093E0683E28
:1014D000790714F490E001C092E0821B891B80938D
:1014E0001B04C0931C0482E194E04AE050E00E9497
:1014F000B32888E480931B046091560470E06F5F0A
:101500007F4F82E194E04AE050E00E94B328DF91EF
:10151000CF91089580915704909158041816190698
:1015200094F401979093580480935704892B59F4AD
:10153000809156048F5F809356048AE494E061E0C2
:1015400071E00E94E22908950F931F931092F50411
:101550001092F40410925804109257046FEF7FEF2A
:1015600070935A04609359042DE020935B0488E142
:1015700080935C0442E050E050935E0440935D042D
:101580001092600410925F0401E010E01093620476
:101590000093610410926404109263041093660433
:1015A0000093650410936804009367049CE0909393
:1015B0006D0483E080936E04109261058EE1809348
:1015C000F8042093F9049093FD041093020500930E
:1015D000010510920A051092090510931205009357
:1015E000110510921A05109219059093FA048FE0D4
:1015F0008093FE04109204051092030510920C05CE
:1016000010920B05109314050093130510921C05FE
:1016100010921B052093FB048093FF045093060552
:101620004093050510920E0510920D0510931605B6
:101630000093150510921E0510921D058093FC0461
:10164000809300051092080510920705109210056E
:1016500010920F05709318056093170510922005DE
:1016600010921F0583E595E06AE071E00E94E2298F
:1016700010935B0500935A058AE494E060E171E001
:101680000E94E2291F910F91089520E030E0F901B6
:10169000E059FB4FD901A754BE4F8C9180832F5F37
:1016A0003F4F2438310599F784EF80936F04809180
:1016B000560480936005883018F087E080936005B9
:1016C0008AE494E068E171E00E94E22908951092B2
:1016D00052041092510483E08093550410925604F2
:1016E0008AE494E061E071E00E94E229089520918B
:1016F0005104309152048091530490915404821704
:10170000930724F4309354042093530410921B0441
:1017100010921C0482E194E060E271E00E94C6280D
:1017200060915104709152046A30710514F48EE096
:1017300001C08CE06436710514F420E001C022E0A1
:1017400093E0683E790714F490E001C092E0821BB8
:10175000891B80931B0486E080931C0482E194E043
:101760004AE050E00E94B328609153047091540401
:101770006A30710514F482E401C080E464367105B6
:1017800014F420E001C022E093E0683E790714F4ED
:1017900090E001C092E0821B891B80931B0486E0CD
:1017A00080931C0482E194E04AE050E00E94B32858
:1017B00082E194E06AE04DE028E630E00E94F41611
:1017C00010921B048AE280931C0482E194E064E39B
:1017D00071E00E94C6288CE593E064E00E94B51396
:1017E000882351F08AE494E069E471E00E94E229E0
:1017F00087E793E00E942F238CE593E066E00E9448
:10180000B513882341F082E593E066EA76E048E686
:1018100050E00E94841C08950F9382E194E060E000
:101820000E94051482E194E066E140E127E209E0CC
:101830000E94D71482E194E061E00E94051488E1DF
:1018400080931B0482E180931C0482E194E061E5B3
:1018500071E00E94C62882E194E066E140E127E25F
:101860000E940D1584E080931B048AE280931C047F
:1018700082E194E06BE571E00E94C6288CE593E07C
:1018800065E00E94B513882351F08AE494E06FE686
:1018900071E00E94E22987E793E00E942F230F91D5
:1018A00008952F923F924F925F926F927F928F9204
:1018B0009F92AF92BF92CF92DF92EF92FF920F93DF
:1018C0001F93DF93CF93CDB7DEB76F970FB6F89422
:1018D000DEBF0FBECDBF8091490590914A05181615
:1018E00019060CF079C2019790934A058093490537
:1018F0008091F804882309F079C28091570490916F
:101900005804892B09F072C28091590490915A04AD
:101910008F5F9F4F09F06AC281E395E09C878B87B8
:10192000A9EFB4E0BA87A987E1E1F5E0FC83EB8396
:1019300049E055E02DEF34E038872F8389E195E0C9
:101940009E838D8311E0A12E15E0B12EEB84FC84E3
:10195000FD018B809C80B9018C01ABE1DA2ED701AF
:101960008D919C91019799F4D5011D921C92DA01F9
:101970001D921C928081D4019C91890F8083DB0190
:101980008C91D8019C91890FDB018C9316C0D501F5
:101990008D919C91D4012D913C91820F931FD50183
:1019A0008D939C93DA018D919C91D8012D913C915E
:1019B000820F931FDA018D939C93D5018D919C9199
:1019C00011970296059738F01D921C928081D401E0
:1019D0009C91890F8083DA018D919C9111970296D9
:1019E000059748F01D921C92DB018C91D8019C91C7
:1019F000890FDB018C938081882339F4D4018D9188
:101A00009C918F5F9F4F09F4D08280818B3130F0A1
:101A1000D4018D919C91019709F4108222E030E06D
:101A2000E20EF31E3196820E931E4E5F5F4F6F5F84
:101A30007F4F0E5F1F4FA20EB31E39E3E31635E052
:101A4000F30609F08CCF80916805909169059C8B15
:101A50008B8BA0916405B0916505BA8BA98BE09141
:101A60006205F0916305F88BEF8720914D05309169
:101A70004E053E872D87C0904B05D0904C05609059
:101A800051057090520520904F0530905005AA24C2
:101A9000BB24F501EF5FFA4F80819181892B09F01A
:101AA0003FC1F501E75FFA4F80819181892B09F0F1
:101AB00037C1A985BA859C90E92DF0E0FC8FEB8FAA
:101AC000AF81B8858C90482C5524F20135E0EE0F9B
:101AD000FF1F3A95E1F72B8D3C8DE20FF31FFC8B36
:101AE000EB8BAB81BC810D90BC91A02DBA8FA98FDF
:101AF000F501EF5DFA4F20813181388F2F8BF50191
:101B0000E75DFA4F808191819E8B8D8BA9E3B5E0D3
:101B1000BA83A9837D0100E010E01F8E1E8EB92DCF
:101B2000BD50BD8FEE8DFF8DEF56FE4F2081318170
:101B30008B899C89820F931F9E878D8723E09595C3
:101B400087952A95E1F7988B8F878D859E8568E02C
:101B500070E00E94D02CA7E0B0E0A81BB90BBA8BB4
:101B6000A98BEF85F889E35CFD4F8081C82EDD24C9
:101B7000098802C0D594C7940A94E2F7B1E0CB2259
:101B8000DD24ED8DE23078F4FCE08F1661F4AB8556
:101B9000BC858D919C91019731F00330110519F4AA
:101BA00091E0C92ED12CEE8DFF8DE755FE4F80813F
:101BB0009181E98DFA8DE817F907C1F4EE8DFF8D5B
:101BC000EF54FE4FAD81BE812D913C91808191817A
:101BD0002817390759F4BFE08B1629F4ECE09E165C
:101BE00029F09B1619F081E0C82ED12CEE8DFF8DC7
:101BF000E756FE4F808191812F88388C281A390A48
:101C00002B8D3C8D221A330AEE8DFF8DEF55FE4F42
:101C1000808191816D887E88681A790A64187508B8
:101C2000669CB001679C700D769C700D1124229CFF
:101C30009001239C300D329C300D1124620F731FD4
:101C4000882777FD8095982F0E94192B0E94302CB1
:101C5000D7016D937D938D939C931397B1E0CB1631
:101C6000D10449F480E090E0A8ECB2E4F70180836D
:101C70009183A283B3830F5F1F4F2E8D3F8D2E5F05
:101C80003F4F3F8F2E8F84E090E0E80EF91E043026
:101C9000110509F047CFB3E64B2E512C88248A94C6
:101CA000982C1F8E1E8EA981BA81ED90FD900D910A
:101CB0001C91B201882777FD8095982F0E94192BDF
:101CC0009B01AC01C801B7010E94E22A18163CF042
:101CD000C801B7010E94E62A2B018E8C9F8CEE8DE5
:101CE000FF8D3196FF8FEE8F29813A812C5F3F4F18
:101CF0003A8329833497B9F6F401EE0FFF1FDF0111
:101D0000A756BE4F8D919C91AB81BC818D939C93C6
:101D1000EF55FE4F80819181ED81FE81918380831B
:101D2000A985BA858C918D3071F4EF81F885808119
:101D30008F3049F4AB85BC858D919C9111970197AB
:101D400011F41D921C92E2E0F0E0AE0EBF1E298558
:101D50003A852F5F3F4F3A8729878F819885019673
:101D600098878F83AB85BC851296BC87AB87EB8148
:101D7000FC813296FC83EB832D813E812E5F3F4FA9
:101D80003E832D8338E0A316B10409F082CE8B89FF
:101D90009C899093690580936805A989BA89B09355
:101DA0006505A0936405EF85F889F0936305E093DA
:101DB00062052D853E8530934E0520934D05D092CA
:101DC0004C05C0924B0570925205609251053092BD
:101DD000500520924F050AC08091560490E001966C
:101DE000880F991F90934A05809349056F960FB607
:101DF000F894DEBF0FBECDBFCF91DF911F910F9141
:101E0000FF90EF90DF90CF90BF90AF909F908F901A
:101E10007F906F905F904F903F902F9008958091AA
:101E2000F4049091F504181619060CF04DC06CE1FD
:101E300070E080E090E00E94122970932205609388
:101E4000210561E270E080E090E00E941229709329
:101E50002A05609329056CE170E080E090E00E9423
:101E60001229709324056093230561E270E080E0FD
:101E700090E00E94122970932C0560932B056CE171
:101E800070E080E090E00E94122970932605609334
:101E9000250561E270E080E090E00E9412297093D5
:101EA0002E0560932D056CE170E080E090E00E94CB
:101EB0001229709328056093270561E270E080E0A5
:101EC00090E00E941229ADC083E595E065E771E0DE
:101ED0000E943C29882309F11092220510922105C5
:101EE00010922A05109229052BE130E03093240549
:101EF0002093230510922C0510922B051092260595
:101F00001092250580E290E090932E0580932D0598
:101F1000309328052093270575C080915B04E82F36
:101F2000F0E0F0932205E093210580915C04682F96
:101F300070E070932A056093290520916504309123
:101F40006604C901880F991F880F991F8E0F9F1F64
:101F50009093240580932305409167045091680471
:101F6000CA01880F991F880F991F860F971F90939A
:101F70002C0580932B058091F90490E0220F331FEC
:101F80002E0F3F1F281B390B220F331F280F391F1D
:101F900030932605209325058091FD0490E0440FA1
:101FA000551F460F571F481B590B440F551F480F0D
:101FB000591F50932E0540932D058091FC049F01DD
:101FC000281B310980910005AB01481B5109449F32
:101FD000C001459F900D549F900D1124A901449F6D
:101FE0009001459F300D549F300D1124820F931F97
:101FF00008979CF48BE190E0909328058093270547
:1020000080E290E09093300580932F0520E030E04F
:102010006DE070E04FE050E009C0F0932805E093D8
:1020200027057093300560932F05F0CFF901EF5C21
:10203000FA4F80819181019751F4F901EF5DFA4FD8
:1020400071836083F901E75DFA4F518340832E5F0E
:102050003F4F2830310551F7089580915A059091EE
:102060005B05019790935B0580935A051816190636
:10207000A4F183E595E06AE071E00E943C298823A1
:10208000D1F083E595E065E771E00E94E229809157
:10209000560490E024EC3FEFAC01429FC001439F07
:1020A000900D529F900D1124845D9E4F90935B057F
:1020B00080935A05089583E595E06AE071E00E94F7
:1020C000E2298091560426E9829FC0011124885A92
:1020D0009D4F90935B0580935A050895CF92DF92B0
:1020E000EF92FF921F93CF93DF9388E090E090935D
:1020F000630580936205E0E4EE2EF12C77E0C72EB5
:10210000D12C7FC0D0926505C09264056BC0E059A8
:10211000FB4F808190E002C0959587952A95E2F764
:10212000817090709093670580936605019709F020
:102130004DC0A7014F715070970165E03595279507
:102140006A95E1F7E901CC0FDD1FC20FD31F809123
:102150005C0590915D05C81BD90B4130510519F004
:102160004A31510531F52430310519F02831310556
:1021700001F5D7FD1EC0C033D105DCF480915E05AA
:10218000813021F5BA01660F771F640F751F162F76
:10219000CE018F5F482F82E194E023E00E94C314B8
:1021A0001F5F82E194E0612F4C2F23E00E94CD1449
:1021B0000DC0BA01660F771F640F751F6F5FCE01E8
:1021C0008F5F482F82E194E00E940D140894E11C77
:1021D000F11C8091640590916505019790936505C8
:1021E000809364052091640530916505E091620556
:1021F000F091630537FF8BCF3196F0936305E09341
:10220000620580916205909163058C3791050CF40D
:1022100079CFDF91CF911F91FF90EF90DF90CF901A
:1022200008958CE593E061E040E00E94BF138823AD
:1022300051F08FEF9FEF90936C0480936B0410929A
:102240006A04109269048CE593E063E040E00E9428
:10225000BF13882351F081E090E090936C04809349
:102260006B0410926A04109269048CE593E060E0BC
:1022700040E00E94BF13882351F08FEF9FEF9093AF
:102280006A048093690410926C0410926B048CE5CC
:1022900093E062E040E00E94BF13882351F081E0A8
:1022A00090E090936A048093690410926C041092F9
:1022B0006B048CE593E066E00E94B513882371F00F
:1022C00082E593E06DEA76E048E650E00E94841CE7
:1022D0008AE494E06FE671E00E94E229089580911B
:1022E000590490915A04019790935A048093590489
:1022F00065E070E00E94D02C892B21F487E793E001
:102300000E943523E0915D04E15080915B0423E05D
:10231000829FC0011124E80F40915F0441508091D9
:102320005C05481B80915C04829FC0011124480F0A
:102330008091590490915A0466EF7FEF0E94D02C4F
:102340006D5E7F4F9B01F3E0220F331FFA95E1F79B
:10235000261B370B255B3E4F82E194E06E2F0E94D7
:10236000F4168091590490915A04892BD1F48FEF7F
:102370009FEF90935A0480935904809155048150A3
:1023800080935504882339F48AE494E06DE771E082
:102390000E94E22908958AE494E068E171E00E94D5
:1023A000E22908958091590490915A048F5F9F4FBC
:1023B00061F560915D04615080915B0423E0829F30
:1023C000C0011124680F40915F04415080915C0569
:1023D000481B80915C04829FC0011124480F20910A
:1023E0006E0480916D0490E0820F911D9C01A3E02A
:1023F000220F331FAA95E1F7281B390B255B3E4FAF
:1024000082E194E00E94F41608950E946F110895ED
:1024100082E593E00E94CB1B882309F488C08AE4FC
:1024200094E069E471E00E943C29882311F00E9445
:10243000670B8AE494E061E071E00E943C29882304
:1024400011F00E94450B8AE494E068E171E00E947B
:102450003C29882311F00E94A40A8AE494E060E1F8
:1024600071E00E943C29882309F44DC080915F05EA
:102470008F5F837080935F05882331F480915E05C0
:102480008F5F817080935E050E94D0090E9487094A
:102490000E94D2110E94160A0E9411110E94BB05CF
:1024A0000E94C20780916104909162042FEF8F3FD8
:1024B000920721F488E080936D0404C0019711F421
:1024C00010926D04809163049091640481309105B1
:1024D00011F484E004C08F5F9F4F19F48CE0809367
:1024E0006D040E948A0A0E946E100E942D100E94A4
:1024F0000F0F0E94BF060E94510C0E940F070E94FE
:1025000005090E942C0A8AE494E06FE671E00E94BB
:102510003C29882311F00E94770B8AE494E06DE750
:1025200071E00E943C29882311F00E940C0C089550
:102530000F931F9302E513E0C8010E94E71DC80135
:102540006EE10E94B819C80168EB76E048E650E0F9
:102550000E94841CC8010E94801B8AE494E06FE6FC
:1025600071E00E94E22910926A031F910F91089571
:10257000882319F48CB5806202C08CB58F7D8CBD28
:1025800008959CB5937F982B9CBD08952CB5382F4A
:1025900033702C7F322B3CBD2DB590E095958795FF
:1025A0009595879581702E7F822B8DBD08958AE049
:1025B00061E00E94B4268AE061E00E9475268CB535
:1025C00080618CBD8CB580648CBD8DE061E00E9423
:1025D00075268BE061E00E9475260895FC0181E07C
:1025E0008083089585E070E00E94152608956F921B
:1025F0007F928F929F92AF92BF92CF92DF92EF9293
:10260000FF920F931F93CF93DF93EC0189819A81FF
:102610008C0124E0000F111F2A95E1F7081B190B0C
:1026200085E10E94F325BC01600F711F84E076955F
:1026300067958A95E1F77A8369838881882381F198
:102640002E813F816217730710F4B90106C0888597
:1026500099858617970708F4BC0100D000D080E068
:1026600090E040E050E0E884F98400E010E0AD80C4
:10267000BB24CC24DD246C80772488249924EDB7F6
:10268000FEB761827282838294820E94C9286B8322
:102690000F900F900F900F9085E070E00E9415262C
:1026A000DF91CF911F910F91FF90EF90DF90CF902E
:1026B000BF90AF909F908F907F906F900895FC0196
:1026C0008CE39FE09383828384E0818381E084872D
:1026D0000895CF93DF93EC018C8590E08F7190701B
:1026E000892B69F584E10E94F325AA2797FDA0951F
:1026F000BA2FBC01CD010E94192B26EE3FE34EEC10
:1027000050E40E94C92B0E94EB2A9B01AC017B8301
:102710006A836115710589F084E08983B901FE013E
:1027200020E0848195816817790710F429830AC015
:102730002F5F32962430A9F702C08FEF89838C85F2
:102740008F5F8C87DF91CF910895FC0188E08083B3
:1027500089E0818387E0828386E0838384E08483C9
:1027600082E0858381E18683089520E0FC01E60F05
:10277000F11D8781813009F421E0822F0895E62F31
:10278000F0E0423040F420E0E80FF91F87818150EB
:102790008E3F88F40FC0E80FF91F87818F3F11F437
:1027A00020E009C020E090E0642F70E00E94BC2C83
:1027B000019709F421E0822F08950F931F93CF937F
:1027C000DF93EC0110E00FEF888162E00E94752634
:1027D00088810E9408272F81892B19F42F5F2F836E
:1027E00007C0222349F02F3F11F41F8201C00F833D
:1027F000888160E00E9475261F5F2196173021F7BF
:10280000DF91CF911F910F910895FC01678F60A315
:102810000895FC01678F40A30895FC016435A8F575
:1028200047FD33C040338CF5878D942F9595959552
:102830009595772767FD70954770882399F0E4E5B3
:102840009E02F0011124E60FF71FE459FA4F81E0D0
:1028500090E002C0880F991F4A95E2F72081282B4B
:1028600020830895E4E59E02F0011124E60FF71F8E
:10287000E459FA4F81E090E002C0880F991F4A9511
:10288000E2F780952081282320830895AF92BF929C
:10289000CF92DF92EF92FF920F931F93CF93DF932C
:1028A000EC01162FF42EE22EAA24402F552747FDC7
:1028B00050958F2D992787FD9095481B590B57FFF1
:1028C00003C0509541955F4F2E2D332727FD30953E
:1028D000812F992787FD9095281B390B37FF03C05F
:1028E000309521953F4F2417350744F4AA24A3942B
:1028F0008F2DF12E182F802F0E2DE82EE11634F497
:102900008E2DE12E182F802F0F2DF82EDE2CD11AB0
:10291000202F332727FD30958F2D992787FD909500
:10292000281B390B37FF03C0309521953F4FB22E3E
:10293000F0161CF0CC24CA9402C0CC24C3948D2D74
:10294000D7FC8F5F082F059511C0AA2021F0CE017A
:102950006F2D412F03C0CE01612F4F2D0E940D140A
:102960000B1907FF02C0FC0C0D0D1F5FE1166CF781
:10297000DF91CF911F910F91FF90EF90DF90CF905B
:10298000BF90AF9008950F93042F322F262F215020
:10299000230F0E9446140F9108950F93362F042F92
:1029A0000150020F232F0E9446140F9108959F9209
:1029B000AF92BF92CF92DF92EF92FF920F931F934D
:1029C000CF93DF936C01B62E942EA02EC0E0D0E002
:1029D000E62EFF24E7FCF094022F112707FD109547
:1029E0000E0D1F1D06C0C601492D2A2D0E94CD14B3
:1029F00021966B2D6C0FCE018E0D9F1D80179107B8
:102A000094F3DF91CF911F910F91FF90EF90DF90A2
:102A1000CF90BF90AF909F900895CF92DF92EF92AA
:102A2000FF920F931F937C01162FD42EC22E0E946B
:102A3000C3144D2D4150400FC701612F2C2D0E9412
:102A4000C314C701612F4D2D202F0E94CD141150AA
:102A50001C0DC701612F4D2D202F0E94CD141F91F9
:102A60000F91FF90EF90DF90CF9008952F923F92BB
:102A70005F926F927F928F929F92AF92BF92CF920E
:102A8000DF92EF92FF920F931F93DF93CF9300D0CB
:102A900000D000D0CDB7DEB79E838D83C62ED42E56
:102AA000EE24E394E21A8EEF289F502C1124842EFA
:102AB0008A94962E9A94A42EA394B62EB394F22EB2
:102AC000662423E0722E10E0C801847090709A830F
:102AD0008983F801E270F070FC83EB8398E0292E83
:102AE000312C202231220170107054C0E7FC04C048
:102AF000FA94F2E05F0EE50C639489819A81892B48
:102B000071F04F2D4D0D8D819E816B2D0E940D1406
:102B10006F2D6C0D8D819E814A2D0E940D14EB81CD
:102B2000FC81EF2B71F04D2D4F198D819E816B2D06
:102B30000E940D146F2D6C0D8D819E81482D0E9479
:102B40000D142114310471F06C2D6F198D819E814B
:102B50004A2D0E940D144F2D4D0D8D819E81692DA2
:102B60000E940D140115110571F06C2D6F198D81E6
:102B70009E81482D0E940D144D2D4F198D819E81EF
:102B8000692D0E940D14E70CF2E07F0E8A949A944E
:102B9000A394B3946F140CF4A9CF26960FB6F894AF
:102BA000DEBF0FBECDBFCF91DF911F910F91FF9080
:102BB000EF90DF90CF90BF90AF909F908F907F90DD
:102BC0006F905F903F902F9008954F925F926F9219
:102BD0007F928F929F92AF92BF92CF92DF92EF92AD
:102BE000FF920F931F93CF93DF93EC01A62E742EC9
:102BF0009E2DFF24F394F21A8EEF289F802C11242F
:102C0000B42EBA9453E0C52ECE0CE22EDD2443E060
:102C1000942E10E031E0432E512C40225122692E97
:102C200063940270107034C0F7FC04C0EA9482E030
:102C3000880EF80CD3944114510489F06D2D6A0D5F
:102C4000472D4E192E2D220F260DCE010E94CD1498
:102C50006E2D6A0DCE014B2D2C2D0E94CD14011529
:102C6000110589F06A2D6D19472D4E192E2D220F51
:102C7000260DCE010E94CD146A2D6E19CE014B2D6A
:102C80002C2D0E94CD14F90C82E0980EBA94C80E37
:102C9000DE1454F2DF91CF911F910F91FF90EF90CE
:102CA000DF90CF90BF90AF909F908F907F906F906C
:102CB0005F904F9008957F928F929F92AF92BF92B4
:102CC000CF92DF92EF92FF920F931F936C01962E9B
:102CD000A42EF22E7E2C760E1EEFE19E102D1124D6
:102CE000812E820E672D282D0E94C314B02EBA0C9F
:102CF000BA94C601672D4B2D282D0E94C314AE0C2B
:102D0000100FC601692D4A2D212F0E94CD14F90CF8
:102D1000FA94C6016F2D4A2D212F0E94CD14C601B1
:102D2000672D4A2D2E2D01E00E943615FE18C60192
:102D30006F2D4A2D2E2D02E00E943615BE18C601B9
:102D40006F2D4B2D2E2D04E00E943615C601672DE8
:102D50004B2D2E2D08E00E9436151F910F91FF90EC
:102D6000EF90DF90CF90BF90AF909F908F907F902B
:102D700008958F929F92AF92BF92CF92DF92EF927F
:102D8000FF920F931F936C01162FA42E922EF02EFC
:102D9000BE2C8E2C860E2EEFE29EE02C11242E2DC2
:102DA000290D682D0E94D714AB0CFA94FE0C11501B
:102DB000190D1B19C601612F4A2D2B2D01E0EF2C97
:102DC0000E94E515C601682D4A2D2B2D02E00E94B8
:102DD000E5151F910F91FF90EF90DF90CF90BF907E
:102DE000AF909F908F9008953F924F925F926F9215
:102DF0007F928F929F92AF92BF92CF92DF92EF928B
:102E0000FF920F931F93CF93DF934C01362E442EE6
:102E1000F901A490319654906F010894C11CD11C03
:102E20008A2D992787FD9095079668E070E00E94AB
:102E3000D02CE62EFF24E7FCF09400E0C0E0D0E0C8
:102E400060E8662E712C26C0E12FE595E595E595A5
:102E5000FF27E7FDF095EC0FFD1FEC0DFD1DE49144
:102E60002E2F30E0812F8770A30102C05595479522
:102E70008A95E2F724233523232B31F0612F630D4C
:102E8000C4014B2D0E940D141F5F1A15ECF20F5F49
:102E9000CE0DDF1D051524F410E0B02EB40CF5CFD7
:102EA000DF91CF911F910F91FF90EF90DF90CF9026
:102EB000BF90AF909F908F907F906F905F904F905A
:102EC0003F9008953F924F925F926F927F928F92C0
:102ED0009F92AF92BF92CF92DF92EF92FF920F93A9
:102EE0001F93CF93DF93EC01862EA42E422F102F39
:102EF0003F8C23E526170CF4ABC03FE23A150CF4E7
:102F0000A7C0C02EDD248C8190E001979C01C29E59
:102F1000C001C39E900DD29E900D1124262F332701
:102F200027FD3095820F931F181619060CF090C0DC
:102F30008D8190E09C01C29EC001C39E900DD29EE7
:102F4000900D11242A2D332727FD3095820F931FD2
:102F5000181619060CF07CC09924442E55246DC017
:102F60009C01215030404217530711F460E00EC01D
:102F7000429EC001439E900D529E900D1124840FDD
:102F8000951FED8DFE8DE80FF91F64914C9DC001DA
:102F90004D9D900D5C9D900D1124682C680EBB24F6
:102FA000792C780C3FC0E62EFF2460FF19C0113049
:102FB00039F44B2D4A0DCE01672D0E940D142EC001
:102FC0002C9DC0012D9D900D3C9D900D11244A2DEE
:102FD000480FCE01662D212F012F0E94D7141EC04D
:102FE00098A18F8D9817D1F09F8F113039F44B2D08
:102FF0004A0DCE01672D0E940D140FC02C9DC001FB
:103000002D9D900D3C9D900D11244A2D480FCE0111
:10301000662D212F012F0E94D7143F8EF594E7943F
:103020006E2DB3942B2D332727FD30958D8190E0A5
:10303000281739070CF4B7CF9394492D552747FD2E
:1030400050958C8190E0481759070CF489CF3F8E3A
:10305000DF91CF911F910F91FF90EF90DF90CF9074
:10306000BF90AF909F908F907F906F905F904F90A8
:103070003F9008950F93CF93DF93EC01262F6A3092
:1030800049F48D819885899F802D11249A85980F08
:103090009A8726C06D3029F169854A8508850E9486
:1030A00062179C816885969F402D11248985480F61
:1030B00049878F818823A9F0552747FD5095699F3F
:1030C0009001112484E590E0821B930B84179507EF
:1030D00044F49D81699F902D11248A85890F8A87E8
:1030E000198681E090E0DF91CF910F9108951F93B1
:1030F000CF93DF93EC01162FF8948E8560E00E9449
:10310000B4268F8518161CF460E00E94B4261EBDFC
:103110000DB407FEFDCF8EB58F8518161CF461E047
:103120000E94B4267894DF91CF911F910895FF9269
:103130000F931F93CF93DF93EC01FF2400E010E087
:103140006F2D6064CE010E947718CE0160E80E9466
:1031500077188E8561E00E94B4268F8518161CF4BE
:1031600060E00E94B426F801E459FA4F90E08081B3
:103170008EBD0DB407FEFDCF8EB59F5F31969435A1
:10318000B1F78F8518161CF461E00E94B426F39401
:103190000C5A1F4F86E0F81699F6CE0160E40E94A3
:1031A0007718DF91CF911F910F91FF900895CF93E2
:1031B000DF93DC0188EF91E0ECE6F5E0EF019C01A4
:1031C000199221503040E1F719961C9219971A96DE
:1031D0001C92DF91CF910895EF920F93CF93DF93DD
:1031E000EC014D876C872E87E88A0F8781E08887FE
:1031F0008F8F18A28F83E3ECF6E084918F5F8C832E
:10320000319684918F5F8D833196FE8FED8F0E9472
:10321000D71281E00E94B81285E00E94C6128CE0AD
:103220000E94C1128D8561E00E9475268C8561E047
:103230000E9475268E8561E00E9475268889181681
:103240001CF461E00E9475268F8518161CF461E05D
:103250000E947526888918166CF460E00E94B426D6
:103260006AE070E080E090E00E945F25888961E07C
:103270000E94B426EC852E2F332727FD3095F901C7
:10328000E351F64FE491F0E0EE0FFF1FE752F64FE7
:10329000859194919C8B8B8B2F5F354FF901849195
:1032A0008A8FED852E2F332727FD3095F901E351C5
:1032B000F64FE491F0E0EE0FFF1FE752F64F8591D5
:1032C00094919A8B898B2F5F354FF9018491898F67
:1032D000EF852E2F332727FD3095F901E351F64F67
:1032E000E491F0E0EE0FFF1FE752F64F85919491C5
:1032F0009E8B8D8B2F5F354FF90184918B8FEE85DF
:103300002E2F332727FD3095F901E351F64FE49135
:10331000F0E0EE0FFF1FE752F64F85919491988FE2
:103320008F8B2F5F354FF90184918C8FCE0161E235
:103330000E947718CE0164E10E9477188B8587FF81
:1033400002C08FE78B876B856068CE010E9477187B
:10335000CE0160E20E947718CE016CE00E947718DF
:10336000CE010E949718DF91CF910F91EF900895B1
:10337000FC01262FE051FF4F88EE93E070E00E94A1
:10338000D02C6083E05FF040822F64E10E94B02C7B
:1033900085AB0895CF93DF93DC01E0E8FFE68591EC
:1033A0009491ED01C553DF4FAD014F515F4F8150F7
:1033B000904C09F04EC0E6E9FFE6E491E883E7E9C6
:1033C000FFE6E4911496EC931497E8E9FFE6E491A4
:1033D0001596EC931597E9E9FFE685919491179678
:1033E0009C938E931697EBE9FFE68591949119963D
:1033F0009C938E931897EDE9FFE6E491D796EC93B2
:10340000D797EEE9FFE6E491D696EC93D697EFE9ED
:10341000FFE6E491EA01E883E0EAFFE68591949112
:103420005D969C938E935C97E2EAFFE6859194917A
:103430005F969C938E935E97E4EAFFE68591949164
:1034400091969C938E939097E6EAFFE685919491EE
:1034500032C08CE3888314961C9214972FEF159634
:103460002C93159780E293E017969C938E93169772
:1034700084ED93E019969C938E93189781E0D796EC
:103480008C93D797D6968C93D697FA0120838CEAA3
:103490009DE05D969C938E935C978EED9DE05F968C
:1034A0009C938E935E9784E79EE091969C938E9377
:1034B00090978CE39FE093969C938E939297DF91E5
:1034C000CF910895EF92FF920F931F93CF93DF93C5
:1034D0007C018C0100541F4FC8010E94D718C801FD
:1034E0006AE678E00E949427C8010E94971883E05A
:1034F0000E94C61286E891E0EEEFFFE3099586ECA4
:1035000090E0E80EF91EF7011082C80165E478E04A
:103510000E94DF27C8010E949718E701CC5BD040CA
:10352000CE010E94DD13CE0164E00E94B513882312
:1035300039F462E370E080E090E00E945F25F0CF14
:10354000DF91CF911F910F91FF90EF9008950F930E
:103550001F93CF93DF93EC018C0100541F4FC801E0
:1035600061E040E00E940914FE01E753FF4FCC5395
:10357000DF4F85E59881891B808326961882CA5C77
:10358000D040698D613081F1613028F0888D6530DF
:1035900008F043C03DC0CE0185960E94431FCE0176
:1035A00060E00E94F212C8010E94D718C853DF4F92
:1035B00081E08883C80162E978E00E949427C8010D
:1035C0000E94971883B7817F846083BF83B781602F
:1035D00083BF83B7816083BF889583B78E7F83BFA6
:1035E00083B78E7F83BF1FC0CE51DF4F8881998103
:1035F000AA81BB818F709070A070B0700897A105F0
:10360000B10518F4C80167E00CC0C80168E709C03B
:10361000882349F06B5FC80104C0882321F0C801EA
:103620006FE20E94B727DF91CF911F910F9108950C
:10363000AF92BF92CF92DF92EF92FF920F931F93C0
:10364000CF93DF93EC01C950DF4F8881C75FD04033
:10365000882309F44AC08C3010F010E002C01CE04E
:10366000181BC853DF4F81E08883C85CD04060ECF2
:10367000C62ED12CCC0EDD1EC60160E00E940514C2
:1036800055ECA52EB12CAC0EBD1EF50100814DE20E
:10369000F42E4F2D401B410F0D5FC60160E024E565
:1036A00033E0E32E0E94B916C60161E00E940514C2
:1036B000F5010081F01AF10E0D5FC60160E04F2D9B
:1036C00024E50E945B16C753DF4F84E08993F50120
:1036D0008081181B115D1883AB9669917991C601A1
:1036E0000E949427888181508883DF91CF911F9118
:1036F0000F91FF90EF90DF90CF90BF90AF90089523
:103700004F925F926F927F928F929F92AF92BF92F1
:10371000CF92DF92EF92FF920F931F932C01FC0147
:10372000628C738C60947094882499240E9439254B
:103730005B016C010E9439257B018C01F201418003
:1037400052800E943925460E571EA094B094C09412
:10375000D094E094F09400951095C601B501A801AD
:1037600097010E94912CA40193010E94912C460E76
:10377000571EC2010E9434291F910F91FF90EF90B4
:10378000DF90CF90BF90AF909F908F907F906F9081
:103790005F904F900895AF92BF92CF92DF92EF92D9
:1037A000FF920F931F93CF93DF93EC01E1EFAE2EC7
:1037B000B12CA80EB91EF501E080F18002811381C1
:1037C0000E942B25E61AF70A080B190B70EFC72E7B
:1037D000D12CCC0EDD1EF601808190E0A0E0B0E09F
:1037E0008E159F05A007B10708F081C08E01045116
:1037F0001F4FF80180819181A281B3810097A105BB
:10380000B10509F474C00E942B25F6012081620FD6
:10381000711D811D911DF5016083718382839383E6
:10382000FE01EE51FF4F80819181A281B38101960B
:10383000A11DB11D80839183A283B383F8011082FF
:103840001182128213820E943925C851DF4F68838A
:1038500079838A839B83C85ED040CE010E94F71291
:10386000CE010A960E94DD13CE0148960E9469138C
:1038700081E032C08E010B5D1F4FC8010E94C61F40
:10388000C8010E94AA20C8010E942622CE010E94DF
:10389000181BCE010E94A71A8E0100541F4FC801A9
:1038A0000E949718CA53DF4F8881C65CD040882396
:1038B00019F4C8010E94D7180E943925C451DF4F5E
:1038C000688379838A839B83249728813981621B4B
:1038D000730B7A936A9380E0DF91CF911F910F91E0
:1038E000FF90EF90DF90CF90BF90AF900895C451BC
:1038F000DF4F88819981AA81BB81CC5ED04000973F
:10390000A105B10541F7B6CF2F923F924F925F923A
:103910006F927F928F929F92AF92BF92CF92DF92DF
:10392000EF92FF920F931F93DF93CF93CDB7DEB744
:103930002B970FB6F894DEBF0FBECDBF9B878A874B
:103940007A8369835C834B838C010F511F4FF8018D
:103950008081882309F422C18A859B8588539F4FE3
:103960009B878A8781E0EA85FB8580831292129289
:10397000E65CF040FB87EA87108E90ECE92EF12C94
:10398000EE0EFF1EC70161E00E9405148AE0282E9A
:10399000312C8A859B85280E391EB5E26B2E712C41
:1039A000680E791EE981FA81F491FD83A9EC8A2ED3
:1039B000912C880E991EFAECCF2ED12CC80ED91E50
:1039C000E4EC4E2E512C480E591E8B539F4F9F8373
:1039D0008E8372EEA72EB12C8A859B85A80EB91E08
:1039E000198708878A859B850E94CB1B8823D1F382
:1039F0009D81992311F410E003C0EE81FF811081B5
:103A0000C70160E040E02EED38E00E94F4168B81A3
:103A10009C81892B41F0145FC70160E0412F2B810D
:103A20003C810E94F416F40110828CE0F601808340
:103A3000C70169817A810E949427F201208130E0D8
:103A4000C901880F991F820F931F909581959F4FF1
:103A50008D5AF4018083EE81FF81208130E0C9011D
:103A6000880F991F820F931F909581959F4F835DBB
:103A7000F6018083F501808184FF04C0C7016EE5F3
:103A800079E003C0C7016AE579E00E94DF27F2010F
:103A9000208130E0C901880F991F820F931F9095F4
:103AA00081959F4F8D5AF4018083F60180818F5F4D
:103AB0008083EA85FB8586A9882321F0C70166E516
:103AC00079E003C0C70162E579E00E94DF27F201D7
:103AD000808190E09C01220F331F280F391F309501
:103AE00021953F4F2D5AF4012083F60180818F5F8D
:103AF0008083C7016EE479E00E94DF27C10165E0A1
:103B00000E94B513882351F0EA85FB8566A96F5F93
:103B1000C3010E943B23C3010E943523C10164E01D
:103B20000E94B513882399F4E885F9856081262FD2
:103B300030E040E050E0F50180819181A281B381C5
:103B400082179307A407B50708F16F3FF9F08A853C
:103B50009B858F519F4F9B878A878FEFEA85FB85D7
:103B60008083E15EF040FB87EA87C30160E00E944A
:103B7000331FC3010E942F2381E0EA85FB85808FDC
:103B80000DC08A859B850E94621A2CCFC10166E018
:103B90000E94B513882309F425CFF3CF2B960FB6D7
:103BA000F894DEBF0FBECDBFCF91DF911F910F9173
:103BB000FF90EF90DF90CF90BF90AF909F908F904D
:103BC0007F906F905F904F903F902F900895AF92AD
:103BD000BF92CF92DF92EF920F93CF93DF936C015E
:103BE00080EF90E0C80ED91E82E3F601808381E069
:103BF00090E0A0E0B0E0B293A293929382936F0121
:103C000085EF9FEFC80ED91E8FEFF60180838FE1FD
:103C10009FEFC80ED91EC6010E94CA19C6010E9494
:103C2000EE12C6016FEF0E94F2124AE0A42EB12CF0
:103C3000AC0CBD1CC5010E94A513C5010E94DD137B
:103C4000C60148960E945F13C60180549F4F6DE0E5
:103C50004BE020E10FE03EE0E32E0E94EC18E6018D
:103C6000A596CE010E944823C50165E00E94B513C8
:103C7000882329F0CE0160E00E943B2318C0CE01CA
:103C800064E679E040E00E94581FCE0164E679E0E6
:103C900041E00E94581FCE0164E679E042E00E94B4
:103CA000581FCE0164E679E043E00E94581FDF917F
:103CB000CF910F91EF90DF90CF90BF90AF9008958C
:103CC0000F93CF93DF93DC01043008F05AC06230C9
:103CD00009F443C0633030F4662359F0613009F0D1
:103CE00050C00DC0633009F43EC0643009F049C0D3
:103CF00040C0A00FB11DA15BBF4F4C9342C0602FCD
:103D000070E0EB01CC0FDD1FC80FD91F842F90E0AE
:103D1000880F991F2BA93CA9280F391FF9018591FC
:103D20009491CD58DF4F99838883FC01459154913C
:103D3000042FFD01E60FF71FE558FF4F4083252FA5
:103D40003327842F90E02817390708F4052FA60F92
:103D5000B71FA158BF4F0C9314C0FC01E00FF11D19
:103D6000E55AFF4F0BC0FC01E00FF11DED59FF4F6D
:103D700005C0FC01E00FF11DE559FF4F408334966B
:103D80002083DF91CF910F910895CF93DF93EC01C2
:103D90002430F0F4A22FB0E0FC01EA0FFB1FE95B36
:103DA000FF4F608334964083E05CFF4F1082CD016B
:103DB000880F991FC80FD91FCD57DF4F198218825E
:103DC000F89781E08083A859B84F8C93349610827D
:103DD000DF91CF910895CF93DF93EC01643008F029
:103DE0003FC0A62FB0E0FC01EA0FFB1FED5AFF4FCA
:103DF000108238971082CD01880F991FC80FD91FE4
:103E0000CD57DF4F198218823C961082FD01EC5885
:103E1000F84F1082FD01E059F84F1082A859B84FB1
:103E20001C9280916807882311F490E002C0909161
:103E3000740780916907882319F080917507980F9E
:103E400080916A07882319F080917607980F8091F6
:103E50006B07882319F080917707980F9093B4002F
:103E6000DF91CF9108951F93CF93DF93EC01162F2D
:103E7000643028F40E94EB1EC10FD11D1C82DF911B
:103E8000CF911F9108950F931F938C0160E00E94C2
:103E9000331FC80161E00E94331FC80162E00E9425
:103EA000331FC80163E00E94331F1F910F910895D3
:103EB000EF92FF921F93CF93DF93EC017B01142FBE
:103EC0004430F0F4642F0E94331F812F90E0FC01F6
:103ED000EE0FFF1FEC0FFD1FF4A6E3A6FF96118265
:103EE0001082FE01E80FF91F81E08483E15BFF4F40
:103EF00089E080833C961082389610823896108232
:103F0000DF91CF911F91FF90EF9008951F93CF9372
:103F1000DF93AC01162F6430A8F5262F30E0EC01BA
:103F2000C20FD31F8881882369F18C81882351F5C2
:103F3000D901AA0FBB1FA40FB51F8B8D90E0880F6E
:103F4000991F5396ED91FC915497E80FF91F8591B5
:103F500094912FEF8F3F920711F4188213C09FA303
:103F600090E0880F991F5F96ED91FC919097E80F74
:103F7000F91F65917491CA01412F0E94581F8B8DC2
:103F80008F5F8B8FDF91CF911F9108950F931F93B8
:103F90008C0160E00E94861FC80161E00E94861FBC
:103FA000C80162E00E94861FC80163E00E94861F6C
:103FB0001F910F9108956F927F929F92AF92BF923F
:103FC000CF92DF92EF92FF920F931F93CF93DF93E5
:103FD0007C01962E23E0261708F4AEC0C62EDD2401
:103FE000DC01AC0DBD1D14968C911497882309F447
:103FF000A3C0A55BBF4F8C91AB54B040882309F0A0
:104000009BC05601AA0CBB1CAE0CBF1C8501015CF9
:104010001F4FE801E881F981EE0FFF1FE5014BA575
:104020005CA5E40FF51F259134912115310509F0A8
:1040300047C0DB968C91DB97813039F4F80111820F
:104040001082FA01259134913BC014961C9214976A
:104050008C91882381F0C7010E94861FD8018D9121
:104060009C91880F991FE501EBA5FCA5E80FF91FAE
:104070002591349125C0C7010E94EB1E5DC0E6E08A
:1040800036952795EA95E1F76F70422F4F7175E0ED
:10409000369527957A95E1F72051C701092D0E94A1
:1040A000601E88819981019699838883880F991F62
:1040B000D501ED91FC91E80FF91F259134910DC0C8
:1040C0003601660C771CC701860D971DEC01EF9633
:1040D0004BE2A42EB12CA80EB91EB90176956795B6
:1040E0007695679520FDCBCFF701EC0DFD1DE95BC3
:1040F000FF4F862F8F73808334963083E05CFF4FB1
:104100001082D701A60DB71DAD57BF4F11961C9257
:104110001E92F89781E08083C8E6D7E0CC0EDD1EC2
:10412000E601888334961082A454B0408D919C910E
:10413000119701968D939C93DF91CF911F910F91D1
:10414000FF90EF90DF90CF90BF90AF909F907F90C7
:104150006F9008950F931F938C0160E00E94DB1F06
:10416000C80161E00E94DB1FC80162E00E94DB1F02
:10417000C80163E00E94DB1F1F910F910895DF9239
:10418000EF92FF920F931F93CF93DF937C01D62E74
:1041900043E0461708F452C1062F10E0DC01A00FDF
:1041A000B11FAD5ABF4F8C91A355B040882309F47D
:1041B00045C1FD01E55BFF4F8081882321F4C701E4
:1041C0000E94EB1E3BC181508083BD0165577F4F2C
:1041D000FB018081882309F052C0F801EE0FFF1F18
:1041E000EE0DFF1DEF01CD57DF4F888199810196BC
:1041F000880F991FED58FF4F0190F081E02DE80FD7
:10420000F91F25913491A157BF4F822F87708C934E
:10421000A901F3E056954795FA95E1F7CA019695FD
:1042200087951496232F3327269526952C938F73E5
:10423000F7012089829F802D1124FB018083F801E2
:10424000E858F84F4170408388819981019699839D
:10425000888358972C91AB57B04030E08217930772
:1042600070F0A158BF4F8C91882329F0281B310989
:104270003983288304C0C7016D2D0E94EB1EE7011E
:10428000C00FD11FFE01E557FF4F80818150808311
:10429000FE01E95AFF4F90819F5F9083FE01ED562A
:1042A000FF4FC95BDF4FE0818881C754D040E80FE2
:1042B0008FA1E80FE887CD59DF4F6881C356D04002
:1042C000662389F0892F992787FD909570E00E94D9
:1042D000D02CC959DF4F8881C756D040869F802D8A
:1042E00011248E0F8887F701E00FF11F808590E081
:1042F000CB966BE370E00E94D02C8087E15BFF4F90
:104300002081EF54F0402487E55AFF4F6081EB5540
:10431000F0406623A1F0E95AFF4F8081772767FDBF
:104320007095992787FD90950E94D02C38968081B2
:10433000EF55F040869F802D1124820F8487F7016E
:10434000E00FF11FE559FF4F6081EB56F040662307
:10435000C1F0E95AFF4F8081992787FD909570E061
:104360000E94D02CCB0162E070E00E94D02C7896A5
:104370009081EF56F040899F802D11249485890FFC
:104380008487F701E00FF11F84858A300CF089E003
:10439000F701E00FF11F87FD80E08487F701E00F50
:1043A000F11FE95BFF4F8081E754F0408F3309F440
:1043B0001486F894A701400F511FDA011896EC916A
:1043C000F0E0E857F64FE491D801A459B84FEC93C8
:1043D000FA012485332727FD309549565F4FDA01CE
:1043E0008C9190E0F901E89F9001E99F300DF89FD2
:1043F000300D1124D70151968C9190E0F901E89F7E
:104400009001E99F300DF89F300D11244850504025
:10441000DA018C91992787FD9095FC012E9FC001B0
:104420002F9F900D3E9F900D1124F801E059F84FF9
:1044300080830C58184FD8018C937894DF91CF91DA
:104440001F910F91FF90EF90DF9008950F931F93AE
:104450008C0160E00E94BF20C80161E00E94BF2083
:10446000C80162E00E94BF20C80163E00E94BF2033
:104470001F910F91089560917007662341F180911B
:1044800064078F5F8093640790916C078917F8F039
:1044900090E080916807882309F491E09093680781
:1044A0001092640780917807882379F08091C10287
:1044B00023E4829FC0011124895B8093C10290E0B4
:1044C00070E00E94BC2C8093740721E001C020E0C2
:1044D00060917107662339F1809165078F5F809342
:1044E000650790916D078917F0F090E0809169075A
:1044F000882309F491E090936907109265078091F1
:104500007907882379F08091C10223E4829FC0015A
:104510001124895B8093C10290E070E00E94BC2C62
:104520008093750721E060917207662339F18091CD
:1045300066078F5F8093660790916E078917F0F08A
:1045400090E080916A07882309F491E090936A07CC
:104550001092660780917A07882379F08091C102D2
:1045600023E4829FC0011124895B8093C10290E003
:1045700070E00E94BC2C8093760721E06091730765
:10458000662339F1809167078F5F80936707909169
:104590006F078917F0F090E080916B07882309F48A
:1045A00091E090936B071092670780917B078823B7
:1045B00091F08091C10223E4829FC0011124895BA4
:1045C0008093C10290E070E00E94BC2C809377073A
:1045D00002C02223F9F080916807882311F490E04B
:1045E00002C09091740780916907882319F0809127
:1045F0007507980F80916A07882319F080917607D4
:10460000980F80916B07882319F080917707980F96
:104610009093B40008951F920F920FB60F92112439
:104620002F933F934F935F936F937F938F939F93BA
:10463000AF93BF93EF93FF930E943B22FF91EF91C3
:10464000BF91AF919F918F917F916F915F914F91AA
:104650003F912F910F900FBE0F901F90189560E81B
:1046600079E040E00E94581F089562E779E040E059
:104670000E94581F0895FC01862F628970E06F5FC9
:104680007F4F992787FD90950E94D02C818B0895AC
:104690009F92AF92BF92CF92DF92EF92FF920F93D1
:1046A0001F93CF93DF93EC0181E0888B67E9C62EDF
:1046B000D12CCC0EDD1E53E3E52EF12CEC0EFD1EAD
:1046C00010E09924939443ECA42E49E0B42EF60113
:1046D00091926F01F701A192B1927F01CE0161E049
:1046E00040E020E0012F0E94601E1F5F143079F728
:1046F00083E061E070E00E9415268091B100887F20
:1047000081608093B100F894109280001092810033
:10471000109285001092840088E191E090938900C6
:1047200080938800809181008860809381008091CF
:10473000810081608093810080916F00826080930E
:104740006F007894DF91CF911F910F91FF90EF90C0
:10475000DF90CF90BF90AF909F9008950F931F93DD
:10476000CF93DF93BC018230910510F462E070E0DA
:10477000E0918707F0918807A0E0B0E040E050E0CA
:1047800024C08081918186179707D0F086179707FC
:1047900071F482819381109729F013969C938E93E4
:1047A00012972CC0909388078093870727C04115E4
:1047B000510519F08417950718F4EF018D01AC012C
:1047C000DF01828193819C01F9013097D1F6411577
:1047D0005105F9F0CA01861B970B8430910580F4CE
:1047E0008A819B810115110521F0F8019383828351
:1047F00004C09093880780938707FE01329645C0D6
:10480000FE01E80FF91F61937193029799838883E2
:104810003CC08091850790918607892B41F4809157
:10482000C4029091C50290938607809385074091BA
:10483000C6025091C7024115510541F44DB75EB70C
:104840008091C2029091C302481B590B20918507A9
:104850003091860724173507B0F4CA01821B930BE9
:104860008617970780F0AB014E5F5F4F841795075F
:1048700050F0420F531F5093860740938507F9016C
:104880006193719302C0E0E0F0E0CF01DF91CF913E
:104890001F910F910895CF93DF939C01009709F426
:1048A0008FC0EC0122971B821A826091870770915A
:1048B00088076115710581F488819981820F931FA2
:1048C00020918507309186072817390739F5D0934D
:1048D0008607C093850774C0DB0140E050E0AC1749
:1048E000BD0708F1BB83AA83FE0121913191E20F3C
:1048F000F31FAE17BF0779F48D919C911197280F84
:10490000391F2E5F3F4F3983288312968D919C91DA
:1049100013979B838A834115510571F4D0938807BF
:10492000C09387074DC012968D919C911397AD014E
:10493000009711F0DC01D3CFDA011396DC93CE930C
:104940001297FA0121913191E20FF31FCE17DF0781
:1049500069F488819981280F391F2E5F3F4FFA0132
:10496000318320838A819B8193838283E0E0F0E01E
:10497000DB0112968D919C911397009719F0BC0161
:10498000FD01F6CFAB014E5F5F4FDB018D919C9136
:10499000840F951F209185073091860728173907C6
:1049A00079F4309729F4109288071092870702C093
:1049B00013821282425050405093860740938507DD
:1049C000DF91CF9108951F920F920FB60F9211248D
:1049D0002F933F938F939F93AF93BF9380918007C3
:1049E00090918107A0918207B0918307309184074D
:1049F0000196A11DB11D232F2D5F2D3720F02D57BE
:104A00000196A11DB11D2093840780938007909388
:104A10008107A0938207B093830780917C079091D0
:104A20007D07A0917E07B0917F070196A11DB11D62
:104A300080937C0790937D07A0937E07B0937F07B8
:104A4000BF91AF919F918F913F912F910F900FBE8A
:104A50000F901F9018958FB7F89420918007309190
:104A6000810740918207509183078FBFB901CA0126
:104A700008959FB7F89420917C0730917D0740916D
:104A80007E0750917F0786B5A89B06C08F3F21F017
:104A90002F5F3F4F4F4F5F4F9FBF542F432F322FFA
:104AA0002227280F311D411D511D82E0220F331F87
:104AB000441F551F8A95D1F7B901CA0108959B017A
:104AC000AC017FB7F89480917C0790917D07A0910D
:104AD0007E07B0917F0766B5A89B05C06F3F19F0B0
:104AE0000196A11DB11D7FBFBA2FA92F982F88272E
:104AF000860F911DA11DB11D62E0880F991FAA1F8D
:104B0000BB1F6A95D1F7BC012DC0FFB7F894809107
:104B10007C0790917D07A0917E07B0917F07E6B555
:104B2000A89B05C0EF3F19F00196A11DB11DFFBF65
:104B3000BA2FA92F982F88278E0F911DA11DB11D67
:104B4000E2E0880F991FAA1FBB1FEA95D1F7861BC9
:104B5000970B885E9340C8F221503040404050404F
:104B600068517C4F211531054105510571F60895B5
:104B7000789484B5826084BD84B5816084BD85B538
:104B8000826085BD85B5816085BDEEE6F0E08081FF
:104B900081608083E1E8F0E0108280818260808320
:104BA000808181608083E0E8F0E0808181608083A3
:104BB000E1EBF0E0808184608083E0EBF0E08081D5
:104BC00081608083EAE7F0E0808184608083808177
:104BD000826080838081816080838081806880831F
:104BE0001092C1000895982F8E3008F09E50977053
:104BF0008091C8028295880F880F807C892B8093D2
:104C00007C0080917A00806480937A0080917A00A1
:104C100086FDFCCF2091780040917900942F80E0B0
:104C200030E0282B392BC90108951F93CF93DF93D0
:104C3000182FEB0161E00E947526209709F44AC005
:104C4000CF3FD10509F449C0E12FF0E0EB5EF54F0D
:104C500084918330C1F0843028F4813051F0823067
:104C6000B1F50CC0863019F1873049F1843079F5FF
:104C700014C084B5806884BDC7BD33C084B580626C
:104C800084BDC8BD2EC08091800080688093800064
:104C9000D0938900C093880024C0809180008062F6
:104CA00080938000D0938B00C0938A001AC08091BB
:104CB000B00080688093B000C093B30012C08091B0
:104CC000B00080628093B000C093B4000AC0C038C6
:104CD000D1051CF4812F60E002C0812F61E00E94A9
:104CE000B426DF91CF911F910895CF93DF93482F82
:104CF00050E0CA018F5F954FFC0134914351564FEC
:104D0000FA018491882369F190E0880F991FFC01D2
:104D1000E153F64FA591B491FC01E752F64FC591CE
:104D2000D491662351F42FB7F8948C91932F9095DA
:104D300089238C93888189230BC0623061F42FB75B
:104D4000F8948C91932F909589238C938881832B51
:104D500088832FBF06C09FB7F8948C91832B8C93C8
:104D60009FBFDF91CF910895482F50E0CA018B5E1D
:104D7000954FFC012491CA018F5F954FFC019491DE
:104D80004351564FFA013491332309F440C0222392
:104D900051F1233071F0243028F42130A1F0223079
:104DA00011F514C02630B1F02730C1F02430D9F409
:104DB00004C0809180008F7703C0809180008F7D38
:104DC0008093800010C084B58F7702C084B58F7D3A
:104DD00084BD09C08091B0008F7703C08091B0007E
:104DE0008F7D8093B000E32FF0E0EE0FFF1FE752BE
:104DF000F64FA591B4912FB7F894662321F48C91C6
:104E00009095892302C08C91892B8C932FBF089594
:104E1000682F70E0CB018B5E954FFC012491CB0194
:104E20008F5F954FFC0144916351764FFB01949144
:104E3000992319F420E030E03CC0222351F12330C3
:104E400071F0243028F42130A1F0223011F514C083
:104E50002630B1F02730C1F02430D9F404C080915D
:104E600080008F7703C0809180008F7D80938000C9
:104E700010C084B58F7702C084B58F7D84BD09C012
:104E80008091B0008F7703C08091B0008F7D8093B8
:104E9000B000892F90E0880F991F8D51964FFC012B
:104EA000A591B4918C9120E030E0842311F021E0B1
:104EB00030E0C9010895CF93DF930E94B8250E9486
:104EC0009812C0E0D0E00E9408122097E1F30E94FF
:104ED0000000F9CFCF92DF92EF92FF920F931F93D2
:104EE000CF93DF937C016B018A01C0E0D0E00FC05B
:104EF000D6016D916D01D701ED91FC910190F0818A
:104F0000E02DC7010995C80FD91F015010400115A8
:104F1000110571F7CE01DF91CF911F910F91FF9095
:104F2000EF90DF90CF900895EF92FF920F931F9331
:104F3000CF93DF937C018B01C0E0D0E0F8010F5FDD
:104F40001F4F6491662359F0D701ED91FC910190B8
:104F5000F081E02DC7010995C80FD91FEFCFCE0111
:104F6000DF91CF911F910F91FF90EF900895DC0199
:104F7000ED91FC910190F081E02D09950895EF925B
:104F8000FF920F931F938C01DC01ED91FC91019036
:104F9000F081E02D6DE009957C01D801ED91FC9147
:104FA0000190F081E02DC8016AE009959C012E0D69
:104FB0003F1DC9011F910F91FF90EF900895EF924F
:104FC000FF920F931F937C010E9494278C01C701CD
:104FD0000E94BF279C01200F311FC9011F910F9113
:104FE000FF90EF900895CF93DF93EC016115710569
:104FF00019F420E030E00FC0DB010D900020E9F74C
:105000001197A61BB70BE881F9810280F381E02D8F
:10501000AD0109959C01C901DF91CF9108954F928F
:105020005F927F928F929F92AF92BF92CF92DF92C8
:10503000EF92FF920F931F93DF93CF93CDB7DEB71D
:10504000A1970FB6F894DEBF0FBECDBF2C01742E12
:10505000CB01223008F42AE019A231E2C32ED12C70
:10506000CC0EDD1E822E9924AA24BB24672D752F19
:10507000A50194010E94E32C79018A01C801B701BE
:10508000A50194010E94912C472D461B0894C1084C
:10509000D1084A3014F4405D01C0495CF6014083F8
:1050A000E114F1040105110521F07E2C5F2DC801EA
:1050B000DDCFC201B6010E94F327A1960FB6F89486
:1050C000DEBF0FBECDBFCF91DF911F910F91FF903B
:1050D000EF90DF90CF90BF90AF909F908F907F9098
:1050E0005F904F900895CF92DF92EF92FF920F93CF
:1050F0001F93CF93DF93EC016A017B0121153105EA
:1051000041F4E881F9810190F081E02D642F099547
:105110001FC02A303105D1F477FF17C0E881F9812B
:105120000190F081E02D6DE209958C01442755270F
:10513000BA014C195D096E097F09CE012AE00E946F
:105140000F289801280F391F04C02AE00E940F2859
:105150009C01C901DF91CF911F910F91FF90EF90BA
:10516000DF90CF900895EF92FF920F931F937B01F2
:105170009A010027F7FC0095102FB801A7010E94A3
:1051800073281F910F91FF90EF9008950E94F327CD
:1051900008952F923F924F925F926F927F928F92DB
:1051A0009F92AF92BF92CF92DF92EF92FF920F93B6
:1051B0001F93DF93CF93CDB7DEB73B014C011901AD
:1051C0002A016D897E898F89988D6A197B098C09DE
:1051D0009D09621A730A840A950AA40193010E9428
:1051E000912CE218F30804091509A80197010E94FF
:1051F000052D2A0D3B1D4C1D5D1DB901CA01CF9126
:10520000DF911F910F91FF90EF90DF90CF90BF90B3
:10521000AF909F908F907F906F905F904F903F9056
:105220002F900895EF92FF920F931F937B018C01B3
:10523000611571058105910529F420E030E040E019
:1052400050E00BC00E949405A80197010E94052D13
:10525000AC01CB01DA019C01AD01B901CA011F917A
:105260000F91FF90EF900895009729F0BC0180E026
:1052700090E00E9499050895DC01FB0114968D9140
:105280009C911597892B31F461157105A9F090E077
:10529000808108C00D90BC91A02D6115710529F485
:1052A00090E08C91882349F407C0CD010E94AB05A2
:1052B0009C0190E0232B09F491E0892F08950F932E
:1052C0001F93CF93DF93EC018B016F5F7F4F88813A
:1052D00099810E94012A009711F480E005C099830A
:1052E00088831B830A8381E0DF91CF911F910F9107
:1052F0000895CF93DF93EC0188819981892B29F060
:105300008A819B818617970760F4CE010E945F29EE
:10531000882341F08C819D81892B19F4E881F981E2
:10532000108281E0DF91CF910895CF93DF93EC015C
:1053300088819981009711F00E944B24198218826C
:105340001D821C821B821A82DF91CF910895EF92F9
:10535000FF920F931F93CF93DF93EC017B018A01A0
:10536000BA010E947929882321F4CE010E9495294F
:1053700007C01D830C8388819981B7010E94B40501
:10538000CE01DF91CF911F910F91FF90EF90089583
:10539000CF93DF93EC01198218821B821A821D823F
:1053A0001C821E826115710551F0DB010D900020F9
:1053B000E9F71197A61BB70BAD010E94A729DF9152
:1053C000CF9108950F931F93182F092F6115710521
:1053D00059F0DB010D900020E9F71197A61BB70BE0
:1053E000AD010E94A72902C00E949529812F902F0C
:1053F0001F910F910895FC01808191810E944B249F
:1054000008956F927F928F929F92AF92BF92CF92A8
:10541000DF92EF92FF920F931F93CF93DF938C0154
:10542000009729F4CB010E94AE238C01BBC08EEF04
:10543000E82E8FEFF82EE00EF11E4801860E971E23
:105440008E149F0408F4ACC0D7014D915C91119764
:1054500046175707B8F04530510508F4A3C0CA01F4
:1054600004978617970708F49DC042505040461B8A
:10547000570BF401419351936D937C93CF010E949C
:105480004B2490C05B01A41AB50A3801640E751E46
:10549000A0918707B0918807CC24DD24E0E0F0E0FC
:1054A00047C0A615B705A9F5CD91DC911197CE019E
:1054B00002968A159B0568F1CE018A199B0902960E
:1054C00012962C91129713963C91059758F0F4017F
:1054D00022833383CA19DB09D183C083D7016D933B
:1054E0007C9309C04E5F5F4F4C0F5D1FF7015183E6
:1054F0004083C901FC01C114D10431F0D6011396D7
:10550000FC93EE9312974EC0F0938807E0938707C1
:1055100049C08D919C911197E817F90708F4FC0197
:105520006D0112968C91129713969C919C01D90152
:10553000109709F0B6CF8091850790918607861560
:105540009705E9F4E617F707D0F42091C6023091E9
:10555000C7022115310541F42DB73EB78091C20233
:105560009091C302281B390B82169306C8F49092BF
:10557000860780928507F7017183608313C0CB0192
:105580000E94AE23EC01009759F0D7014D915C9138
:10559000B8010E94A205C8010E944B248E0102C0DE
:1055A00000E010E0C801DF91CF911F910F91FF90B3
:1055B000EF90DF90CF90BF90AF909F908F907F90B3
:1055C0006F90089571D008F481E0089504D0689434
:1055D000B111D9C00895BCD088F09F5790F0B92F71
:1055E0009927B751A0F0D1F0660F771F881F991F38
:1055F0001AF0BA95C9F712C0B13081F0C3D0B1E04A
:105600000895C0C0672F782F8827B85F39F0B93F59
:10561000CCF3869577956795B395D9F73EF4909539
:105620008095709561957F4F8F4F9F4F0895E894B7
:1056300009C097FB3EF490958095709561957F4FDA
:105640008F4F9F4F9923A9F0F92F96E9BB27939588
:10565000F695879577956795B795F111F8CFFAF498
:10566000BB0F11F460FF1BC06F5F7F4F8F4F9F4FC9
:1056700016C0882311F096E911C0772321F09EE827
:10568000872F762F05C0662371F096E8862F70E08D
:1056900060E02AF09A95660F771F881FDAF7880F67
:1056A0009695879597F90895990F0008550FAA0BBD
:1056B000E0E8FEEF16161706E807F907C0F0121625
:1056C0001306E407F50798F0621B730B840B950B28
:1056D00039F40A2661F0232B242B252B21F408957D
:1056E0000A2609F4A140A6958FEF811D811D08951A
:1056F00097F99F6780E870E060E008959FEF80EC85
:10570000089500240A941616170618060906089527
:1057100000240A9412161306140605060895092E8D
:105720000394000C11F4882352F0BB0F40F4BF2BFC
:1057300011F460FF04C06F5F7F4F8F4F9F4F08953C
:1057400057FD9058440F551F59F05F3F71F0479532
:10575000880F97FB991F61F09F3F79F08795089517
:10576000121613061406551FF2CF4695F1DF08C036
:10577000161617061806991FF1CF86957105610553
:1057800008940895E894BB2766277727CB0197F9FB
:1057900008950BD0C4CFB5DF28F0BADF18F09523F9
:1057A00009F0A6CFABCF1124EECFCADFA0F3959FAF
:1057B000D1F3950F50E0551F629FF001729FBB27F8
:1057C000F00DB11D639FAA27F00DB11DAA1F649FA4
:1057D0006627B00DA11D661F829F2227B00DA11D57
:1057E000621F739FB00DA11D621F839FA00D611DDD
:1057F000221F749F3327A00D611D231F849F600DFE
:10580000211D822F762F6A2F11249F5750408AF036
:10581000E1F088234AF0EE0FFF1FBB1F661F771FC2
:10582000881F91505040A9F79E3F510570F060CFFE
:10583000AACF5F3FECF3983EDCF3869577956795AA
:10584000B795F795E7959F5FC1F7FE2B880F911DE0
:105850009695879597F9089511F40EF44FCF4AC0A5
:1058600077DFD0F39923D9F3CEF39F57550B87FFFA
:1058700051D056959795B0E020F4660F771F881F9A
:10588000BB1F1F930F9300249001A0018001F00122
:10589000A0E80E0F1F1F0A1E511D601B710B80090F
:1058A000B50B48F4600F711F801DB51F0E1B1F0B39
:1058B0000A0A510907C02E0F3F1F4A1F0E0F1F1F54
:1058C0000A1E511D660F771F881FBB1FA695F795EF
:1058D000E795F8F60617170708065B07211D311D27
:1058E000411D0F911F91B901842F9158880F9695F2
:1058F000879508959F3F49F0915028F486957795B4
:105900006795B7959F5F80389F4F880F96958795CD
:1059100097F9089591505040660F771F881FD2F76E
:105920000895629FD001739FF001829FE00DF11DE9
:10593000649FE00DF11D929FF00D839FF00D749F09
:10594000F00D659FF00D9927729FB00DE11DF91FB5
:10595000639FB00DE11DF91FBD01CF011124089512
:10596000991B79E004C0991F961708F0961B881FB1
:105970007A95C9F780950895AA1BBB1B51E107C012
:10598000AA1FBB1FA617B70710F0A61BB70B881FCF
:10599000991F5A95A9F780959095BC01CD0108955E
:1059A00097FB092E07260AD077FD04D0E5DF06D045
:1059B00000201AF4709561957F4F0895F6F7909541
:1059C00081959F4F0895A1E21A2EAA1BBB1BFD01D2
:1059D0000DC0AA1FBB1FEE1FFF1FA217B307E407CE
:1059E000F50720F0A21BB30BE40BF50B661F771F26
:1059F000881F991F1A9469F7609570958095909506
:105A00009B01AC01BD01CF01089597FB092E05262E
:105A10000ED057FD04D0D7DF0AD0001C38F45095C3
:105A20004095309521953F4F4F4F5F4F0895F6F7C2
:105A300090958095709561957F4F8F4F9F4F0895FA
:105A4000EE0FFF1F0590F491E02D09942F923F92E5
:105A50004F925F926F927F928F929F92AF92BF927E
:105A6000CF92DF92EF92FF920F931F93CF93DF932A
:105A7000CDB7DEB7CA1BDB0B0FB6F894DEBF0FBE87
:105A8000CDBF09942A88398848885F846E847D84D4
:105A90008C849B84AA84B984C884DF80EE80FD80D6
:105AA0000C811B81AA81B981CE0FD11D0FB6F8944C
:105AB000DEBF0FBECDBFED0108951AE0CCE2DAE003
:105AC00004C0FE010E94222D2296CE32D107C9F7D2
:045AD000F894FFCF78
:105AD400006E65776C6576656C006368617365005C
