:100000000C94A7020C94CF020C94CF020C94CF0254
:100010000C94CF020C94CF020C94CF020C94CF021C
:100020000C94CF020C94CF020C94CF020C94421D7E
:100030000C94CF020C94CF020C94CF020C94CF02FC
:100040000C941A1F0C94CF020C94CF020C94CF0284
:100050000C94CF020C94CF020C94CF020C94CF02DC
:100060000C94CF020C94CF02401AFFFFFFFFFFFF5A
:10007000FFFF00000000000000003B9DDC71F1FB71
:10008000E1F03B9DDCF9F9FBF3F83B9DDCF9F9FB72
:10009000FBF83BDDDDFDFDC3BBB83BDDDDFDDDC3B6
:1000A000BBB83BDDDDDDDDC3BB803BFDDDDDDDF36E
:1000B000BBC03BFDDDDDDDF3F1E03BFDDDFDDDF350
:1000C000E0F03BFDDDFDDDC3F0783BBDDDFDDDC3D4
:1000D000B8383BBDDDDDDDC3BBB83BBDFDDDDDC3F9
:1000E000BBB83B9CF9DDF9FBBBF83B9C71DDF9FB30
:1000F000BBF83B9C21DDF1FBB9F0000000000000E3
:100100000000FFFFFFFFFFFFFFFF000000000000F7
:100110000000A6C66AECE66E66CEAAAA8A4A8AAA39
:100120008AA8AAAEEA4ACAEC8EAC4AAA2A4A8AAA85
:100130008AA84ECAE4ECEEAAEACE070538D6FE2815
:10014000C6070538D6FE4428070510BAD67C28070E
:10015000053854FE9228070538547C442807053892
:10016000547C285407055482548254070554825401
:1001700082540704107CFEFE07048A4004920704A0
:100180009204408A08057EFFFFE7C308057EDBFF77
:10019000A5C308056EDB76A5C3080566D956A5423A
:1001A0000805228952A54202048040804002044092
:1001B0008040800B041F006AC0FFE064C00B045D38
:1001C000C0554055405DC0596F64612773002020C1
:1001D0002020596F646127730020202020596F640C
:1001E0006127730003053F213F0A100A1208120E0F
:1001F0001C0E0C1E0C141A14161F161E131E1E1B8A
:100200001E1E1F1E3F213F3A2F3A173D173F213F29
:10021000181F02040A041F0E04040E1F0A1F0A0EF0
:100220000E1F04110E2E252E2F2A2E262929021FDD
:1002300002081F08150E04040E150E15151B151BBC
:10024000040604040C040000000017000300031F50
:100250000A1F16371A1904130A153A000300000E74
:1002600011110E000A040A040E04003000040404F4
:100270000010001804031F111F121F101D15171165
:10028000151F07041F17151D1F151D01011F1F1521
:100290001F17151F000A00003200040A110A0A0A7B
:1002A000110A040115020E11171E051E1F150A0E54
:1002B000110A1F110E1F15111F05010E111D1F041C
:1002C0001F111F1108100F1F041B1F10101F061FE6
:1002D0001E040F0E110E1F09060E112E1F051A12F5
:1002E0001509011F011F101F0F180F1F0C1F1B04E2
:1002F0001B031C03191513001F11030418111F0001
:100300000201022020200001020C121E1F120C0C00
:1003100012120C121F0C1A14041E05242A1E1F028E
:100320001C141D1020201D1F0814111F101E041E58
:100330001E021C0C120C3E0A040C123E1E04021477
:10034000160A020F120E101E0E100E1E081E120CA0
:100350001226281E322A26041E21001F00211E04F8
:100360000102013F213F0A4E6F2053442063617216
:1003700064206F720A6E6F204C4F414445522E48E4
:1003800045580A0A153A45786974001D20466C6183
:100390007368696E670A20206C6F616465722E2E27
:1003A0002E0A0A444F4E2754205455524E204F4691
:1003B0004621004E4F20424154544552590A0A509A
:1003C0004C454153450A5455524E204F464600175E
:1003D0007361766500166261636B001574797065F0
:1003E000000A0A0A153A6F6B617920163A6564694A
:1003F0007400596F7520656E74657265640A0054E7
:100400000A03E181867F3E186D830F0F0E018386FC
:100410006033186DC3198F1803C38E6033186DE3F2
:1004200030CF1803C39E603630CDE360CF3006C7AF
:100430009E7E3E30CDB360CF300CC6F6603330D9EF
:10044000B660CF33CFCCF66061B0DB1E60CF30D862
:100450006CE6C061B0DB1E618F19986CC6C063B1D9
:100460009B0E330F0FB078C6FF7E1F1B061E0F17A3
:1004700053440016137800161314001510200015AD
:100480002010000000050089300802380249786811
:1004900014000045006801000005006801380100F3
:1004A000000500380168010000F6E8DBCFC3B8AEF4
:1004B000A49B928A827B746E68625C57524E494557
:1004C000413E3A3734312E2C29272523211F1D1C6C
:1004D0001A1917161514131211100F0E0D0C0B0A02
:1004E00009080706E804EC040101F7030101FF0312
:1004F00000000000240027002A0000000000250062
:1005000028002B000000000023002600290004041E
:1005100004040404040402020202020203030303AB
:100520000303010204081020408001020408102087
:10053000010204081020000000070002010000036F
:100540000406000000000000000073036C03112487
:100550001FBECFEFD8E0DEBFCDBF12E0A0E0B1E01C
:10056000EEE1FEE402C005900D92AC30B107D9F780
:1005700017E0ACE0B2E001C01D92A433B107E1F78F
:1005800015E0CCE4D5E004C02297FE010E94C72606
:10059000CA34D107C9F70E9492210C9402270C9407
:1005A0000000A0E0B0E0E7EDF2E00C94D326EC010F
:1005B000A880B980CA80DB80A114B104C104D10431
:1005C00041F484E2A82E89EDB82E8BE5C82E87E091
:1005D000D82EC601B5012DE133EF41E050E00E9475
:1005E000AA2627EA31E440E050E00E9436267B014B
:1005F0008C01C601B5012DE133EF41E050E00E94CE
:10060000AA26CA01B9012CEE34EF4FEF5FEF0E942A
:1006100036266E0D7F1D801F911F97FF04C061500D
:10062000704080409048688379838A839B839B01D4
:10063000AC015F77B901CA01CDB7DEB7EAE00C942F
:10064000EF260E94D102089587E791E00E94D1022F
:100650000895609377017093780180937901909366
:100660007A010895FB01DC0102C001900D92415016
:100670005040D8F70895FB01DC018D91019080195D
:100680000110D9F3990B0895FB01DC0101900D9243
:100690000020E1F7089581309105A1F46F5F7F4F4D
:1006A000D1F41092CF021092CE0287E092E09093A4
:1006B000CD028093CC0284E093E060E071E00E9480
:1006C000FF230895892B39F46F5F7F4F21F484E075
:1006D00093E00E943224089580E090E06FEF7FEF76
:1006E0000E944B03089581E090E06FEF7FEF0E943E
:1006F0004B0308958F929F92AF92BF92CF92DF9259
:10070000EF92FF920F931F937C01162F51E3852EDA
:1007100052E0952E43E8A42E41E0B42E6C0134E063
:10072000CC0CDD1C3A95E1F7CA0CDB1CC40160E07F
:10073000F601448520E0012F0E949718C40161E072
:10074000F601408120E00E949718F601208521954E
:10075000C40162E042850E94971894E0EE0CFF1CF1
:100760009A95E1F7F60124812A53C40163E046819A
:100770000E949718AE0CBF1CC401F5016281F601FE
:100780004685212F0E94FC181F910F91FF90EF903A
:10079000DF90CF90BF90AF909F908F900895809101
:1007A000110590911205892B09F079C020910F0550
:1007B0003091100580910D0590910E05280F391F7D
:1007C00030930E0520930D05C901019788349105DA
:1007D00030F08FEF9FEF9093120580931105C901C0
:1007E00065E070E00E947526892B31F483E090E08B
:1007F00060E070E00E947A0320910D0530910E05B3
:10080000309300052093FF04A901465F5F4F50938A
:10081000020540930105109204051092030583E040
:1008200090E090930605809305058091FB049091DC
:10083000FC04821793079CF14817590784F18091B3
:10084000FD049091FE042FEF8E3F920744F1049730
:1008500034F580910B0390910C038C599F4F90932A
:100860000C0380930B0381E090E09093120580933A
:1008700011058FEF9FEF9093FC048093FB049093FE
:10088000FE048093FD048EE190E090931605809322
:10089000150581E090E060E070E00E947A03089521
:1008A00080911105909112052FEF8F3F920759F11A
:1008B0009C0173E0220F331F7A95E1F7880F991F8F
:1008C000280F391F2D543E4F8CEC92E060910D059E
:1008D00040E00E942B118091110590911205019723
:1008E00091F4809115059091160501979093160546
:1008F000809315051816190634F08FEF9FEF90932B
:100900001205809311050895AF92BF92CF92DF92A6
:10091000EF92FF920F931F93CF93DF9303EF14E0B7
:10092000CBE0D0E0A7E2AA2EB12CFBE2CF2ED12C57
:10093000EE24EA94FE2CD0930005C093FF04AE0190
:10094000495F5F4F5093020540930105B092040543
:10095000A0920305D0920605C0920505F80180819A
:100960009181FFEF8F3F9F0721F12091FB04309190
:10097000FC042C173D07ECF042175307D4F02091EC
:10098000FD043091FE04253231059CF02C323105F6
:1009900084F40196F80191838083F092FC04E09244
:1009A000FB04F092FE04E092FD04059714F0F1823E
:1009B000E082F80180819181FFEF8F3F9F0781F0F6
:1009C0009C01E3E0220F331FEA95E1F7281B390B66
:1009D0002C573E4F8CEC92E06C2F47E20E942B117B
:1009E00062960E5F1F4FC335D10509F0A4CFDF918A
:1009F000CF911F910F91FF90EF90DF90CF90BF901C
:100A0000AF9008954F925F926F927F928F929F92D4
:100A1000AF92BF92CF92DF92EF92FF920F931F930C
:100A2000CF93DF938091F1049091F204019790931A
:100A3000F2048093F1048091ED049091EE0401960C
:100A400062E070E00E9475269093EE048093ED04BE
:100A50000DED14E0C5EED4E0CC24CA94DC2CECE21D
:100A60006E2E712C7FE2872E912C6CE3A62EB12C7A
:100A7000D8016D917C91BFEF6F3F7B0709F4E9C00E
:100A8000488159814F5F5F4F598348838091ED04BE
:100A90009091EE049C01220F331F280F391F220F63
:100AA000331F29553E4F8CEC92E00E942B11609130
:100AB000EF047091F004E3EFF4E04BE050E0B7E0B6
:100AC0004B2E512C440E551EE080F1808FEFE8161E
:100AD0008FEFF80609F1D8012D913C91C9010196DB
:100AE00084179507CCF042165306B4F0888199819B
:100AF000843291058CF08C977CF4C7010196918328
:100B00008083059714F0D182C082D801CD92DC9207
:100B1000D982C8826150704032964E5E5F4FB4E019
:100B2000EB3FFB0761F67093F0046093EF042091B4
:100B3000130330911403309300052093FF04B9018F
:100B40006A5F7F4F70930205609301057092040500
:100B500060920305909206058092050580910B0531
:100B600090910C058F5F9F4FE1F4D8014D915C91FE
:100B7000CA01019682179307A4F0641775078CF0D9
:100B8000888199818932910564F0C09754F4B092BC
:100B90000C05A0920B0582E090E062E070E00E94FC
:100BA0007A03F80180819181909300058093FF047E
:100BB000BC016F5F7F4F7093020560930105488110
:100BC00059815093040540930305FA013396F0933D
:100BD0000605E09305052091FB043091FC042817DD
:100BE00039072CF16217730714F12091FD0430913D
:100BF000FE04C901029684179507CCF0E217F307AB
:100C0000B4F0D092FC04C092FB04D092FE04C092D7
:100C1000FD04D801CD92DC92D982C8828091EF0484
:100C20009091F00401979093F0048093EF048881F1
:100C30009981C09774F0F801D182C082D982C882AC
:100C40008091EF049091F00401979093F0048093C9
:100C5000EF040E5F1F4F2296F4E0053E1F0709F0D8
:100C600007CFDF91CF911F910F91FF90EF90DF9011
:100C7000CF90BF90AF909F908F907F906F905F903C
:100C80004F9008958F929F92AF92BF92CF92DF9232
:100C9000EF92FF920F931F93CF93DF9381E090E049
:100CA00090930A0580930905C1EFD3E025E1E22E78
:100CB00023E0F22E03E813E09FE5C92E94E0D92E3D
:100CC00086E0882E912CAA24AA94BA2C28813981F6
:100CD0008FEF2F3F380701F1F60180819181820F5C
:100CE000931F9C01B3E0220F331FBA95E1F7281B35
:100CF000390B265C3E4F8CEC92E0F7016081F801E5
:100D000040810E942B11F80180819181059724F484
:100D100010920A0510920905F70180819181909344
:100D200000058093FF0406969093020580930105C9
:100D30000697F80160817181709304056093030543
:100D4000FB013496F0930605E0930505488159812F
:100D50004430510559F40196909300058093FF04A7
:100D60000496909302058093010509C08FEF4F3FD1
:100D7000580709F448C04630510509F444C0209191
:100D8000FB043091FC048091FF049091000528172A
:100D90003907CCF1809101059091020582179307E4
:100DA00094F12091FD043091FE04C901029686174A
:100DB00097074CF1E217F30734F120910B033091C0
:100DC0000C03265F3F4FCA01A3E0880F991FAA9525
:100DD000E1F7440F551F840F951F280F391F3093DB
:100DE0000C0320930B0399828882B092FC04A0929A
:100DF000FB04B092FE04A092FD0481E090E060E06C
:100E000070E00E947A032296E2E0F0E0EE0EFF1E10
:100E10000E5F1F4FCE0EDF1EF4E0C134DF0709F076
:100E200055CFDF91CF911F910F91FF90EF90DF9001
:100E3000CF90BF90AF909F908F90089580910905BB
:100E400090910A05019709F056C080911105909183
:100E500012058F5F9F4F09F04EC080910F03909154
:100E60001003029744F08CEC92E060E040E022E74F
:100E700031E00E942B1180910F0390911003039792
:100E800044F08CEC92E069E040E022E731E00E941F
:100E90002B1160910B0370910C036A30710514F4EF
:100EA0008AE201C088E26436710514F420E001C0D2
:100EB00022E093E0683E790714F490E001C092E0EC
:100EC000821B891B8093D5021092D6028CEC92E093
:100ED0004AE050E00E94EA2288E48093D5026091C3
:100EE0001103709112036F5F7F4F8CEC92E04AE028
:100EF00050E00E94EA2208950F931F93CF93DF934F
:100F00008091CD049091CE04181619060CF04DC1B5
:100F10001092D4041092D304C1E0D0E08091CF04A9
:100F20009091D00401969093D0048093CF04889739
:100F3000D4F01092D0041092CF04D093D404C09374
:100F4000D3048091D1049091D204019664E070E0C2
:100F50000E9475269093D2048093D104049661E098
:100F600070E00E947A032091CF043091D004F901FF
:100F7000EE0FFF1FEF50FC4F808191818F5F9F4FDD
:100F800069F28091D3049091D404019709F580917E
:100F9000D7049091D804892B59F01092DA0410925A
:100FA000D90482E090E09093DC048093DB040CC0D1
:100FB0008091D5049091D6049093DA048093D9045B
:100FC0001092DC041092DB041092D4041092D3042B
:100FD000F901EE0FFF1FDF01AB5EBC4F8D919C91BD
:100FE00011972091D9043091DA04820F931F8D93C9
:100FF0009C93ED57FC4F208131818091DB049091CF
:10100000DC04280F391F3183208323323105DCF0C3
:101010008FEF9FEF9093F4048093F3049093F60482
:101020008093F5049093F8048093F7049093FA0466
:101030008093F9042932310534F084E093E061E0D3
:1010400071E00E941924C091CF04D091D004FE0118
:10105000EE0FFF1FEB5EFC4F008111810C34110578
:1010600084F08091D9049091DA0418161906E4F4FA
:101070008EEF9FEF9093D6048093D50482E090E0AA
:101080000FC00230110584F48091D9049091DA04E4
:1010900097FF0AC082E090E09093D6048093D50435
:1010A0009093D8048093D7048091DB049091DC0462
:1010B000892B21F01092D8041092D7049E01220FA0
:1010C000331FF901E15AFB4F80819181019662E063
:1010D00070E00E94752691838083F901EF50FC4FE8
:1010E00080819181069769F48FEF9FEF91838083D0
:1010F0008091CD049091CE0401979093CE0480937B
:10110000CD048091F1049091F204181619060CF4A4
:101110004CC060911103709112034091EF04509103
:10112000F004641775070CF440C044305105ECF529
:10113000CC0FDD1FCD57DC4F288139812832310596
:10114000A4F586EF9FEFFC016E9FC0016F9F900D8D
:101150007E9F900D112488969093F2048093F10461
:101160004F5F5F4F5093F0044093EF04ADEDB4E058
:10117000E5EEF4E040E050E0B8016F5F7F4F4115CD
:10118000510569F48D919C9111978F5F9F4F39F4B0
:1011900011967C936E933183208341E050E0129648
:1011A000329684E0A53EB80751F7DF91CF911F91A9
:1011B0000F91089580910B0590910C0501979093E4
:1011C0000C0580930B05892BD9F48FEF9FEF90933B
:1011D0000C0580930B0580910F03909110030197EC
:1011E0009093100380930F03109214031092130333
:1011F000892B31F484E093E061E071E00E941924CE
:10120000089580910B0590910C058F5F9F4F51F4CD
:101210008CEC92E0609113034CE222E731E00E94F3
:101220002B1108958091ED049091EE0401969C019C
:10123000220F331F280F391F220F331F2E583E4F06
:101240008CEC92E0609113034CE20E942B110E94FF
:10125000DA0808958091CD049091CE04892BD9F4B9
:101260008091070590910805019690930805809359
:1012700007058A3591057CF0809111039091120346
:101280000196909312038093110384E093E06AE047
:1012900071E00E94192408952F923F924F925F921D
:1012A0006F927F928F929F92AF92BF92CF92DF9276
:1012B000EF92FF920F931F93CF93DF9388E290E01A
:1012C0009093CE048093CD0487E290E09093D00475
:1012D0008093CF0482E090E09093DA048093D90465
:1012E0001092DC041092DB041092D4041092D30408
:1012F0009093D6048093D5041092D8041092D7040A
:1013000010920805109207058CE390E09093F20488
:101310008093F10480EF90E090931405809313057F
:10132000E0901103F090120329E0E216F1041CF0A2
:1013300000E110E003C08701000F111FA5E1B3E039
:1013400043E853E021EF33E0CFE5D4E060E070E024
:101350008AE090E0F6E06F2E712C600E711EECE0DA
:101360008E2E912C800E911EF2E1AF2EB12CA00E8C
:10137000B11EE8E1CE2ED12CC00ED11EF4E02F2EEE
:10138000312CE2E04E2E512CFB01EB5EFC4F8083B2
:10139000918350968C93509751969C935197909629
:1013A0008C93909791969C939197D0968C93D0978D
:1013B000D1969C93D197FD01E05CFF4F8083918390
:1013C000FB01ED57FC4F11830083FA01718A608A9B
:1013D00091A280A2B1AAA0AA405C5F4FFA01D1827B
:1013E000C082FB01EF50FC4F31822082F901518A0B
:1013F000408A51A240A211AA10AA205C3F4FF901D5
:1014000011821082FB01E15AFB4F11821082198A6E
:10141000188A19A218A219AA18AAC05CDF4F19824B
:1014200018826E5F7F4F089612964E5350402E538F
:101430003040EE976031710509F0A6CFE3EFF4E09C
:101440008FEF9FEF1182108226E0E216F10414F074
:1014500091838083329624E0EB3FF20799F784E092
:1014600093E063E171E00E941924DF91CF911F9115
:101470000F91FF90EF90DF90CF90BF90AF909F9033
:101480008F907F906F905F904F903F902F90089536
:1014900010920C0310920B0383E090E090931003E2
:1014A00080930F03109212031092110388E290E0D0
:1014B00090931403809313038FEF9FEF9093FC049A
:1014C0008093FB049093FE048093FD0490930C059D
:1014D00080930B05909312058093110580E090E0B6
:1014E0002FEF3FEFFC01E352FB4F31832083FC01E0
:1014F000EB51FB4F3183208302968830910591F7A1
:1015000084E093E06AE071E00E941924089520913C
:101510000B0330910C0380910D0390910E03821701
:10152000930724F430930E0320930D031092D502F9
:101530001092D6028CEC92E06BE171E00E94FD22E9
:1015400060910B0370910C036A30710514F48EE006
:1015500001C08CE06436710514F420E001C022E083
:1015600093E0683E790714F490E001C092E0821B9A
:10157000891B8093D50286E08093D6028CEC92E0A2
:101580004AE050E00E94EA2260910D0370910E0340
:101590006A30710514F482E401C080E46436710598
:1015A00014F420E001C022E093E0683E790714F4CF
:1015B00090E001C092E0821B891B8093D50286E0F7
:1015C0008093D6028CEC92E04AE050E00E94EA223E
:1015D0008CEC92E06AE04DE028E630E00E942B11AE
:1015E0001092D5028AE28093D6028CEC92E06FE2F0
:1015F00071E00E94FD2286E192E064E00E94EC0D21
:10160000882351F084E093E064E471E00E9419249F
:1016100081E392E00E94661D86E192E066E00E940E
:10162000EC0D882341F08CE092E067EC71E048E635
:1016300050E00E94BB1608950F938CEC92E060E09E
:101640000E943C0E8CEC92E066E140E127E209E06A
:101650000E940E0F8CEC92E061E00E943C0E88E14B
:101660008093D50282E18093D6028CEC92E06CE408
:1016700071E00E94FD228CEC92E066E140E127E2FD
:101680000E94440F84E08093D5028AE28093D602C0
:101690008CEC92E066E571E00E94FD2286E192E02A
:1016A00065E00E94EC0D882351F084E093E06AE647
:1016B00071E00E94192481E392E00E94661D0F915F
:1016C00008950F931F93CF93DF938091130590910B
:1016D00014050197909314058093130518161906A5
:1016E000A4F180EF90E0909314058093130500918E
:1016F000090510910A050130110539F5C091110550
:10170000D09112058FEFCF3FD807F9F41092120550
:101710001092110562E070E080E090E00E944923A1
:10172000672B49F410920E0510920D0510931005C9
:1017300000930F050AC089E490E090930E05809312
:101740000D05D0931005C0930F05DF91CF911F9128
:101750000F9108950F932091FB043091FC048FEFBB
:101760002F3F380709F14091FD045091FE0442508B
:1017700050405093FE044093FD04042F0E5F8CEC08
:1017800092E0622F0E947D0E8091FD049091FE04F4
:1017900097FF0AC08FEF9FEF9093FC048093FB04A8
:1017A0009093FE048093FD040F91089586E192E0EA
:1017B00060E041E00E94F60D8823A1F02091130320
:1017C00030911403121613066CF480910B0590915E
:1017D0000C058F5F9F4F31F421503040309314033C
:1017E0002093130386E192E062E041E00E94F60D4F
:1017F0008823A1F020911303309114032E34310576
:101800006CF480910B0590910C058F5F9F4F31F424
:101810002F5F3F4F309314032093130386E192E030
:1018200066E00E94EC0D882371F08CE092E06EEC93
:1018300071E048E650E00E94BB1684E093E06AE65F
:1018400071E00E94192486E192E064E00E94EC0DB0
:10185000882319F18091FB049091FC048F5F9F4FC6
:10186000E1F480910B0590910C058F5F9F4FA9F4D7
:10187000809113039091140303969093FC0480933A
:10188000FB0489E290E09093FE048093FD0480E0E5
:1018900090E060E070E00E947A030895CF93DF93B8
:1018A0008CE092E00E940216882309F475C084E05F
:1018B00093E064E471E00E947323882311F00E9496
:1018C000480A84E093E06AE071E00E947323882371
:1018D00011F00E944C0984E093E063E171E00E9402
:1018E00073238823C1F00E94D60B0E9401090E9435
:1018F000AA0B0E947C070E9442060E9402050E94D9
:101900002A090E9484040E94610B0E94CF030E9456
:1019100050040E941E0784E093E06AE671E00E9492
:101920007323882311F00E94870A84E093E061E02A
:1019300071E00E947323882379F1C0E0D0E0FE01BA
:10194000EF50FC4F208131818FEF2F3F3807F1F0AE
:10195000DE01AB5EBC4FAE014D575C4FFE01E15A5C
:10196000FB4F80819181820F931F9C0163E0220FC6
:10197000331F6A95E1F7281B390B265C3E4F8CEC30
:1019800092E06C91FA0140810E942B112296C035A1
:10199000D105A9F60E941C0BDF91CF9108950F93FA
:1019A0001F930CE012E0C8010E941E18C8016EE1EE
:1019B0000E94EF13C80169ED71E048E650E00E9413
:1019C000BB16C8010E94B71584E093E06AE671E097
:1019D0000E941924109224021F910F9108958823C8
:1019E00019F48CB5806202C08CB58F7D8CBD0895D2
:1019F0009CB5937F982B9CBD08952CB5382F3370E0
:101A00002C7F322B3CBD2DB590E095958795959513
:101A1000879581702E7F822B8DBD08958AE061E0CD
:101A20000E94EB208AE061E00E94AC208CB58061CE
:101A30008CBD8CB580648CBD8DE061E00E94AC20D3
:101A40008BE061E00E94AC200895FC0181E080837E
:101A5000089585E070E00E944C2008956F927F9277
:101A60008F929F92AF92BF92CF92DF92EF92FF92AE
:101A70000F931F93CF93DF93EC0189819A818C019F
:101A800024E0000F111F2A95E1F7081B190B85E1CF
:101A90000E942A20BC01600F711F84E07695679533
:101AA0008A95E1F77A8369838881882381F12E8181
:101AB0003F816217730710F4B90106C088859985C4
:101AC0008617970708F4BC0100D000D080E090E0B2
:101AD00040E050E0E884F98400E010E0AD80BB24F1
:101AE000CC24DD246C80772488249924EDB7FEB7BC
:101AF00061827282838294820E9400236B830F90A2
:101B00000F900F900F9085E070E00E944C20DF91C5
:101B1000CF911F910F91FF90EF90DF90CF90BF90EA
:101B2000AF909F908F907F906F900895FC018CE311
:101B30009FE09383828384E0818381E0848708959A
:101B4000CF93DF93EC018C8590E08F719070892B9F
:101B500069F584E10E942A20AA2797FDA095BA2F53
:101B6000BC01CD010E94472526EE3FE34EEC50E438
:101B70000E94D3250E9419259B01AC017B836A83B7
:101B80006115710589F084E08983B901FE0120E0C7
:101B9000848195816817790710F429830AC02F5F23
:101BA00032962430A9F702C08FEF89838C858F5F2E
:101BB0008C87DF91CF910895FC0188E0808389E0D4
:101BC000818387E0828386E0838384E0848382E06C
:101BD000858381E18683089520E0FC01E60FF11DF5
:101BE0008781813009F421E0822F0895E62FF0E00B
:101BF000423040F420E0E80FF91F878181508E3F8A
:101C000088F40FC0E80FF91F87818F3F11F420E09F
:101C100009C020E090E0642F70E00E9461260197E7
:101C200009F421E0822F08950F931F93CF93DF9340
:101C3000EC0110E00FEF888162E00E94AC20888107
:101C40000E943F212F81892B19F42F5F2F8307C01A
:101C5000222349F02F3F11F41F8201C00F83888196
:101C600060E00E94AC201F5F2196173021F7DF91C2
:101C7000CF911F910F910895FC01678F60A3089584
:101C8000FC01678F40A30895FC016435A8F547FD6A
:101C900033C040338CF5878D942F95959595959508
:101CA000772767FD70954770882399F0E4E59E02D9
:101CB000F0011124E60FF71FE95EFA4F81E090E092
:101CC00002C0880F991F4A95E2F72081282B2083B4
:101CD0000895E4E59E02F0011124E60FF71FE95E86
:101CE000FA4F81E090E002C0880F991F4A95E2F711
:101CF00080952081282320830895AF92BF92CF92B0
:101D0000DF92EF92FF920F931F93CF93DF93EC013B
:101D1000162FF42EE22EAA24402F552747FD50956A
:101D20008F2D992787FD9095481B590B57FF03C0AE
:101D3000509541955F4F2E2D332727FD3095812FEC
:101D4000992787FD9095281B390B37FF03C03095E5
:101D500021953F4F2417350744F4AA24A3948F2DCF
:101D6000F12E182F802F0E2DE82EE11634F48E2D33
:101D7000E12E182F802F0F2DF82EDE2CD11A202FB8
:101D8000332727FD30958F2D992787FD9095281BA8
:101D9000390B37FF03C0309521953F4FB22EF01617
:101DA0001CF0CC24CA9402C0CC24C3948D2DD7FC43
:101DB0008F5F082F059511C0AA2021F0CE016F2D4D
:101DC000412F03C0CE01612F4F2D0E94440E0B19ED
:101DD00007FF02C0FC0C0D0D1F5FE1166CF7DF91D1
:101DE000CF911F910F91FF90EF90DF90CF90BF9018
:101DF000AF9008950F93042F322F262F2150230FD9
:101E00000E947D0E0F9108950F93362F042F0150DD
:101E1000020F232F0E947D0E0F9108959F92AF9283
:101E2000BF92CF92DF92EF92FF920F931F93CF93C7
:101E3000DF936C01B62E942EA02EC0E0D0E0E62EEB
:101E4000FF24E7FCF094022F112707FD10950E0DDB
:101E50001F1D06C0C601492D2A2D0E94040F219680
:101E60006B2D6C0FCE018E0D9F1D8017910794F383
:101E7000DF91CF911F910F91FF90EF90DF90CF9066
:101E8000BF90AF909F900895CF92DF92EF92FF9214
:101E90000F931F937C01162FD42EC22E0E94FA0E90
:101EA0004D2D4150400FC701612F2C2D0E94FA0E7D
:101EB000C701612F4D2D202F0E94040F11501C0DC2
:101EC000C701612F4D2D202F0E94040F1F910F91EC
:101ED000FF90EF90DF90CF9008952F923F925F9206
:101EE0006F927F928F929F92AF92BF92CF92DF922A
:101EF000EF92FF920F931F93DF93CF9300D000D008
:101F000000D0CDB7DEB79E838D83C62ED42EEE24AF
:101F1000E394E21A8EEF289F502C1124842E8A9489
:101F2000962E9A94A42EA394B62EB394F22E6624E1
:101F300023E0722E10E0C801847090709A83898328
:101F4000F801E270F070FC83EB8398E0292E312CCD
:101F5000202231220170107054C0E7FC04C0FA94B2
:101F6000F2E05F0EE50C639489819A81892B71F010
:101F70004F2D4D0D8D819E816B2D0E94440E6F2D36
:101F80006C0D8D819E814A2D0E94440EEB81FC8157
:101F9000EF2B71F04D2D4F198D819E816B2D0E947D
:101FA000440E6F2D6C0D8D819E81482D0E94440E34
:101FB0002114310471F06C2D6F198D819E814A2D91
:101FC0000E94440E4F2D4D0D8D819E81692D0E94E2
:101FD000440E0115110571F06C2D6F198D819E81D4
:101FE000482D0E94440E4D2D4F198D819E81692DE3
:101FF0000E94440EE70CF2E07F0E8A949A94A39418
:10200000B3946F140CF4A9CF26960FB6F894DEBFE4
:102010000FBECDBFCF91DF911F910F91FF90EF9039
:10202000DF90CF90BF90AF909F908F907F906F90F8
:102030005F903F902F9008954F925F926F927F92A2
:102040008F929F92AF92BF92CF92DF92EF92FF92C8
:102050000F931F93CF93DF93EC01A62E742E9E2D2A
:10206000FF24F394F21A8EEF289F802C1124B42EB3
:10207000BA9453E0C52ECE0CE22EDD2443E0942E1C
:1020800010E031E0432E512C40225122692E6394FE
:102090000270107034C0F7FC04C0EA9482E0880E2D
:1020A000F80CD3944114510489F06D2D6A0D472D1D
:1020B0004E192E2D220F260DCE010E94040F6E2DDB
:1020C0006A0DCE014B2D2C2D0E94040F0115110518
:1020D00089F06A2D6D19472D4E192E2D220F260DD0
:1020E000CE010E94040F6A2D6E19CE014B2D2C2DAE
:1020F0000E94040FF90C82E0980EBA94C80EDE1408
:1021000054F2DF91CF911F910F91FF90EF90DF90EC
:10211000CF90BF90AF909F908F907F906F905F9087
:102120004F9008957F928F929F92AF92BF92CF92DD
:10213000DF92EF92FF920F931F936C01962EA42EC5
:10214000F22E7E2C760E1EEFE19E102D1124812E94
:10215000820E672D282D0E94FA0EB02EBA0CBA946A
:10216000C601672D4B2D282D0E94FA0EAE0C100FC4
:10217000C601692D4A2D212F0E94040FF90CFA94F3
:10218000C6016F2D4A2D212F0E94040FC601672D15
:102190004A2D2E2D01E00E946D0FFE18C6016F2DF5
:1021A0004A2D2E2D02E00E946D0FBE18C6016F2D24
:1021B0004B2D2E2D04E00E946D0FC601672D4B2D77
:1021C0002E2D08E00E946D0F1F910F91FF90EF9050
:1021D000DF90CF90BF90AF909F908F907F900895A9
:1021E0008F929F92AF92BF92CF92DF92EF92FF9227
:1021F0000F931F936C01162FA42E922EF02EBE2C3F
:102200008E2C860E2EEFE29EE02C11242E2D290D11
:10221000682D0E940E0FAB0CFA94FE0C1150190D94
:102220001B19C601612F4A2D2B2D01E0EF2C0E94B6
:102230001C10C601682D4A2D2B2D02E00E941C1097
:102240001F910F91FF90EF90DF90CF90BF90AF90D4
:102250009F908F9008953F924F925F926F927F92DE
:102260008F929F92AF92BF92CF92DF92EF92FF92A6
:102270000F931F93CF93DF934C01362E442EF90119
:10228000A490319654906F010894C11CD11C8A2DE2
:10229000992787FD9095079668E070E00E94752663
:1022A000E62EFF24E7FCF09400E0C0E0D0E060E818
:1022B000662E712C26C0E12FE595E595E595FF2763
:1022C000E7FDF095EC0FFD1FEC0DFD1DE4912E2FA9
:1022D00030E0812F8770A30102C0559547958A95FC
:1022E000E2F724233523232B31F0612F630DC40142
:1022F0004B2D0E94440E1F5F1A15ECF20F5FCE0D9E
:10230000DF1D051524F410E0B02EB40CF5CFDF91DD
:10231000CF911F910F91FF90EF90DF90CF90BF90E2
:10232000AF909F908F907F906F905F904F903F9075
:1023300008953F924F925F926F927F928F929F92F9
:10234000AF92BF92CF92DF92EF92FF920F931F93C3
:10235000CF93DF93EC01862EA42E422F102F3F8CBB
:1023600023E526170CF4ABC03FE23A150CF4A7C0E6
:10237000C02EDD248C8190E001979C01C29EC0019B
:10238000C39E900DD29E900D1124262F332727FD3A
:102390003095820F931F181619060CF090C08D818E
:1023A00090E09C01C29EC001C39E900DD29E900DF4
:1023B00011242A2D332727FD3095820F931F1816DD
:1023C00019060CF07CC09924442E55246DC09C0144
:1023D000215030404217530711F460E00EC0429E76
:1023E000C001439E900D529E900D1124840F951FA5
:1023F000ED8DFE8DE80FF91F64914C9DC0014D9D40
:10240000900D5C9D900D1124682C680EBB24792CD6
:10241000780C3FC0E62EFF2460FF19C0113039F45C
:102420004B2D4A0DCE01672D0E94440E2EC02C9DCF
:10243000C0012D9D900D3C9D900D11244A2D480FFB
:10244000CE01662D212F012F0E940E0F1EC098A1D4
:102450008F8D9817D1F09F8F113039F44B2D4A0D85
:10246000CE01672D0E94440E0FC02C9DC0012D9DF2
:10247000900D3C9D900D11244A2D480FCE01662DE4
:10248000212F012F0E940E0F3F8EF594E7946E2DA1
:10249000B3942B2D332727FD30958D8190E028179D
:1024A00039070CF4B7CF9394492D552747FD509524
:1024B0008C8190E0481759070CF489CF3F8EDF914B
:1024C000CF911F910F91FF90EF90DF90CF90BF9031
:1024D000AF909F908F907F906F905F904F903F90C4
:1024E00008950F93CF93DF93EC01262F6A3049F4C0
:1024F0008D819885899F802D11249A85980F9A87C0
:1025000026C06D3029F169854A8508850E94991198
:102510009C816885969F402D11248985480F4987A5
:102520008F818823A9F0552747FD5095699F900119
:10253000112484E590E0821B930B8417950744F4E3
:102540009D81699F902D11248A85890F8A8719861C
:1025500081E090E0DF91CF910F9108951F93CF9389
:10256000DF93EC01162FF8948E8560E00E94EB203B
:102570008F8518161CF460E00E94EB201EBD0DB480
:1025800007FEFDCF8EB58F8518161CF461E00E9402
:10259000EB207894DF91CF911F910895FF920F93D4
:1025A0001F93CF93DF93EC01FF2400E010E06F2D29
:1025B0006064CE010E94AE12CE0160E80E94AE12AD
:1025C0008E8561E00E94EB208F8518161CF460E078
:1025D0000E94EB20F801E95EFA4F90E080818EBD09
:1025E0000DB407FEFDCF8EB59F5F31969435B1F7E0
:1025F0008F8518161CF461E00E94EB20F3940C5AAE
:102600001F4F86E0F81699F6CE0160E40E94AE12E4
:10261000DF91CF911F910F91FF900895CF93DF939A
:10262000DC0188EF91E0E7E1F5E0EF019C01199210
:1026300021503040E1F719961C9219971A961C9276
:10264000DF91CF910895EF920F93CF93DF93EC0139
:102650004D876C872E87E88A0F8781E088878F8F68
:1026600018A28F83E4EEF1E084918F5F8C83319622
:1026700084918F5F8D833196FE8FED8F0E940E0DBA
:1026800081E00E94EF0C85E00E94FD0C8CE00E942E
:10269000F80C8D8561E00E94AC208C8561E00E9481
:1026A000AC208E8561E00E94AC20888918161CF44D
:1026B00061E00E94AC208F8518161CF461E00E9436
:1026C000AC20888918166CF460E00E94EB206AE068
:1026D00070E080E090E00E94961F888961E00E948F
:1026E000EB20EC852E2F332727FD3095F901E25F93
:1026F000FA4FE491F0E0EE0FFF1FE650FB4F85919B
:1027000094919C8B8B8B2E5D3A4FF90184918A8F2B
:10271000ED852E2F332727FD3095F901E25FFA4F23
:10272000E491F0E0EE0FFF1FE650FB4F859194918E
:102730009A8B898B2E5D3A4FF9018491898FEF85B1
:102740002E2F332727FD3095F901E25FFA4FE491F0
:10275000F0E0EE0FFF1FE650FB4F859194919E8BAA
:102760008D8B2E5D3A4FF90184918B8FEE852E2F44
:10277000332727FD3095F901E25FFA4FE491F0E04D
:10278000EE0FFF1FE650FB4F85919491988F8F8B32
:102790002E5D3A4FF90184918C8FCE0161E20E9447
:1027A000AE12CE0164E10E94AE128B8587FF02C09B
:1027B0008FE78B876B856068CE010E94AE12CE01D9
:1027C00060E20E94AE12CE016CE00E94AE12CE0119
:1027D0000E94CE12DF91CF910F91EF900895FC01EE
:1027E000262FE051FF4F88EE93E070E00E9475269F
:1027F0006083E05FF040822F64E10E94552685AB44
:102800000895CF93DF93DC01E0E8FFE68591949192
:10281000ED01C553DF4FAD014F515F4F8150904CDB
:1028200009F04EC0E6E9FFE6E491E883E7E9FFE658
:10283000E4911496EC931497E8E9FFE6E491159679
:10284000EC931597E9E9FFE68591949117969C938F
:102850008E931697EBE9FFE68591949119969C93D8
:102860008E931897EDE9FFE6E491D796EC93D7970E
:10287000EEE9FFE6E491D696EC93D697EFE9FFE612
:10288000E491EA01E883E0EAFFE6859194915D96A0
:102890009C938E935C97E2EAFFE6859194915F9614
:1028A0009C938E935E97E4EAFFE6859194919196CE
:1028B0009C938E939097E6EAFFE68591949132C0BF
:1028C0008CE3888314961C9214972FEF15962C9303
:1028D000159780E293E017969C938E93169784ED5C
:1028E00093E019969C938E93189781E0D7968C93DA
:1028F000D797D6968C93D697FA0120838CEA9DE0E1
:102900005D969C938E935C978EED9DE05F969C9375
:102910008E935E9784E79EE091969C938E9390971A
:102920008CE39FE093969C938E939297DF91CF9147
:102930000895EF92FF920F931F93CF93DF937C0143
:102940008C0100541F4FC8010E940E13C8016BE890
:1029500073E00E94CB21C8010E94CE1283E00E9446
:10296000FD0C80E791E0EEEFFFE3099586EC90E047
:10297000E80EF91EF7011082C80166E673E00E94B6
:102980001622C8010E94CE12E701CC5BD040CE01D6
:102990000E94140ECE0164E00E94EC0D882339F4ED
:1029A00062E370E080E090E00E94961FF0CFDF913C
:1029B000CF911F910F91FF90EF9008950F931F9368
:1029C000CF93DF93EC018C0100541F4FC80161E0ED
:1029D00040E00E94400EFE01E753FF4FCC53DF4F13
:1029E00085E59881891B808326961882CA5CD04031
:1029F000698D613081F1613028F0888D653008F093
:102A000043C03DC0CE0185960E947A19CE0160E098
:102A10000E94290DC8010E940E13C853DF4F81E0A8
:102A20008883C80163EB73E00E94CB21C8010E9438
:102A3000CE1283B7817F846083BF83B7816083BFF9
:102A400083B7816083BF889583B78E7F83BF83B749
:102A50008E7F83BF1FC0CE51DF4F88819981AA81AD
:102A6000BB818F709070A070B0700897A105B10500
:102A700018F4C80167E00CC0C80168E709C08823E2
:102A800049F06B5FC80104C0882321F0C8016FE2E0
:102A90000E94EE21DF91CF911F910F910895AF9287
:102AA000BF92CF92DF92EF92FF920F931F93CF933B
:102AB000DF93EC01C950DF4F8881C75FD040882386
:102AC00009F44AC08C3010F010E002C01CE0181B62
:102AD000C853DF4F81E08883C85CD04060ECC62ECD
:102AE000D12CCC0EDD1EC60160E00E943C0E55ECE0
:102AF000A52EB12CAC0EBD1EF50100814DE2F42EC9
:102B00004F2D401B410F0D5FC60160E024E533E00F
:102B1000E32E0E94F010C60161E00E943C0EF50118
:102B20000081F01AF10E0D5FC60160E04F2D24E523
:102B30000E949210C753DF4F84E08993F501808192
:102B4000181B115D1883AB9669917991C6010E949B
:102B5000CB21888181508883DF91CF911F910F9184
:102B6000FF90EF90DF90CF90BF90AF9008954F927D
:102B70005F926F927F928F929F92AF92BF92CF920D
:102B8000DF92EF92FF920F931F932C01FC01628C56
:102B9000738C60947094882499240E94701F5B0148
:102BA0006C010E94701F7B018C01F20141805280F8
:102BB0000E94701F460E571EA094B094C094D094EB
:102BC000E094F09400951095C601B501A801970115
:102BD0000E943626A40193010E943626460E571EF7
:102BE000C2010E946B231F910F91FF90EF90DF9025
:102BF000CF90BF90AF909F908F907F906F905F909D
:102C00004F900895AF92BF92CF92DF92EF92FF92D2
:102C10000F931F93CF93DF93EC01E1EFAE2EB12C16
:102C2000A80EB91EF501E080F180028113810E9497
:102C3000621FE61AF70A080B190B70EFC72ED12C8A
:102C4000CC0EDD1EF601808190E0A0E0B0E08E1594
:102C50009F05A007B10708F081C08E0104511F4FE6
:102C6000F80180819181A281B3810097A105B1050E
:102C700009F474C00E94621FF6012081620F711D69
:102C8000811D911DF5016083718382839383FE0111
:102C9000EE51FF4F80819181A281B3810196A11DE8
:102CA000B11D80839183A283B383F80110821182C6
:102CB000128213820E94701FC851DF4F688379838C
:102CC0008A839B83C85ED040CE010E942E0DCE0128
:102CD0000A960E94140ECE0148960E94A00D81E033
:102CE00032C08E010B5D1F4FC8010E94FD19C80143
:102CF0000E94E11AC8010E945D1CCE010E944F157E
:102D0000CE010E94DE148E0100541F4FC8010E94A4
:102D1000CE12CA53DF4F8881C65CD040882319F495
:102D2000C8010E940E130E94701FC451DF4F6883B8
:102D300079838A839B83249728813981621B730B53
:102D40007A936A9380E0DF91CF911F910F91FF906A
:102D5000EF90DF90CF90BF90AF900895C451DF4FB8
:102D600088819981AA81BB81CC5ED0400097A10562
:102D7000B10541F7B6CF2F923F924F925F926F927B
:102D80007F928F929F92AF92BF92CF92DF92EF92FB
:102D9000FF920F931F93DF93CF93CDB7DEB72B979F
:102DA0000FB6F894DEBF0FBECDBF9B878A877A83AC
:102DB00069835C834B838C010F511F4FF801808125
:102DC000882309F422C18A859B8588539F4F9B875E
:102DD0008A8781E0EA85FB85808312921292E65C05
:102DE000F040FB87EA87108E90ECE92EF12CEE0E76
:102DF000FF1EC70161E00E943C0E8AE0282E312CA4
:102E00008A859B85280E391EB5E26B2E712C680EC3
:102E1000791EE981FA81F491FD83A9EC8A2E912C27
:102E2000880E991EFAECCF2ED12CC80ED91EE4ECD8
:102E30004E2E512C480E591E8B539F4F9F838E83CD
:102E400072EEA72EB12C8A859B85A80EB91E198714
:102E500008878A859B850E9402168823D1F39D816D
:102E6000992311F410E003C0EE81FF811081C701A6
:102E700060E040E02FEF33E00E942B118B819C81BA
:102E8000892B41F0145FC70160E0412F2B813C8109
:102E90000E942B11F40110828CE0F6018083C7019F
:102EA00069817A810E94CB21F201208130E0C90141
:102EB000880F991F820F931F909581959F4F8D5A70
:102EC000F4018083EE81FF81208130E0C901880F09
:102ED000991F820F931F909581959F4F835DF601F7
:102EE0008083F501808184FF04C0C7016FE774E02F
:102EF00003C0C7016BE774E00E941622F201208133
:102F000030E0C901880F991F820F931F909581951A
:102F10009F4F8D5AF4018083F60180818F5F8083FB
:102F2000EA85FB8586A9882321F0C70167E774E05D
:102F300003C0C70163E774E00E941622F20180819A
:102F400090E09C01220F331F280F391F30952195E7
:102F50003F4F2D5AF4012083F60180818F5F8083DB
:102F6000C7016FE674E00E941622C10165E00E946D
:102F7000EC0D882351F0EA85FB8566A96F5FC301DC
:102F80000E94721DC3010E946C1DC10164E00E9479
:102F9000EC0D882399F4E885F9856081262F30E0CF
:102FA00040E050E0F50180819181A281B3818217D8
:102FB0009307A407B50708F16F3FF9F08A859B8551
:102FC0008F519F4F9B878A878FEFEA85FB85808390
:102FD000E15EF040FB87EA87C30160E00E946A1966
:102FE000C3010E94661D81E0EA85FB85808F0DC0CC
:102FF0008A859B850E9499142CCFC10166E00E94AE
:10300000EC0D882309F425CFF3CF2B960FB6F89457
:10301000DEBF0FBECDBFCF91DF911F910F91FF900B
:10302000EF90DF90CF90BF90AF909F908F907F9068
:103030006F905F904F903F902F900895AF92BF9206
:10304000CF92DF92EF920F93CF93DF936C0180EFDB
:1030500090E0C80ED91E82E3F601808381E090E003
:10306000A0E0B0E0B293A293929382936F0185EFB8
:103070009FEFC80ED91E8FEFF60180838FE19FEF7F
:10308000C80ED91EC6010E940114C6010E94250D5A
:10309000C6016FEF0E94290D4AE0A42EB12CAC0CA2
:1030A000BD1CC5010E94DC0DC5010E94140EC601A5
:1030B00048960E94960DC60180549F4F6DE04BE0EC
:1030C00020E10FE03EE0E32E0E942313E601A596E7
:1030D000CE010E947F1DC50165E00E94EC0D882392
:1030E00029F0CE0160E00E94721D18C0CE0165E893
:1030F00074E040E00E948F19CE0165E874E041E081
:103100000E948F19CE0165E874E042E00E948F1999
:10311000CE0165E874E043E00E948F19DF91CF9102
:103120000F91EF90DF90CF90BF90AF9008950F93E5
:10313000CF93DF93DC01043008F05AC0623009F409
:1031400043C0633030F4662359F0613009F050C059
:103150000DC0633009F43EC0643009F049C040C07E
:10316000A00FB11DA15BBF4F4C9342C0602F70E018
:10317000EB01CC0FDD1FC80FD91F842F90E0880F03
:10318000991F2BA93CA9280F391FF901859194910A
:10319000CD58DF4F99838883FC0145915491042FCA
:1031A000FD01E60FF71FE558FF4F4083252F33271A
:1031B000842F90E02817390708F4052FA60FB71FB2
:1031C000A158BF4F0C9314C0FC01E00FF11DE55A4C
:1031D000FF4F0BC0FC01E00FF11DED59FF4F05C083
:1031E000FC01E00FF11DE559FF4F40833496208329
:1031F000DF91CF910F910895CF93DF93EC012430AD
:10320000F0F4A22FB0E0FC01EA0FFB1FE95BFF4FD7
:10321000608334964083E05CFF4F1082CD01880FBD
:10322000991FC80FD91FCD57DF4F19821882F89701
:1032300081E08083AD5EB84F8C9334961082DF912D
:10324000CF910895CF93DF93EC01643008F03FC035
:10325000A62FB0E0FC01EA0FFB1FED5AFF4F1082D2
:1032600038971082CD01880F991FC80FD91FCD57ED
:10327000DF4F198218823C961082FD01E15EF84F03
:103280001082FD01E55EF84F1082AD5EB84F1C92D2
:1032900080911307882311F490E002C090911F07DA
:1032A00080911407882319F080912007980F80914E
:1032B0001507882319F080912107980F8091160730
:1032C000882319F080912207980F9093B400DF9122
:1032D000CF9108951F93CF93DF93EC01162F6430A5
:1032E00028F40E942219C10FD11D1C82DF91CF91B9
:1032F0001F9108950F931F938C0160E00E946A193B
:10330000C80161E00E946A19C80162E00E946A195E
:10331000C80163E00E946A191F910F910895EF920E
:10332000FF921F93CF93DF93EC017B01142F443066
:10333000F0F4642F0E946A19812F90E0FC01EE0FD7
:10334000FF1FEC0FFD1FF4A6E3A6FF96118210826B
:10335000FE01E80FF91F81E08483E15BFF4F89E004
:1033600080833C9610823896108238961082DF91C6
:10337000CF911F91FF90EF9008951F93CF93DF930C
:10338000AC01162F6430A8F5262F30E0EC01C20FF7
:10339000D31F8881882369F18C81882351F5D90155
:1033A000AA0FBB1FA40FB51F8B8D90E0880F991F2C
:1033B0005396ED91FC915497E80FF91F85919491E4
:1033C0002FEF8F3F920711F4188213C09FA390E054
:1033D000880F991F5F96ED91FC919097E80FF91F68
:1033E00065917491CA01412F0E948F198B8D8F5F57
:1033F0008B8FDF91CF911F9108950F931F938C01B5
:1034000060E00E94BD19C80161E00E94BD19C801B9
:1034100062E00E94BD19C80163E00E94BD191F91BE
:103420000F9108956F927F929F92AF92BF92CF9229
:10343000DF92EF92FF920F931F93CF93DF937C0164
:10344000962E23E0261708F4AEC0C62EDD24DC013C
:10345000AC0DBD1D14968C911497882309F4A3C05C
:10346000A55BBF4F8C91AB54B040882309F09BC043
:103470005601AA0CBB1CAE0CBF1C8501015C1F4F82
:10348000E801E881F981EE0FFF1FE5014BA55CA57E
:10349000E40FF51F259134912115310509F047C03E
:1034A000DB968C91DB97813039F4F8011182108220
:1034B000FA01259134913BC014961C9214978C917B
:1034C000882381F0C7010E94BD19D8018D919C917C
:1034D000880F991FE501EBA5FCA5E80FF91F2591C1
:1034E000349125C0C7010E9422195DC0E6E03695DF
:1034F0002795EA95E1F76F70422F4F7175E0369589
:1035000027957A95E1F72051C701092D0E94971858
:1035100088819981019699838883880F991FD501A5
:10352000ED91FC91E80FF91F259134910DC0360102
:10353000660C771CC701860D971DEC01EF964BE2D8
:10354000A42EB12CA80EB91EB90176956795769573
:10355000679520FDCBCFF701EC0DFD1DE95BFF4F1B
:10356000862F8F73808334963083E05CFF4F108208
:10357000D701A60DB71DAD57BF4F11961C921E92D5
:10358000F89781E08083C3E1D7E0CC0EDD1EE60131
:10359000888334961082A454B0408D919C911197E9
:1035A00001968D939C93DF91CF911F910F91FF9086
:1035B000EF90DF90CF90BF90AF909F907F906F90F3
:1035C00008950F931F938C0160E00E94121AC801A6
:1035D00061E00E94121AC80162E00E94121AC8013A
:1035E00063E00E94121A1F910F910895DF92EF92EB
:1035F000FF920F931F93CF93DF937C01D62E43E06E
:10360000461708F452C1062F10E0DC01A00FB11FCD
:10361000AD5ABF4F8C91A355B040882309F445C1E2
:10362000FD01E55BFF4F8081882321F4C7010E94E3
:1036300022193BC181508083BD0165577F4FFB013B
:103640008081882309F052C0F801EE0FFF1FEE0DB4
:10365000FF1DEF01CD57DF4F888199810196880FBB
:10366000991FED58FF4F0190F081E02DE80FF91FF1
:1036700025913491A157BF4F822F87708C93A90158
:10368000F3E056954795FA95E1F7CA019695879527
:103690001496232F3327269526952C938F73F701A5
:1036A0002089829F802D1124FB018083F801ED5D2C
:1036B000F84F41704083888199810196998388836E
:1036C00058972C91AB57B04030E08217930770F0B9
:1036D000A158BF4F8C91882329F0281B31093983C9
:1036E000288304C0C7016D2D0E942219E701C00F75
:1036F000D11FFE01E557FF4F808181508083FE017D
:10370000E95AFF4F90819F5F9083FE01ED56FF4F76
:10371000C95BDF4FE0818881C754D040E80F8FA19B
:10372000E80FE887CD59DF4F6881C356D040662344
:1037300089F0892F992787FD909570E00E94752662
:10374000C959DF4F8881C756D040869F802D1124EC
:103750008E0F8887F701E00FF11F808590E0CB96F0
:103760006BE370E00E9475268087E15BFF4F20814C
:10377000EF54F0402487E55AFF4F6081EB55F0404D
:103780006623A1F0E95AFF4F8081772767FD709586
:10379000992787FD90950E94752638968081EF5570
:1037A000F040869F802D1124820F8487F701E00F5F
:1037B000F11FE559FF4F6081EB56F0406623C1F0E1
:1037C000E95AFF4F8081992787FD909570E00E940C
:1037D0007526CB0162E070E00E9475267896908194
:1037E000EF56F040899F802D11249485890F84879E
:1037F000F701E00FF11F84858A300CF089E0F701B2
:10380000E00FF11F87FD80E08487F701E00FF11FD3
:10381000E95BFF4F8081E754F0408F3309F4148651
:10382000F894A701400F511FDA011896EC91F0E0CF
:10383000E755FB4FE491D801A95EB84FEC93FA012C
:103840002485332727FD309549565F4FDA018C9147
:1038500090E0F901E89F9001E99F300DF89F300D4D
:103860001124D70151968C9190E0F901E89F9001C5
:10387000E99F300DF89F300D112448505040DA0177
:103880008C91992787FD9095FC012E9FC0012F9F59
:10389000900D3E9F900D1124F801E55EF84F808356
:1038A000015E184FD8018C937894DF91CF911F91CE
:1038B0000F91FF90EF90DF9008950F931F938C016D
:1038C00060E00E94F61AC80161E00E94F61AC80181
:1038D00062E00E94F61AC80163E00E94F61A1F9186
:1038E0000F91089560911B07662341F180910F07A6
:1038F0008F5F80930F07909117078917F8F090E07A
:1039000080911307882309F491E090931307109294
:103910000F0780912307882379F080917B0123E4AE
:10392000829FC0011124895B80937B0190E070E04D
:103930000E94612680931F0721E001C020E0609172
:103940001C07662339F1809110078F5F8093100761
:10395000909118078917F0F090E080911407882360
:1039600009F491E0909314071092100780912407B6
:10397000882379F080917B0123E4829FC001112488
:10398000895B80937B0190E070E00E9461268093C8
:10399000200721E060911D07662339F1809111070E
:1039A0008F5F80931107909119078917F0F090E0CD
:1039B00080911507882309F491E0909315071092E0
:1039C000110780912507882379F080917B0123E4FA
:1039D000829FC0011124895B80937B0190E070E09D
:1039E0000E9461268093210721E060911E076623D3
:1039F00039F1809112078F5F8093120790911A0717
:103A00008917F0F090E080911607882309F491E07F
:103A1000909316071092120780912607882391F041
:103A200080917B0123E4829FC0011124895B8093F4
:103A30007B0190E070E00E9461268093220702C023
:103A40002223F9F080911307882311F490E002C03B
:103A500090911F0780911407882319F08091200707
:103A6000980F80911507882319F080912107980FEE
:103A700080911607882319F080912207980F909360
:103A8000B40008951F920F920FB60F9211242F9336
:103A90003F934F935F936F937F938F939F93AF93D6
:103AA000BF93EF93FF930E94721CFF91EF91BF9120
:103AB000AF919F918F917F916F915F914F913F91C6
:103AC0002F910F900FBE0F901F90189561EA74E030
:103AD00040E00E948F19089563E974E040E00E947D
:103AE0008F190895FC01862F628970E06F5F7F4F08
:103AF000992787FD90950E947526818B08959F9246
:103B0000AF92BF92CF92DF92EF92FF920F931F93EB
:103B1000CF93DF93EC0181E0888B67E9C62ED12C2F
:103B2000CC0EDD1E53E3E52EF12CEC0EFD1E10E055
:103B30009924939444EEA42E44E0B42EF60191927D
:103B40006F01F701A192B1927F01CE0161E040E0E7
:103B500020E0012F0E9497181F5F143079F783E04F
:103B600061E070E00E944C208091B100887F81600C
:103B70008093B100F894109280001092810010920E
:103B800085001092840088E191E0909389008093F1
:103B900088008091810088608093810080918100FD
:103BA00081608093810080916F00826080936F00BC
:103BB0007894DF91CF911F910F91FF90EF90DF905C
:103BC000CF90BF90AF909F9008950F931F93CF9386
:103BD000DF93BC018230910510F462E070E0E09167
:103BE0003207F0913307A0E0B0E040E050E024C09D
:103BF0008081918186179707D0F08617970771F417
:103C000082819381109729F013969C938E9312973B
:103C10002CC0909333078093320727C0411551057C
:103C200019F08417950718F4EF018D01AC01DF013D
:103C3000828193819C01F9013097D1F6411551059C
:103C4000F9F0CA01861B970B8430910580F48A81B4
:103C50009B810115110521F0F8019383828304C033
:103C60009093330780933207FE01329645C0FE01E0
:103C7000E80FF91F619371930297998388833CC081
:103C80008091300790913107892B41F480917E011A
:103C900090917F019093310780933007409180018C
:103CA000509181014115510541F44DB75EB78091A6
:103CB0007C0190917D01481B590B20913007309178
:103CC000310724173507B0F4CA01821B930B8617FE
:103CD000970780F0AB014E5F5F4F8417950750F058
:103CE000420F531F5093310740933007F9016193FE
:103CF000719302C0E0E0F0E0CF01DF91CF911F911E
:103D00000F910895CF93DF939C01009709F48FC022
:103D1000EC0122971B821A8260913207709133075F
:103D20006115710581F488819981820F931F20911B
:103D30003007309131072817390739F5D09331070B
:103D4000C093300774C0DB0140E050E0AC17BD0702
:103D500008F1BB83AA83FE0121913191E20FF31F89
:103D6000AE17BF0779F48D919C911197280F391FD9
:103D70002E5F3F4F3983288312968D919C91139724
:103D80009B838A834115510571F4D0933307C09307
:103D900032074DC012968D919C911397AD010097FB
:103DA00011F0DC01D3CFDA011396DC93CE93129796
:103DB000FA0121913191E20FF31FCE17DF0769F469
:103DC00088819981280F391F2E5F3F4FFA01318377
:103DD00020838A819B8193838283E0E0F0E0DB0192
:103DE00012968D919C911397009719F0BC01FD01DB
:103DF000F6CFAB014E5F5F4FDB018D919C91840F3D
:103E0000951F20913007309131072817390779F431
:103E1000309729F4109233071092320702C01382B0
:103E20001282425050405093310740933007DF9147
:103E3000CF9108951F920F920FB60F9211242F93D6
:103E40003F938F939F93AF93BF9380912B07909154
:103E50002C07A0912D07B0912E0730912F070196C6
:103E6000A11DB11D232F2D5F2D3720F02D57019659
:103E7000A11DB11D20932F0780932B0790932C0732
:103E8000A0932D07B0932E078091270790912807C4
:103E9000A0912907B0912A070196A11DB11D809319
:103EA000270790932807A0932907B0932A07BF916B
:103EB000AF919F918F913F912F910F900FBE0F90D7
:103EC0001F9018958FB7F89420912B0730912C07ED
:103ED00040912D0750912E078FBFB901CA01089557
:103EE0009FB7F89420912707309128074091290720
:103EF00050912A0786B5A89B06C08F3F21F02F5FFF
:103F00003F4F4F4F5F4F9FBF542F432F322F2227DA
:103F1000280F311D411D511D82E0220F331F441F08
:103F2000551F8A95D1F7B901CA0108959B01AC01CB
:103F30007FB7F8948091270790912807A0912907CF
:103F4000B0912A0766B5A89B05C06F3F19F001968E
:103F5000A11DB11D7FBFBA2FA92F982F8827860FCB
:103F6000911DA11DB11D62E0880F991FAA1FBB1FE3
:103F70006A95D1F7BC012DC0FFB7F894809127074F
:103F800090912807A0912907B0912A07E6B5A89B30
:103F900005C0EF3F19F00196A11DB11DFFBFBA2F5B
:103FA000A92F982F88278E0F911DA11DB11DE2E02A
:103FB000880F991FAA1FBB1FEA95D1F7861B970B85
:103FC000885E9340C8F221503040404050406851D4
:103FD0007C4F211531054105510571F608957894FE
:103FE00084B5826084BD84B5816084BD85B58260FE
:103FF00085BD85B5816085BDEEE6F0E0808181609C
:104000008083E1E8F0E0108280818260808380819B
:1040100081608083E0E8F0E0808181608083E1EB73
:10402000F0E0808184608083E0EBF0E0808181605B
:104030008083EAE7F0E08081846080838081826011
:1040400080838081816080838081806880831092FA
:10405000C1000895982F8E3008F09E50977080917F
:1040600082018295880F880F807C892B80937C0049
:1040700080917A00806480937A0080917A0086FD36
:10408000FCCF2091780040917900942F80E030E0BF
:10409000282B392BC90108951F93CF93DF93182F35
:1040A000EB0161E00E94AC20209709F44AC0CF3FA9
:1040B000D10509F449C0E12FF0E0EA5CFA4F8491A0
:1040C0008330C1F0843028F4813051F08230B1F572
:1040D0000CC0863019F1873049F1843079F514C06D
:1040E00084B5806884BDC7BD33C084B5806284BD9B
:1040F000C8BD2EC080918000806880938000D093DE
:104100008900C093880024C08091800080628093E1
:104110008000D0938B00C0938A001AC08091B000B9
:1041200080688093B000C093B30012C08091B0004B
:1041300080628093B000C093B4000AC0C038D1053B
:104140001CF4812F60E002C0812F61E00E94EB200F
:10415000DF91CF911F910895CF93DF93482F50E0C7
:10416000CA018E5D9A4FFC013491425F5A4FFA01A9
:104170008491882369F190E0880F991FFC01E05138
:10418000FB4FA591B491FC01E650FB4FC591D49132
:10419000662351F42FB7F8948C91932F909589232F
:1041A0008C93888189230BC0623061F42FB7F89417
:1041B0008C91932F909589238C938881832B88836E
:1041C0002FBF06C09FB7F8948C91832B8C939FBF11
:1041D000DF91CF910895482F50E0CA018A5C9A4F31
:1041E000FC012491CA018E5D9A4FFC019491425FBB
:1041F0005A4FFA013491332309F440C0222351F17C
:10420000233071F0243028F42130A1F0223011F550
:1042100014C02630B1F02730C1F02430D9F404C0E6
:10422000809180008F7703C0809180008F7D809384
:10423000800010C084B58F7702C084B58F7D84BDA7
:1042400009C08091B0008F7703C08091B0008F7D4E
:104250008093B000E32FF0E0EE0FFF1FE650FB4F1E
:10426000A591B4912FB7F894662321F48C91909581
:10427000892302C08C91892B8C932FBF0895682FBE
:1042800070E0CB018A5C9A4FFC012491CB018E5DDA
:104290009A4FFC014491625F7A4FFB0194919923FC
:1042A00019F420E030E03CC0222351F1233071F0BA
:1042B000243028F42130A1F0223011F514C026302A
:1042C000B1F02730C1F02430D9F404C080918000CF
:1042D0008F7703C0809180008F7D8093800010C015
:1042E00084B58F7702C084B58F7D84BD09C080916D
:1042F000B0008F7703C08091B0008F7D8093B000B5
:10430000892F90E0880F991F8C5F9A4FFC01A5912F
:10431000B4918C9120E030E0842311F021E030E072
:10432000C9010895CF93DF930E94EF1F0E94CF0C25
:10433000C0E0D0E00E944E0C2097E1F30E94000004
:10434000F9CFCF92DF92EF92FF920F931F93CF930B
:10435000DF937C016B018A01C0E0D0E00FC0D60181
:104360006D916D01D701ED91FC910190F081E02DEF
:10437000C7010995C80FD91F01501040011511053B
:1043800071F7CE01DF91CF911F910F91FF90EF90C8
:10439000DF90CF900895EF92FF920F931F93CF93EA
:1043A000DF937C018B01C0E0D0E0F8010F5F1F4F6D
:1043B0006491662359F0D701ED91FC910190F08151
:1043C000E02DC7010995C80FD91FEFCFCE01DF91AE
:1043D000CF911F910F91FF90EF900895DC01ED9127
:1043E000FC910190F081E02D09950895EF92FF92E4
:1043F0000F931F938C01DC01ED91FC910190F081F2
:10440000E02D6DE009957C01D801ED91FC910190C2
:10441000F081E02DC8016AE009959C012E0D3F1D39
:10442000C9011F910F91FF90EF900895EF92FF92B5
:104430000F931F937C010E94CB218C01C7010E9426
:10444000F6219C01200F311FC9011F910F91FF9090
:10445000EF900895CF93DF93EC016115710519F486
:1044600020E030E00FC0DB010D900020E9F711974C
:10447000A61BB70BE881F9810280F381E02DAD0125
:1044800009959C01C901DF91CF9108954F925F92E8
:104490007F928F929F92AF92BF92CF92DF92EF92D4
:1044A000FF920F931F93DF93CF93CDB7DEB7A19702
:1044B0000FB6F894DEBF0FBECDBF2C01742ECB011A
:1044C000223008F42AE019A231E2C32ED12CCC0EFE
:1044D000DD1E822E9924AA24BB24672D752FA501E9
:1044E00094010E94882679018A01C801B701A501BB
:1044F00094010E943626472D461B0894C108D10816
:104500004A3014F4405D01C0495CF6014083E11477
:10451000F1040105110521F07E2C5F2DC801DDCFCE
:10452000C201B6010E942A22A1960FB6F894DEBFFE
:104530000FBECDBFCF91DF911F910F91FF90EF90F4
:10454000DF90CF90BF90AF909F908F907F905F90C3
:104550004F900895CF92DF92EF92FF920F931F93A7
:10456000CF93DF93EC016A017B012115310541F402
:10457000E881F9810190F081E02D642F09951FC039
:104580002A303105D1F477FF17C0E881F981019015
:10459000F081E02D6DE209958C0144275527BA0181
:1045A0004C195D096E097F09CE012AE00E9446225E
:1045B0009801280F391F04C02AE00E9446229C015E
:1045C000C901DF91CF911F910F91FF90EF90DF9084
:1045D000CF900895EF92FF920F931F937B019A0162
:1045E0000027F7FC0095102FB801A7010E94AA220E
:1045F0001F910F91FF90EF9008950E942A22089535
:104600002F923F924F925F926F927F928F929F92E2
:10461000AF92BF92CF92DF92EF92FF920F931F93D0
:10462000DF93CF93CDB7DEB73B014C0119012A01CF
:104630006D897E898F89988D6A197B098C099D09FE
:10464000621A730A840A950AA40193010E9436260D
:10465000E218F30804091509A80197010E94AA2687
:104660002A0D3B1D4C1D5D1DB901CA01CF91DF9183
:104670001F910F91FF90EF90DF90CF90BF90AF9080
:104680009F908F907F906F905F904F903F902F9072
:104690000895EF92FF920F931F937B018C01611598
:1046A00071058105910529F420E030E040E050E0FB
:1046B0000BC00E942403A80197010E94AA26AC0106
:1046C000CB01DA019C01AD01B901CA011F910F9123
:1046D000FF90EF900895009729F0BC0180E090E0F2
:1046E0000E9429030895DC01FB0114968D919C9191
:1046F0001597892B31F461157105A9F090E080813F
:1047000008C00D90BC91A02D6115710529F490E0B1
:104710008C91882349F407C0CD010E943B039C0182
:1047200090E0232B09F491E0892F08950F931F93B4
:10473000CF93DF93EC018B016F5F7F4F888199816D
:104740000E943824009711F480E005C09983888383
:104750001B830A8381E0DF91CF911F910F91089510
:10476000CF93DF93EC0188819981892B29F08A818D
:104770009B818617970760F4CE010E9496238823B9
:1047800041F08C819D81892B19F4E881F981108297
:1047900081E0DF91CF910895CF93DF93EC01888181
:1047A0009981009711F00E94821E198218821D8241
:1047B0001C821B821A82DF91CF910895EF92FF92A3
:1047C0000F931F93CF93DF93EC017B018A01BA0112
:1047D0000E94B023882321F4CE010E94CC2307C07D
:1047E0001D830C8388819981B7010E944403CE0107
:1047F000DF91CF911F910F91FF90EF900895CF938C
:10480000DF93EC01198218821B821A821D821C829E
:104810001E826115710551F0DB010D900020E9F752
:104820001197A61BB70BAD010E94DE23DF91CF913C
:1048300008950F931F93182F092F6115710559F0D3
:10484000DB010D900020E9F71197A61BB70BAD0116
:104850000E94DE2302C00E94CC23812F902F1F9143
:104860000F910895FC01808191810E94821E08951C
:104870006F927F928F929F92AF92BF92CF92DF9270
:10488000EF92FF920F931F93CF93DF938C010097CA
:1048900029F4CB010E94E51D8C01BBC08EEFE82EF0
:1048A0008FEFF82EE00EF11E4801860E971E8E1433
:1048B0009F0408F4ACC0D7014D915C911197461745
:1048C0005707B8F04530510508F4A3C0CA01049752
:1048D0008617970708F49DC042505040461B570B5F
:1048E000F401419351936D937C93CF010E94821EFA
:1048F00090C05B01A41AB50A3801640E751EA09120
:104900003207B0913307CC24DD24E0E0F0E047C06B
:10491000A615B705A9F5CD91DC911197CE010296A8
:104920008A159B0568F1CE018A199B090296129699
:104930002C91129713963C91059758F0F40122831D
:104940003383CA19DB09D183C083D7016D937C936C
:1049500009C04E5F5F4F4C0F5D1FF70151834083CD
:10496000C901FC01C114D10431F0D6011396FC93A6
:10497000EE9312974EC0F0933307E093320749C08D
:104980008D919C911197E817F90708F4FC016D01CE
:1049900012968C91129713969C919C01D9011097B5
:1049A00009F0B6CF809130079091310786159705B1
:1049B000E9F4E617F707D0F42091800130918101E6
:1049C0002115310541F42DB73EB780917C019091BE
:1049D0007D01281B390B82169306C8F4909231078B
:1049E00080923007F7017183608313C0CB010E946E
:1049F000E51DEC01009759F0D7014D915C91B8018C
:104A00000E943203C8010E94821E8E0102C000E093
:104A100010E0C801DF91CF911F910F91FF90EF90AF
:104A2000DF90CF90BF90AF909F908F907F906F90CE
:104A3000089598D088F09F5790F0B92F9927B751D3
:104A4000A0F0D1F0660F771F881F991F1AF0BA9552
:104A5000C9F712C0B13081F09FD0B1E008959CC079
:104A6000672F782F8827B85F39F0B93FCCF3869548
:104A700077956795B395D9F73EF4909580957095A5
:104A800061957F4F8F4F9F4F0895E89409C097FB22
:104A90003EF490958095709561957F4F8F4F9F4F15
:104AA0009923A9F0F92F96E9BB279395F695879559
:104AB00077956795B795F111F8CFFAF4BB0F11F41C
:104AC00060FF1BC06F5F7F4F8F4F9F4F16C08823C3
:104AD00011F096E911C0772321F09EE8872F762FF9
:104AE00005C0662371F096E8862F70E060E02AF03A
:104AF0009A95660F771F881FDAF7880F9695879526
:104B000097F9089597F99F6780E870E060E008954D
:104B10009FEF80EC089500240A94161617061806D5
:104B20000906089500240A941216130614060506B1
:104B30000895092E0394000C11F4882352F0BB0F42
:104B400040F4BF2B11F460FF04C06F5F7F4F8F4FA5
:104B50009F4F089557FD9058440F551F59F05F3FE0
:104B600071F04795880F97FB991F61F09F3F79F08F
:104B700087950895121613061406551FF2CF469511
:104B8000F1DF08C0161617061806991FF1CF869593
:104B90007105610508940895E894BB276627772777
:104BA000CB0197F908950BD0C4CFB5DF28F0BADF59
:104BB00018F0952309F0A6CFABCF1124EECFCADFB2
:104BC000A0F3959FD1F3950F50E0551F629FF00120
:104BD000729FBB27F00DB11D639FAA27F00DB11D79
:104BE000AA1F649F6627B00DA11D661F829F222702
:104BF000B00DA11D621F739FB00DA11D621F839F89
:104C0000A00D611D221F749F3327A00D611D231F5E
:104C1000849F600D211D822F762F6A2F11249F57AC
:104C200050408AF0E1F088234AF0EE0FFF1FBB1FCF
:104C3000661F771F881F91505040A9F79E3F51056E
:104C400070F060CFAACF5F3FECF3983EDCF386951F
:104C500077956795B795F795E7959F5FC1F7FE2B19
:104C6000880F911D9695879597F90895629FD001B9
:104C7000739FF001829FE00DF11D649FE00DF11D17
:104C8000929FF00D839FF00D749FF00D659FF00DC6
:104C90009927729FB00DE11DF91F639FB00DE11DB3
:104CA000F91FBD01CF0111240895991B79E004C0BB
:104CB000991F961708F0961B881F7A95C9F780955B
:104CC0000895AA1BBB1B51E107C0AA1FBB1FA61753
:104CD000B70710F0A61BB70B881F991F5A95A9F7A5
:104CE00080959095BC01CD01089597FB092E07266C
:104CF0000AD077FD04D0E5DF06D000201AF47095C5
:104D000061957F4F0895F6F7909581959F4F08958F
:104D1000A1E21A2EAA1BBB1BFD010DC0AA1FBB1FBF
:104D2000EE1FFF1FA217B307E407F50720F0A21B31
:104D3000B30BE40BF50B661F771F881F991F1A949E
:104D400069F760957095809590959B01AC01BD01C8
:104D5000CF01089597FB092E05260ED057FD04D0EC
:104D6000D7DF0AD0001C38F4509540953095219536
:104D70003F4F4F4F5F4F0895F6F790958095709590
:104D800061957F4F8F4F9F4F0895EE0FFF1F059046
:104D9000F491E02D09942F923F924F925F926F927F
:104DA0007F928F929F92AF92BF92CF92DF92EF92BB
:104DB000FF920F931F93CF93DF93CDB7DEB7CA1B3C
:104DC000DB0B0FB6F894DEBF0FBECDBF09942A8867
:104DD000398848885F846E847D848C849B84AA840F
:104DE000B984C884DF80EE80FD800C811B81AA819C
:104DF000B981CE0FD11D0FB6F894DEBF0FBECDBF67
:104E0000ED01089515E0CCE4D5E004C0FE010E9458
:0E4E1000C7262296CE34D107C9F7F894FFCFFB
:104E1E000067616D656F766572006E65776C65769D
:104E2E00656C0072756E6E696E670020204C415382
:104E3E0054202020202020202020484947480020B0
:104E4E00413A20504C41592020202020433A2051F5
:104E5E00554954006E657767616D650047414D4554
:104E6E00204F564552005052455353204220544F26
:104E7E0020434F4E54494E5545007469746C65007D
:104E8E004C4F4144455200010000000180003407A0
:104E9E000000010100390039000100010001000588
:104EAE0000060000000000440001000000000007A2
:104EBE0000040001000F003900010001000200078C
:104ECE00000F0000000A003C000100000000000777
:104EDE00000600000005003A000000010005000574
:104EEE00000200000004003A000000010005000569
:104EFE00000200000002003A00000001000500055B
:104F0E00000200000001003A00000001000500054B
:0C4F1E00000200000000007112A1210040
:00000001FF
