:100000000C9448030C9470030C9470030C947003CC
:100010000C9470030C9470030C9470030C94700394
:100020000C9470030C9470030C9470030C9438229D
:100030000C9470030C9470030C9470030C94700374
:100040000C9410240C9470030C9470030C947003A3
:100050000C9470030C9470030C9470030C94700354
:100060000C9470030C947003401AFFFFFFFFFFFF16
:10007000FFFF0000000000000000383DF7DF070729
:10008000771E7C7DF7DF8F8F773EFEFDF7DFDFDFAA
:10009000777EFEFDF7DFDFDF777EEEE0E71DDDDC5C
:1000A0007770EEE0E71DDDDC7E70EEE0E79DDDDCE5
:1000B0007C70FEF8E79F9DDC787CFE7CE79F1DDC72
:1000C0007C3EFE3EE71F9DDC7E1FEE0EE71DDDDC65
:1000D0007707EE0EE71DDDDC7707EEFEE7DDDFDFFD
:1000E000777FEEFEE7DDDFDF777FEEFCE7DDCF8FAA
:1000F000777EEEF8E7DDC707777C000000000000A0
:100100000000FFFFFFFFFFFFFFFF000000000000F7
:100110000000A6C66AECE66E66CEAAAA8A4A8AAA39
:100120008AA8AAAEEA4ACAEC8EAC4AAA2A4A8AAA85
:100130008AA84ECAE4ECEEAAEACE070710102828D7
:10014000447C0007070C1424446818000707061AAB
:1001500064442818000707001E624428300007077F
:1001600000605846586000070700302844621E00AF
:10017000070700182844641A060707001868442473
:10018000140C0707007C4428281010070700302CA7
:10019000444850600707003028444CB0C0070700AF
:1001A0001828448CF0000707000C34C4340C0007F6
:1001B0000700F08C442818000707C0B04C442830D2
:1001C000000707605048442C3000070700202844EF
:1001D0004C3808070700404C820848300707408425
:1001E00002000848200707800200000004400A0AB5
:1001F0003600490080804040204040408040808060
:1002000041003E000A0A11002A804440808080405C
:1002100080408040408021001E000A0A1E0021000C
:10022000408080408040404040408880550022000F
:100230000A0A1F002080404080408080810080802A
:10024000404024801B000A0A000000001C0022001D
:10025000110021002A001400000000000A0A00001A
:100260000000160029002200210012000C000000EE
:1002700000000A0A000000000C001200210011001A
:1002800025001A00000000000A0A000000000C000F
:1002900012002100220029001600000000000A0AB6
:1002A00000000000000004000A0012000C00000022
:1002B000000000000A0A000000000000080014000E
:1002C00012000C000000000000000A0A00000000FC
:1002D00000000C0012000A000400000000000000F2
:1002E0000A0A0000000000000C00120014000800C0
:1002F00000000000000007051028FE443807052014
:10030000D8700000030340E040596F646127730018
:1003100020202020596F646127730020202020595D
:100320006F646127730003053F213F0A100A12081A
:10033000120E1C0E0C1E0C141A14161F161E131E61
:100340001E1B1E1E1F1E3F213F3A2F3A173D173F0F
:10035000213F181F02040A041F0E04040E1F0A1F67
:100360000A0E0E1F04110E2E252E2F2A2E262929A5
:10037000021F02081F08150E04040E150E15151B8A
:10038000151B040604040C04000000001700030001
:10039000031F0A1F16371A1904130A153A0003001F
:1003A000000E11110E000A040A040E0400300004AD
:1003B00004040010001804031F111F121F101D1544
:1003C0001711151F07041F17151D1F151D01011FEC
:1003D0001F151F17151F000A00003200040A110A1A
:1003E0000A0A110A040115020E11171E051E1F1517
:1003F0000A0E110A1F110E1F15111F05010E111DE6
:100400001F041F111F1108100F1F041B1F10101FA6
:10041000061F1E040F0E110E1F09060E112E1F05BA
:100420001A121509011F011F101F0F180F1F0C1F93
:100430001B041B031C03191513001F1103041811BF
:100440001F000201022020200001020C121E1F12B8
:100450000C0C12120C121F0C1A14041E05242A1E56
:100460001F021C141D1020201D1F0814111F101E18
:10047000041E1E021C0C120C3E0A040C123E1E042A
:100480000214160A020F120E101E0E100E1E081E67
:10049000120C1226281E322A26041E21001F0021BB
:1004A0001E040102013F213F0A4E6F205344206386
:1004B000617264206F720A6E6F204C4F4144455246
:1004C0002E4845580A0A153A45786974001D204699
:1004D0006C617368696E670A20206C6F6164657275
:1004E0002E2E2E0A0A444F4E2754205455524E2089
:1004F0004F464621004E4F20424154544552590A1E
:100500000A504C454153450A5455524E204F4646D9
:1005100000177361766500166261636B001574796C
:100520007065000A0A0A153A6F6B617920163A6500
:1005300064697400596F7520656E74657265640A2C
:1005400000540A03E181867F3E186D830F0F0E0170
:1005500083866033186DC3198F1803C38E603318F8
:100560006DE330CF1803C39E603630CDE360CF30EB
:1005700006C79E7E3E30CDB360CF300CC6F66033EA
:1005800030D9B660CF33CFCCF66061B0DB1E60CF20
:1005900030D86CE6C061B0DB1E618F19986CC6C0A4
:1005A00063B19B0E330F0FB078C6FF7E1F1B061E74
:1005B0000F1753440016137800161314001510205B
:1005C000001520100000000500893008023802499B
:1005D00078681400004500680100000500680138D3
:1005E0000100000500380168010000F6E8DBCFC318
:1005F000B8AEA49B928A827B746E68625C57524E3E
:100600004945413E3A3734312E2C29272523211FD5
:100610001D1C1A1917161514131211100F0E0D0C9C
:100620000B0A090807062A062E060101F703010135
:10063000FF0300000000240027002A000000000043
:10064000250028002B0000000000230026002900C0
:100650000404040404040404020202020202030368
:100660000303030301020408102040800102040870
:100670001020010204081020000000070002010001
:1006800000030406000000000000000014040D0434
:1006900011241FBECFEFD8E0DEBFCDBF12E0A0E037
:1006A000B1E0EEEDF8E502C005900D92A43AB10775
:1006B000D9F717E0A4EAB2E001C01D92A130B1075A
:1006C000E1F716E0CEE8D6E004C02297FE010E94D2
:1006D000272CCC38D107C9F70E9488260C94622CAD
:1006E0000C940000A0E0B0E0E8E7F3E00C94332CB9
:1006F000EC01A880B980CA80DB80A114B104C104D8
:10070000D10441F484E2A82E89EDB82E8BE5C82EE1
:1007100087E0D82EC601B5012DE133EF41E050E06E
:100720000E940A2C27EA31E440E050E00E94962B18
:100730007B018C01C601B5012DE133EF41E050E0B2
:100740000E940A2CCA01B9012CEE34EF4FEF5FEF83
:100750000E94962B6E0D7F1D801F911F97FF04C076
:100760006150704080409048688379838A839B837E
:100770009B01AC015F77B901CA01CDB7DEB7EAE0F2
:100780000C944F2C0E94720308958FE791E00E9411
:100790007203089560937F017093800180938101BB
:1007A000909382010895FB01DC0102C001900D923B
:1007B00041505040D8F70895FB01DC018D91019024
:1007C00080190110D9F3990B0895FB01DC01019008
:1007D0000D920020E1F7089581309105A1F46F5F3B
:1007E0007F4FD1F410926703109266038FE992E075
:1007F00090936503809364038CE993E060E071E07B
:100800000E94F5280895892B39F46F5F7F4F21F4FA
:100810008CE993E00E942829089580E090E06FEF32
:100820007FEF0E94EC03089581E090E06FEF7FEF8F
:100830000E94EC0308958F929F92AF92BF92CF9245
:10084000DF92EF92FF920F931F937C01162F59ECCA
:10085000852E52E0952E4BEFA42E41E0B42E6C0174
:1008600034E0CC0CDD1C3A95E1F7CA0CDB1CC4016A
:1008700060E0F601448520E0012F0E948D1DC40137
:1008800061E0F601408120E00E948D1DF601208587
:100890002195C40162E042850E948D1D94E0EE0C1A
:1008A000FF1C9A95E1F7F60124812A53C40163E005
:1008B00046810E948D1DAE0CBF1CC401F5016281F2
:1008C000F6014685212F0E94F21D1F910F91FF9086
:1008D000EF90DF90CF90BF90AF909F908F90089552
:1008E0008091EE038F5F8093EE039091EC03981755
:1008F00070F41092EE038091ED038F5F817080930E
:10090000ED0390E0069661E070E00E941B040895FC
:100910002091A3033091A4038091EA039091EB030B
:1009200028173907ACF085E090E063E070E00E94A2
:100930001B048091A7038F5F8093A7038091EA0334
:100940009091EB03805F984D9093EB038093EA03C3
:1009500008951F931092B0031092AF0312E374C076
:10096000FD01EE0FFF1FEB53FC4F0190F081E02DD6
:100970004091D3045091D4046091D704613019F0B0
:1009800020E030E002C020E130E0CA018096820F12
:10099000931FE817F9070CF04EC03F96E417F507D0
:1009A0000CF449C0FD01EE0FFF1FE353FC4F019013
:1009B000F081E02D4091D5045091D604613019F0BA
:1009C00020E030E002C020E130E0CA014096820F12
:1009D000931FE817F9077CF53F96E417F5075CF1DC
:1009E000AB51BC4F8C91823330F5662321F183E00B
:1009F00090E060E070E00E941B042091A30330911E
:100A0000A4038091D704823019F080E090E002C006
:100A100080E293E028533F4F280F391F3093A403FF
:100A20002093A3031092D704E091AF03F091B00399
:100A3000EB51FC4F10838091AF039091B00301966E
:100A40009093B0038093AF03A091AF03B091B00334
:100A50008091E90390E0A817B9070CF481CF1F91AA
:100A600008952091DC043091DD048FEF2F3F38078B
:100A700009F482C08091E0049091E104820F931FF9
:100A80009093DD048093DC04E091E204F091E304B0
:100A90002091DE043091DF04E20FF31FF093DF04B6
:100AA000E093DE0468E070E00E94D52B262FCF0192
:100AB00068E070E00E94D52B462F84E693E0622F19
:100AC00024E033E00E9421168091DC049091DD0443
:100AD0008959924048F48091DE049091DF0497FD9B
:100AE00003C08957914034F08FEF9FEF9093DD045E
:100AF0008093DC042091B9033091BA036091DC0447
:100B00007091DD04C901879686179707ACF12750CD
:100B100030406217730784F12091BB033091BC030E
:100B20004091DE045091DF04C90187968417950730
:100B30001CF12750304042175307F4F077FD1CC0DA
:100B40008091C3038130C1F48091AB039091AC03D9
:100B50002FEF8F3F920781F49093DD048093DC04A4
:100B600088E290E09093AC038093AB0381E090E047
:100B700062E070E00E941B040895EF92FF921F93C1
:100B8000CF93DF931092AE031092AD03C4C0F9016E
:100B9000EE0FFF1FDF01AB52BC4FEF01CB53DC4F19
:100BA0004D915C9188819981480F591F59834883E1
:100BB000DF01A353BC4FE352FC4F608171818D91E3
:100BC0009C911197680F791F6D937C9357FF04C018
:100BD00048565D4F59834883F901EE0FFF1FEB53D1
:100BE000FC4F8081918142E08939940724F0885933
:100BF00092409183808377FF09C0F901EE0FFF1FB8
:100C0000E353FC4F68587E4F71836083F901EE0F08
:100C1000FF1FE353FC4F80819181A1E089379A0740
:100C200024F08857914091838083F901EB51FC4F68
:100C300080818F5F8083220F331FF901EB53FC4FBC
:100C40008081918168E070E00E94D52BE62F2353CC
:100C50003C4FD9018D919C9168E070E00E94D52BAA
:100C6000462F84E693E06E2F24E033E00E942116A5
:100C7000C091AD03D091AE0375EEE72E73E0F72E71
:100C8000EC0EFD1EF70180818F3108F43FC01091FA
:100C9000E903412F50E0415050409E01220F331F85
:100CA000B9016B537C4FDA01AA0FBB1FFD01EB5357
:100CB000FC4F80819181FB0191838083B901635353
:100CC0007C4FFD01E353FC4F80819181FB019183B7
:100CD0008083B9016B527C4FFD01EB52FC4F808148
:100CE0009181FB019183808323523C4FA352BC4FDF
:100CF0008D919C91D9018D939C934B515C4FFA013E
:100D00008081D7018C9311501093E9032196D093E1
:100D1000AE03C093AD032091AD033091AE0380913B
:100D2000E90390E0281739070CF431CFDF91CF9118
:100D30001F91FF90EF90089581E090E014C0B901F9
:100D4000660F771F620F731F660F771F665084E66A
:100D500093E040E02AE331E00E9421168091AD0348
:100D60009091AE0301969093AE038093AD032091D2
:100D7000AD033091AE038091A70390E028173907A7
:100D8000F4F26091A3037091A4036A30710514F426
:100D900088E201C086E26436710514F430E001C0D7
:100DA00032E093E0683E790714F420E001C022E0CD
:100DB00097E26031790714F490E001C092E0831B60
:100DC000821B891B80936D0310926E0384E693E06F
:100DD0004AE050E00E94E0278CE480936D0360912C
:100DE000A80370E06F5F7F4F84E693E04AE050E035
:100DF0000E94E02708951F938091AB039091AC036C
:100E000001979093AC038093AB0365E070E00E9480
:100E1000D52B892B31F481E090E060E070E00E94F6
:100E20001B048091AB039091AC0366EF7FEF0E94AF
:100E3000D52BFB017396F093AE03E093AD03809145
:100E4000B9039091BA0368E070E00E94D52B162F89
:100E50008091BB039091BC0368E070E00E94D52BA9
:100E6000462F9F0153E0220F331F5A95E1F72E0FB3
:100E70003F1F265C3E4F84E693E0612F0E942116BF
:100E80008091AB039091AC03892BC1F48FEF9FEF5E
:100E90009093AC038093AB038091A7038150809320
:100EA000A703882329F48CE993E061E071E004C092
:100EB0008CE993E06AE071E00E940F291F91089588
:100EC0008091A9039091AA031816190694F401972A
:100ED0009093AA038093A903892B59F48091A803C6
:100EE0008F5F8093A8038CE993E062E171E00E9438
:100EF0000F2908951092AA031092A9038FEF9FEF74
:100F00009093AC038093AB0380E491E09093BA0399
:100F10008093B90380EB90E09093BC038093BB0374
:100F20001092C0031092BF031092C2031092C1032B
:100F30008091C303813039F41092C3031092BE0331
:100F40001092BD0303C081E08093C3038CE993E05A
:100F50006BE171E00E940F2908951092A403109292
:100F6000A30383E08093A7031092A8031092D704F1
:100F70008FEF9FEF9093DD048093DC041092BE030B
:100F80001092BD0380E197E29093EB038093EA0314
:100F90008CE993E062E171E00E940F2908952091AD
:100FA000A3033091A4038091A5039091A603821717
:100FB000930724F43093A6032093A50310926D03A6
:100FC00010926E0384E693E063E271E00E94F327DF
:100FD0006091A3037091A4036A30710514F48EE04C
:100FE00001C08CE06436710514F420E001C022E0F9
:100FF00093E0683E790714F490E001C092E0821B10
:10100000891B80936D0386E080936E0384E693E0F2
:101010004AE050E00E94E0276091A5037091A6038A
:101020006A30710514F482E401C080E4643671050D
:1010300014F420E001C022E093E0683E790714F444
:1010400090E001C092E0821B891B80936D0386E0D3
:1010500080936E0384E693E04AE050E00E94E0272C
:1010600084E693E06AE04DE028E630E00E94211635
:1010700010926D038AE280936E0384E693E067E347
:1010800071E00E94F3278EEA92E064E00E94E2128F
:10109000882351F08CE993E06CE471E00E940F2901
:1010A00089EC92E00E945C228EEA92E066E00E9467
:1010B000E212882341F084EA92E069E073E048E6B6
:1010C00050E00E94B11B08950F9384E693E060E026
:1010D0000E94321384E693E066E140E127E209E0F2
:1010E0000E94041484E693E061E00E94321388E1D8
:1010F00080936D0382E180936E0384E693E064E560
:1011000071E00E94F32784E693E066E140E127E284
:101110000E943A1484E080936D038AE280936E0308
:1011200084E693E06EE571E00E94F3278EEA92E098
:1011300065E00E94E212882351F08CE993E062E7B7
:1011400071E00E940F2989EC92E00E945C220F91CD
:1011500008958091D704882309F494C08091DC0419
:101160009091DD048F5F9F4F09F08CC08091D30474
:101170009091D404893291050CF484C08056924039
:101180000CF080C089E090E060E070E00E941B04F9
:101190008091D3049091D40448969093DD04809379
:1011A000DC048091D5049091D60440969093DF049E
:1011B0008093DE0463E070E080E090E00E943F28CE
:1011C0006150704080409040F3E0660F771F881FA9
:1011D000991FFA95D1F77093E1046093E00463E0FE
:1011E00070E080E090E00E943F28615070408040B5
:1011F0009040E3E0660F771F881F991FEA95D1F7AB
:101200007093E3046093E2048091D704823041F547
:101210002091D3043091D4048091B9039091BA0302
:10122000281739071CF088EF9FEF02C088E090E094
:101230009093E1048093E0042091D5043091D6048A
:101240008091BB039091BC03281739071CF088EFED
:101250009FEF02C088E090E09093E3048093E20463
:101260008091E0049091E104892B61F48091E20483
:101270009091E304892B31F488E090E09093E104AD
:101280008093E00408958091D704882309F4E8C08E
:101290008091D8049091D9042091D3043091D40442
:1012A000820F931F9093D4048093D3042091D5048C
:1012B0003091D6044091DA045091DB04240F351F9D
:1012C0003093D6042093D50465E070E00E94D52BBE
:1012D000892B31F484E090E063E070E00E941B040D
:1012E0008091D5049091D604885D9F4F34F480E8B6
:1012F00091E09093D6048093D5048091D504909189
:10130000D6048158914034F088ED9FEF9093D60435
:101310008093D50462E370E080E090E00E943F2873
:101320006230710581059105B4F463E070E080E0FE
:1013300090E00E943F289B01AC01220F331F441F05
:10134000551F260F371F481F591F23503040309319
:10135000DB042093DA042091D3043091D404C90132
:10136000C896895D924010F01092D704C90168E0D8
:1013700070E00E94D52BE62F8091D5049091D60481
:1013800068E070E00E94D52B462F8091D70490E052
:1013900001979C01A3E0220F331FAA95E1F7281BB8
:1013A000390B2A503D4F84E693E06E2F0E942116A0
:1013B0004091B9035091BA032091D3043091D404E1
:1013C000CA018796821793070CF44AC06091D7042C
:1013D000613019F080E090E002C080E190E0205E92
:1013E0003F4F280F391F485F5F4F42175307C4F51F
:1013F0004091BB035091BC032091D5043091D60499
:10140000CA018796821793075CF1613019F080E07A
:1014100090E002C080E190E0205F3F4F280F391F2D
:10142000485F5F4F42175307DCF46623C9F0809191
:10143000C3038130A9F48091AB039091AC038F5F1B
:101440009F4F71F41092D70488E290E09093AC0320
:101450008093AB0381E090E062E070E00E941B04A7
:1014600008958091CF04883008F073C08091A30361
:101470009091A403855F91400CF46BC08091D704D8
:10148000882309F066C06AEF70E080E090E00E9477
:101490003F2862307105810591050CF05AC06091BA
:1014A000A80370E06C5F7F4F882777FD8095982FA9
:1014B0000E943F28633071058105910514F481E095
:1014C00001C082E08093D70488EC9FEF9093D4040E
:1014D0008093D30483E090E09093D9048093D80460
:1014E00062E070E080E090E00E943F2861157105A5
:1014F0008105910561F480EA92E09093D404809391
:10150000D3048DEF9FEF9093D9048093D80460E4C7
:1015100071E080E090E00E943F28605E7F4F709312
:10152000D6046093D50463E070E080E090E00E9410
:101530003F289B01AC01220F331F441F551F260F6C
:10154000371F481F591F235030403093DB0420932E
:10155000DA0408952F923F924F925F926F927F929A
:101560008F929F92AF92BF92CF92DF92EF92FF92B3
:101570000F931F93CF93DF9381E08093C403109266
:10158000AE031092AD033DC4FE01E159FB4F6081F3
:1015900070E068507040882777FD8095982F0E94F2
:1015A000A72A6B017C016093B1037093B20380930F
:1015B000B3039093B403FE01E157FB4F608170E0E9
:1015C00068507040882777FD8095982F0E94A72A41
:1015D0004B015C016093B5037093B6038093B7032E
:1015E0009093B8038E01000F111FBFEE6B2EB3E076
:1015F0007B2E600E711ED3016D917C91882777FD43
:101600008095982F0E94A72AA70196010E94102A70
:101610000E94742A7B01F30171836083015D1B4F7B
:10162000D8016D917C91882777FD8095982F0E9435
:10163000A72AA50194010E94102A0E94742A9B01E6
:10164000F80171836083F0EBEF16FFEFFF062CF4D7
:10165000E8E9F2E0D301ED93FC93FE01EE0FFF1FEA
:10166000E151FC4F808191818959924024F080EBB7
:101670009FEF91838083205B3F4F4CF4FE01EE0F80
:10168000FF1FE15DFB4FA8E7B1E0B183A083FE013E
:10169000EE0FFF1FE15DFB4F8081918189579140E3
:1016A00024F020EB3FEF318320839E01220F331F74
:1016B000F901E151FC4F8081918168E070E00E9466
:1016C000D52BE62F215D3B4FD9018D919C9168E090
:1016D00070E00E94D52B462FC155DB4F2881B6E123
:1016E0002B9F9001112422513E4F84E693E06E2FF0
:1016F0000E942116A090AD03B090AE03F501E15514
:10170000FB4FF080E3E0EF1510F098E001C098E1A6
:10171000F7E0FF1510F080E001C088E0182F190FE6
:101720001093D10423E02F1510F098E401C098E342
:1017300037E03F1510F080E001C088E0981B9093DF
:10174000D2042091B9033091BA03D501AA0FBB1F6F
:10175000FD01E151FC4FC081D181C92EDD2426015C
:101760004C0E5D1EC901089684159505ACF5612FD8
:1017700070E0295D3F4FCB018C0F9D1F2817390763
:101780005CF14091BB035091BC03A15DBB4FED9157
:10179000FC919A01285F3F4FC6018E0F9F1F2817AB
:1017A0003907D4F4495D5F4F6E0F7F1F4617570707
:1017B0009CF02091C303213079F48091AB03909188
:1017C000AC038F5F9F4F41F488E290E09093AC03AD
:1017D0008093AB032093D004612E772443018C0EB9
:1017E0009D1E4091D3045091D404A091D704A13000
:1017F00019F020E030E002C020E130E0CA0180961C
:10180000820F931F881699060CF03FC044155505AA
:10181000E4F5F501EE0FFF1FE15DFB4F0190F08154
:10182000E02D6091D5047091D604A13019F040E00C
:1018300050E002C040E150E093012E0F3F1FCB016A
:101840004096840F951F28173907FCF4EC0DFD1DF9
:101850006E177F07D4F4AA23C1F08091A30390915F
:10186000A403A23019F020E030E002C020E233E00F
:1018700088539F4F820F931F9093A4038093A303D9
:1018800091E09093D0041092D7044091DC045091E1
:10189000DD04441555054CF5CA010F9688159905C8
:1018A00024F12091DE043091DF04F501EE0FFF1FDB
:1018B000E15DFB4F0190F081E02DC6018E0F9F1F6F
:1018C0002817390794F4215F3F4FE60DF71D2E17B7
:1018D0003F075CF057FD09C0A1E0A093D004EFEFF3
:1018E000FFEFF093DD04E093DC048091E903282E00
:1018F0003324E090D00405EC13E0CDECD3E0A5EE6A
:10190000B3E060E070E0AA0CBB1C2FE234E0A20E52
:10191000B31E29C0F8018081918184159505ECF4EE
:101920000F9688159905CCF048815981F5012081E1
:101930003181C601820F931F4817590774F4415F24
:101940005F4F260D371D421753073CF08C918233B1
:1019500020F4F2E3FC93EE24E3946F5F7F4F0E5F7D
:101960001F4F2296119662157305A4F2E092D004DF
:101970007093B0036093AF0321E0E21609F00CC24C
:101980008091EC03863010F490E001C092E0891B56
:101990008093EC0333E03F1518F081E090E002C043
:1019A00082E090E020E030E047E04F1510F421E0C5
:1019B00030E0820F931F62E070E00E941B041092DF
:1019C000D0048091A3039091A4030091AD031091E2
:1019D000AE03F801E155FB4FE081E43018F440E03C
:1019E00050E002C04EE150E0E83018F420E030E072
:1019F00002C022E330E04496840F951F820F931FAC
:101A00009093A4038093A3036091CF04E801CC0FCB
:101A1000DD1FE83008F085C1062F10E0F801EE0F59
:101A2000FF1FAF0141515C4F9E0121513C4FD90135
:101A30008D919C914096DA018D939C93E15DFB4FD3
:101A4000DE01A15DBB4F8D919C91119740969183D2
:101A50008083F901808191814096918380838D916B
:101A60009C91119740968D939C9364E070E080E088
:101A700090E00E943F28E091AD03F091AE03E15564
:101A8000FB4F8081843010F480E001C084E0015578
:101A90001B4F6C5F860FD8018C9364E070E080E090
:101AA00090E00E943F28A091AD03B091AE03FD01EC
:101AB000E155FB4F8081843010F480E001C084E068
:101AC000A155BB4F6C5F860F8C938091CF04C82FBC
:101AD000D0E06CE070E080E090E00E943F28DC0104
:101AE000CB01C159DB4F880F991F8D539E4FFC01CD
:101AF0008081918164E070E00E94D52B685F6883EB
:101B00008091CF04C82FD0E06CE070E080E090E0DE
:101B10000E943F28DC01CB01C157DB4F880F991F82
:101B200085529E4FDC018D919C9164E070E00E9493
:101B3000D52B685F68830091AD031091AE036CE014
:101B400070E080E090E00E943F28DC01CB01015969
:101B50001B4F880F991F8D539E4FFC0180819181EF
:101B600062E070E00E94D52B685FD8016C93009111
:101B7000AD031091AE036CE070E080E090E00E9455
:101B80003F28DC01CB0101571B4F880F991F85525D
:101B90009E4FFC018081918162E070E00E94D52B14
:101BA000685FD8016C934091AD035091AE03BA01C8
:101BB00061597B4FFB0120818091CF04A82FB0E0B9
:101BC000FD01E159FB4F8081281779F4EA01C157E3
:101BD000DB4F9881FD01E157FB4F8081981729F475
:101BE0002195FB01208391959883A155BB4F8C9142
:101BF000883058F462E070E080E090E00E943F2876
:101C00006130710581059105B1F58091CF04C82F30
:101C1000D0E06CE070E080E090E00E943F28DC01C2
:101C2000CB01C159DB4F880F991F8D539E4FDC01AB
:101C30008D919C9162E070E00E94D52B685F688373
:101C40008091CF04C82FD0E06CE070E080E090E09D
:101C50000E943F28DC01CB01C157DB4F880F991F41
:101C600085529E4FFC018081918162E070E00E946C
:101C7000D52B685F6883E091AD03F091AE03E15529
:101C8000FB4F8081883058F462E070E080E090E0A3
:101C90000E943F286130710581059105C1F50091D1
:101CA000AD031091AE036CE070E080E090E00E9424
:101CB0003F28DC01CB0101591B4F880F991F8D5321
:101CC0009E4FDC018D919C9162E070E00E94D52BCB
:101CD000685FF80160830091AD031091AE036CE082
:101CE00070E080E090E00E943F28DC01CB010157CA
:101CF0001B4F880F991F85529E4FDC018D919C913F
:101D000062E070E00E94D52B685FF80160839091DB
:101D1000CF0480E0903208F481E0890F8093CF04F3
:101D20003BC061506093CF04262F30E0AE0141519B
:101D30005C4FD901AA0FBB1FFD01E151FC4F80810F
:101D40009181FA0191838083C15DDB4FA15DBB4F1F
:101D50008D919C9199838883D801A155BB4FF9013E
:101D6000E155FB4F80818C93D801A159BB4FF901FC
:101D7000E159FB4F80818C9301571B4F21573B4FFB
:101D8000D9018C91F8018083662331F42CE330E093
:101D90003093AA032093A9034091AD035091AE0361
:101DA000DA01AA0FBB1FFD01E151FC4F0190F08148
:101DB000E02D8091D204282F30E0C9018E0F9F1FA3
:101DC000893B9105C4F08091D10490E0E80FF91FA0
:101DD000E85EF14084F4A15DBB4FED91FC912E0FC4
:101DE0003F1F293431053CF0E80FF91FE853F1405B
:101DF00014F41092C4034F5F5F4F5093AE034093AF
:101E0000AD03C091AD03D091AE038091CF0490E0BB
:101E1000C817D9070CF4B8CBDF91CF911F910F9160
:101E2000FF90EF90DF90CF90BF90AF909F908F90FA
:101E30007F906F905F904F903F902F900895CF923A
:101E4000DF92EF92FF920F931F93CF93DF938091D6
:101E5000A80390E00296880F991F8093CF048134E5
:101E600018F080E48093CF045FEEC52E53E0D52EAA
:101E70004FE2E42E44E0F42E00E010E056C060E4AF
:101E800071E080E090E00E943F28EB01613A71052B
:101E900014F0C054DE4F60E870E080E090E00E94F3
:101EA0003F28D601CD93DD936D01F70161937193C6
:101EB0007F0164E070E080E090E00E943F28F8013C
:101EC000E155FB4F608364E070E080E090E00E94A9
:101ED0003F28DC01CB01F801E159FB4F880F991F26
:101EE0008D539E4FDC018D919C9164E070E00E94C7
:101EF000D52B685F60836CE070E080E090E00E942A
:101F00003F28DC01CB01F801E157FB4F880F991FF7
:101F100085529E4FDC018D919C9164E070E00E949F
:101F2000D52B685F60830F5F1F4F8091CF0490E0D7
:101F3000081719070CF4A3CF82E08093C3038CE940
:101F400093E06AE071E00E940F2988E28093EC033D
:101F50001092ED03DF91CF911F910F91FF90EF90C1
:101F6000DF90CF9008951F938091C303813009F0D3
:101F70005DC18091AB039091AC038F5F9F4F09F0DF
:101F80004AC18091BF039091C0032091B903309161
:101F9000BA03820F931F9093BA038093B903E09121
:101FA000C103F091C2032091BB033091BC03E20F47
:101FB000F31FF093BC03E093BB0368E070E00E9462
:101FC000D52B162FCF0168E070E00E94D52B462F4D
:101FD0008091BD039091BE039C01B3E0220F331F9B
:101FE000BA95E1F7280F391F265C3E4F84E693E04F
:101FF000612F0E9421168EEA92E065E040E00E9487
:10200000EC12882309F45EC088E090E060E070E0A4
:102010000E941B042091BD033091BE03220F331F89
:10202000F901ED57FE4F8081918168E070E00E94D8
:10203000D52BFB018091BF039091C003E80FF91FDE
:10204000F093C003E093BF032D553E4FD9018D910E
:102050009C9168E070E00E94D52B8091C103909123
:10206000C203680F791F7093C2036093C10339974D
:1020700034F088E090E09093C0038093BF03809198
:10208000BF039091C003885F9F4F34F488EF9FEFA8
:102090009093C0038093BF036930710534F088E0EA
:1020A00090E09093C2038093C1038091C10390910B
:1020B000C203885F9F4F34F488EF9FEF9093C20371
:1020C0008093C1038EEA92E063E040E00E94EC124C
:1020D000882301F160E572E080E090E00E943F28F3
:1020E000685D7F4F7093BA036093B90360E371E05A
:1020F00080E090E00E943F28685D7F4F7093BC03B2
:102100006093BB031092C0031092BF031092C203EE
:102110001092C1038EEA92E060E040E00E94EC126F
:10212000882391F02091BD033091BE03C90101972E
:102130009093BE038093BD0397FF06C0215F3F4F7E
:102140003093BE032093BD038EEA92E062E040E04C
:102150000E94EC12882369F08091BD039091BE0328
:10216000019660E170E00E94D52B9093BE038093AE
:10217000BD038EEA92E064E00E94E212882309F433
:102180004CC01091E903143008F047C0412F50E0D3
:10219000A091BD03B091BE03AA0FBB1FFD01ED5777
:1021A000FE4F608171819A01220F331FF901EB52BA
:1021B000FC4F71836083AD55BE4F0D90BC91A02D37
:1021C000F901E352FC4FB183A083F901EB53FC4FBB
:1021D0008091B9039091BA034096860F971F91831F
:1021E000808323533C4F8091BB039091BC03409666
:1021F0008A0F9B1FD9018D939C934B515C4FFA0121
:1022000010821F5F1093E90380E090E060E070E0CF
:102210000E941B0402C00E94FB068091AD039091B6
:10222000AE0301969093AE038093AD038091B90302
:102230009091BA03FFEF883C9F0734F488569D4F76
:102240009093BA038093B9038091B9039091BA0334
:1022500022E08939920734F0885992409093BA036A
:102260008093B9038091BB039091BC03AFEF883C8E
:102270009A0734F488589E4F9093BC038093BB0315
:102280008091BB039091BC03B1E089379B0734F088
:10229000885791409093BC038093BB038091C40303
:1022A000813011F48093C3038EEA92E066E00E94CD
:1022B000E212882371F084EA92E060E173E048E67C
:1022C00050E00E94B11B8CE993E062E771E00E944C
:1022D0000F291F91089584EA92E00E94F81A88233A
:1022E00009F452C08CE993E06CE471E00E94692823
:1022F000882311F00E94AD078CE993E062E171E060
:102300000E946928882311F00E941F0F8CE993E036
:102310006AE071E00E946928882311F00E947A0720
:102320008CE993E06BE171E00E9469288823C1F099
:102330000E94B30F0E94BD050E94AA0A0E94600776
:102340000E94310A0E9443090E94A9040E94A90820
:102350000E9431050E9488040E949C060E9470041D
:102360008CE993E062E771E00E946928882311F00C
:102370000E94CF078CE993E061E071E00E94692838
:10238000882311F00E94640808950F931F9304EAB4
:1023900012E0C8010E94141DC80169E10E94E518FD
:1023A000C8016BE173E048E650E00E94B11BC80130
:1023B0000E94AD1A8CE993E062E771E00E940F2958
:1023C0001092BC021F910F910895882319F48CB5C7
:1023D000806202C08CB58F7D8CBD08959CB5937FC3
:1023E000982B9CBD08952CB5382F33702C7F322B41
:1023F0003CBD2DB590E09595879595958795817015
:102400002E7F822B8DBD08958AE061E00E94E12538
:102410008AE061E00E94A2258CB580618CBD8CB5FC
:1024200080648CBD8DE061E00E94A2258BE061E0BC
:102430000E94A2250895FC0181E08083089585E033
:1024400070E00E94422508956F927F928F929F9232
:10245000AF92BF92CF92DF92EF92FF920F931F93B2
:10246000CF93DF93EC0189819A818C0124E0000FE6
:10247000111F2A95E1F7081B190B85E10E94202501
:10248000BC01600F711F84E0769567958A95E1F72E
:102490007A8369838881882381F12E813F81621745
:1024A000730710F4B90106C08885998586179707C8
:1024B00008F4BC0100D000D080E090E040E050E0A3
:1024C000E884F98400E010E0AD80BB24CC24DD2456
:1024D0006C80772488249924EDB7FEB761827282DC
:1024E000838294820E94F6276B830F900F900F9047
:1024F0000F9085E070E00E944225DF91CF911F91FF
:102500000F91FF90EF90DF90CF90BF90AF909F9092
:102510008F907F906F900895FC018CE39FE09383F0
:10252000828384E0818381E084870895CF93DF9361
:10253000EC018C8590E08F719070892B69F584E1B6
:102540000E942025AA2797FDA095BA2FBC01CD0196
:102550000E94A72A26EE3FE34EEC50E40E94332B64
:102560000E94792A9B01AC017B836A836115710506
:1025700089F084E08983B901FE0120E0848195819E
:102580006817790710F429830AC02F5F3296243028
:10259000A9F702C08FEF89838C858F5F8C87DF91CD
:1025A000CF910895FC0188E0808389E0818387E0F2
:1025B000828386E0838384E0848382E0858381E173
:1025C0008683089520E0FC01E60FF11D87818130AC
:1025D00009F421E0822F0895E62FF0E0423040F424
:1025E00020E0E80FF91F878181508E3F88F40FC0EB
:1025F000E80FF91F87818F3F11F420E009C020E028
:1026000090E0642F70E00E94C12B019709F421E053
:10261000822F08950F931F93CF93DF93EC0110E067
:102620000FEF888162E00E94A22588810E943526F2
:102630002F81892B19F42F5F2F8307C0222349F0A4
:102640002F3F11F41F8201C00F83888160E00E9438
:10265000A2251F5F2196173021F7DF91CF911F919F
:102660000F910895FC01678F60A30895FC01678FA7
:1026700040A30895FC016435A8F547FD33C04033FD
:102680008CF5878D942F959595959595772767FD72
:1026900070954770882399F0E4E59E02F0011124BB
:1026A000E60FF71FEC51FB4F81E090E002C0880F6E
:1026B000991F4A95E2F72081282B20830895E4E5AD
:1026C0009E02F0011124E60FF71FEC51FB4F81E051
:1026D00090E002C0880F991F4A95E2F7809520810B
:1026E000282320830895AF92BF92CF92DF92EF927A
:1026F000FF920F931F93CF93DF93EC01162FF42ECD
:10270000E22EAA24402F552747FD50958F2D99275B
:1027100087FD9095481B590B57FF03C05095419575
:102720005F4F2E2D332727FD3095812F992787FD69
:102730009095281B390B37FF03C0309521953F4FEB
:102740002417350744F4AA24A3948F2DF12E182FB3
:10275000802F0E2DE82EE11634F48E2DE12E182F49
:10276000802F0F2DF82EDE2CD11A202F332727FD96
:1027700030958F2D992787FD9095281B390B37FFB2
:1027800003C0309521953F4FB22EF0161CF0CC249B
:10279000CA9402C0CC24C3948D2DD7FC8F5F082F20
:1027A000059511C0AA2021F0CE016F2D412F03C045
:1027B000CE01612F4F2D0E943A130B1907FF02C063
:1027C000FC0C0D0D1F5FE1166CF7DF91CF911F918F
:1027D0000F91FF90EF90DF90CF90BF90AF90089552
:1027E0000F93042F322F262F2150230F0E94731393
:1027F0000F9108950F93362F042F0150020F232FAE
:102800000E9473130F9108959F92AF92BF92CF923F
:10281000DF92EF92FF920F931F93CF93DF936C01A0
:10282000B62E942EA02EC0E0D0E0E62EFF24E7FCCA
:10283000F094022F112707FD10950E0D1F1D06C0E5
:10284000C601492D2A2D0E94FA1321966B2D6C0F7B
:10285000CE018E0D9F1D8017910794F3DF91CF91CC
:102860001F910F91FF90EF90DF90CF90BF90AF90AE
:102870009F900895CF92DF92EF92FF920F931F9354
:102880007C01162FD42EC22E0E94F0134D2D4150E4
:10289000400FC701612F2C2D0E94F013C701612F3B
:1028A0004D2D202F0E94FA1311501C0DC701612FCE
:1028B0004D2D202F0E94FA131F910F91FF90EF9042
:1028C000DF90CF9008952F923F925F926F927F9208
:1028D0008F929F92AF92BF92CF92DF92EF92FF9230
:1028E0000F931F93DF93CF9300D000D000D0CDB7CC
:1028F000DEB79E838D83C62ED42EEE24E394E21A97
:102900008EEF289F502C1124842E8A94962E9A9410
:10291000A42EA394B62EB394F22E662423E0722E36
:1029200010E0C801847090709A838983F801E27086
:10293000F070FC83EB8398E0292E312C2022312289
:102940000170107054C0E7FC04C0FA94F2E05F0E0E
:10295000E50C639489819A81892B71F04F2D4D0D7F
:102960008D819E816B2D0E943A136F2D6C0D8D8190
:102970009E814A2D0E943A13EB81FC81EF2B71F06E
:102980004D2D4F198D819E816B2D0E943A136F2D15
:102990006C0D8D819E81482D0E943A1321143104C3
:1029A00071F06C2D6F198D819E814A2D0E943A1312
:1029B0004F2D4D0D8D819E81692D0E943A13011579
:1029C000110571F06C2D6F198D819E81482D0E942B
:1029D0003A134D2D4F198D819E81692D0E943A1316
:1029E000E70CF2E07F0E8A949A94A394B3946F1448
:1029F0000CF4A9CF26960FB6F894DEBF0FBECDBF5C
:102A0000CF91DF911F910F91FF90EF90DF90CF90CA
:102A1000BF90AF909F908F907F906F905F903F900E
:102A20002F9008954F925F926F927F928F929F9214
:102A3000AF92BF92CF92DF92EF92FF920F931F93CC
:102A4000CF93DF93EC01A62E742E9E2DFF24F394DA
:102A5000F21A8EEF289F802C1124B42EBA9453E0E2
:102A6000C52ECE0CE22EDD2443E0942E10E031E0A2
:102A7000432E512C40225122692E63940270107013
:102A800034C0F7FC04C0EA9482E0880EF80CD394BA
:102A90004114510489F06D2D6A0D472D4E192E2DCC
:102AA000220F260DCE010E94FA136E2D6A0DCE0163
:102AB0004B2D2C2D0E94FA130115110589F06A2D5A
:102AC0006D19472D4E192E2D220F260DCE010E9475
:102AD000FA136A2D6E19CE014B2D2C2D0E94FA137C
:102AE000F90C82E0980EBA94C80EDE1454F2DF910D
:102AF000CF911F910F91FF90EF90DF90CF90BF90FB
:102B0000AF909F908F907F906F905F904F900895BF
:102B10007F928F929F92AF92BF92CF92DF92EF926D
:102B2000FF920F931F936C01962EA42EF22E7E2CF3
:102B3000760E1EEFE19E102D1124812E820E672D40
:102B4000282D0E94F013B02EBA0CBA94C601672D3E
:102B50004B2D282D0E94F013AE0C100FC601692DCD
:102B60004A2D212F0E94FA13F90CFA94C6016F2DF9
:102B70004A2D212F0E94FA13C601672D4A2D2E2DB2
:102B800001E00E946314FE18C6016F2D4A2D2E2D00
:102B900002E00E946314BE18C6016F2D4B2D2E2D2E
:102BA00004E00E946314C601672D4B2D2E2D08E012
:102BB0000E9463141F910F91FF90EF90DF90CF90D0
:102BC000BF90AF909F908F907F9008958F929F922B
:102BD000AF92BF92CF92DF92EF92FF920F931F932B
:102BE0006C01162FA42E922EF02EBE2C8E2C860E4B
:102BF0002EEFE29EE02C11242E2D290D682D0E942F
:102C00000414AB0CFA94FE0C1150190D1B19C601DB
:102C1000612F4A2D2B2D01E0EF2C0E941215C601C9
:102C2000682D4A2D2B2D02E00E9412151F910F9145
:102C3000FF90EF90DF90CF90BF90AF909F908F90DC
:102C400008953F924F925F926F927F928F929F92E0
:102C5000AF92BF92CF92DF92EF92FF920F931F93AA
:102C6000CF93DF934C01362E442EF901A490319678
:102C700054906F010894C11CD11C8A2D992787FD9F
:102C80009095079668E070E00E94D52BE62EFF2411
:102C9000E7FCF09400E0C0E0D0E060E8662E712C24
:102CA00026C0E12FE595E595E595FF27E7FDF09531
:102CB000EC0FFD1FEC0DFD1DE4912E2F30E0812F58
:102CC0008770A30102C0559547958A95E2F72423A2
:102CD0003523232B31F0612F630DC4014B2D0E944E
:102CE0003A131F5F1A15ECF20F5FCE0DDF1D0515AD
:102CF00024F410E0B02EB40CF5CFDF91CF911F91EA
:102D00000F91FF90EF90DF90CF90BF90AF909F908A
:102D10008F907F906F905F904F903F9008953F927B
:102D20004F925F926F927F928F929F92AF92BF92DB
:102D3000CF92DF92EF92FF920F931F93CF93DF9387
:102D4000EC01862EA42E422F102F3F8C23E5261750
:102D50000CF4ABC03FE23A150CF4A7C0C02EDD2442
:102D60008C8190E001979C01C29EC001C39E900D92
:102D7000D29E900D1124262F332727FD3095820FE8
:102D8000931F181619060CF090C08D8190E09C01DD
:102D9000C29EC001C39E900DD29E900D11242A2D7B
:102DA000332727FD3095820F931F181619060CF054
:102DB0007CC09924442E55246DC09C012150304084
:102DC0004217530711F460E00EC0429EC001439EBB
:102DD000900D529E900D1124840F951FED8DFE8D48
:102DE000E80FF91F64914C9DC0014D9D900D5C9DB5
:102DF000900D1124682C680EBB24792C780C3FC0F0
:102E0000E62EFF2460FF19C0113039F44B2D4A0D16
:102E1000CE01672D0E943A132EC02C9DC0012D9D1E
:102E2000900D3C9D900D11244A2D480FCE01662D2A
:102E3000212F012F0E9404141EC098A18F8D981776
:102E4000D1F09F8F113039F44B2D4A0DCE01672DF3
:102E50000E943A130FC02C9DC0012D9D900D3C9DEA
:102E6000900D11244A2D480FCE01662D212F012FE0
:102E70000E9404143F8EF594E7946E2DB3942B2D8D
:102E8000332727FD30958D8190E0281739070CF402
:102E9000B7CF9394492D552747FD50958C8190E0ED
:102EA000481759070CF489CF3F8EDF91CF911F91BE
:102EB0000F91FF90EF90DF90CF90BF90AF909F90D9
:102EC0008F907F906F905F904F903F9008950F93F9
:102ED000CF93DF93EC01262F6A3049F48D819885DA
:102EE000899F802D11249A85980F9A8726C06D306E
:102EF00029F169854A8508850E948F169C8168851D
:102F0000969F402D11248985480F49878F818823FA
:102F1000A9F0552747FD5095699F9001112484E53C
:102F200090E0821B930B8417950744F49D81699F61
:102F3000902D11248A85890F8A87198681E090E077
:102F4000DF91CF910F9108951F93CF93DF93EC0101
:102F5000162FF8948E8560E00E94E1258F85181663
:102F60001CF460E00E94E1251EBD0DB407FEFDCFFC
:102F70008EB58F8518161CF461E00E94E1257894C7
:102F8000DF91CF911F910895FF920F931F93CF93DD
:102F9000DF93EC01FF2400E010E06F2D6064CE01B0
:102FA0000E94A417CE0160E80E94A4178E8561E0FC
:102FB0000E94E1258F8518161CF460E00E94E1252F
:102FC000F801EC51FB4F90E080818EBD0DB407FEFF
:102FD000FDCF8EB59F5F31969435B1F78F8518166A
:102FE0001CF461E00E94E125F3940C5A1F4F86E027
:102FF000F81699F6CE0160E40E94A417DF91CF91F4
:103000001F910F91FF900895CF93DF93DC0188EF1C
:1030100091E0E4EEF4E0EF019C0119922150304080
:10302000E1F719961C9219971A961C92DF91CF918D
:103030000895EF920F93CF93DF93EC014D876C8748
:103040002E87E88A0F8781E088878F8F18A28F8369
:10305000E6E2F3E084918F5F8C83319684918F5FF9
:103060008D833196FE8FED8F0E94041281E00E94C5
:10307000E51185E00E94F3118CE00E94EE118D8530
:1030800061E00E94A2258C8561E00E94A2258E85C8
:1030900061E00E94A225888918161CF461E00E9454
:1030A000A2258F8518161CF461E00E94A22588894C
:1030B00018166CF460E00E94E1256AE070E080E0A0
:1030C00090E00E948C24888961E00E94E125EC85D3
:1030D0002E2F332727FD3095F901E05BF94FE4915E
:1030E000F0E0EE0FFF1FE45CF94F859194919C8B0B
:1030F0008B8B2C59394FF90184918A8FED852E2FB6
:10310000332727FD3095F901E05BF94FE491F0E0BA
:10311000EE0FFF1FE45CF94F859194919A8B898B98
:103120002C59394FF9018491898FEF852E2F332740
:1031300027FD3095F901E05BF94FE491F0E0EE0FE7
:10314000FF1FE45CF94F859194919E8B8D8B2C59D8
:10315000394FF90184918B8FEE852E2F332727FD70
:103160003095F901E05BF94FE491F0E0EE0FFF1FBD
:10317000E45CF94F85919491988F8F8B2C59394F3E
:10318000F90184918C8FCE0161E20E94A417CE01D7
:1031900064E10E94A4178B8587FF02C08FE78B87AD
:1031A0006B856068CE010E94A417CE0160E20E9488
:1031B000A417CE016CE00E94A417CE010E94C41790
:1031C000DF91CF910F91EF900895FC01262FE051F0
:1031D000FF4F88EE93E070E00E94D52B6083E05FA4
:1031E000F040822F64E10E94B52B85AB0895CF9308
:1031F000DF93DC01E0E8FFE685919491ED01C55392
:10320000DF4FAD014F515F4F8150904C09F04EC0E0
:10321000E6E9FFE6E491E883E7E9FFE6E491149646
:10322000EC931497E8E9FFE6E4911596EC93159773
:10323000E9E9FFE68591949117969C938E931697F2
:10324000EBE9FFE68591949119969C938E931897DC
:10325000EDE9FFE6E491D796EC93D797EEE9FFE628
:10326000E491D696EC93D697EFE9FFE6E491EA0174
:10327000E883E0EAFFE6859194915D969C938E93B6
:103280005C97E2EAFFE6859194915F969C938E931A
:103290005E97E4EAFFE68591949191969C938E93D4
:1032A0009097E6EAFFE68591949132C08CE388839B
:1032B00014961C9214972FEF15962C93159780E275
:1032C00093E017969C938E93169784ED93E019964E
:1032D0009C938E93189781E0D7968C93D797D69628
:1032E0008C93D697FA0120838CEA9DE05D969C939F
:1032F0008E935C978EED9DE05F969C938E935E9788
:1033000084E79EE091969C938E9390978CE39FE048
:1033100093969C938E939297DF91CF910895EF921D
:10332000FF920F931F93CF93DF937C018C01005486
:103330001F4FC8010E940418C8016DEC74E00E9480
:10334000C126C8010E94C41783E00E94F31188E7D8
:1033500091E0EEEFFFE3099586EC90E0E80EF91EB0
:10336000F7011082C80168EA74E00E940C27C801C6
:103370000E94C417E701CC5BD040CE010E940A1323
:10338000CE0164E00E94E212882339F462E370E027
:1033900080E090E00E948C24F0CFDF91CF911F91CC
:1033A0000F91FF90EF9008950F931F93CF93DF93AA
:1033B000EC018C0100541F4FC80161E040E00E9405
:1033C0003613FE01E753FF4FCC53DF4F85E598815D
:1033D000891B808326961882CA5CD040698D613033
:1033E00081F1613028F0888D653008F043C03DC020
:1033F000CE0185960E94701ECE0160E00E941F12D1
:10340000C8010E940418C853DF4F81E08883C801B7
:1034100065EF74E00E94C126C8010E94C41783B7FB
:10342000817F846083BF83B7816083BF83B78160FE
:1034300083BF889583B78E7F83BF83B78E7F83BF1B
:103440001FC0CE51DF4F88819981AA81BB818F70C7
:103450009070A070B0700897A105B10518F4C8016C
:1034600067E00CC0C80168E709C0882349F06B5FBA
:10347000C80104C0882321F0C8016FE20E94E4263D
:10348000DF91CF911F910F910895AF92BF92CF928C
:10349000DF92EF92FF920F931F93CF93DF93EC0194
:1034A000C950DF4F8881C75FD040882309F44AC0E4
:1034B0008C3010F010E002C01CE0181BC853DF4F26
:1034C00081E08883C85CD04060ECC62ED12CCC0E45
:1034D000DD1EC60160E00E94321355ECA52EB12C12
:1034E000AC0EBD1EF50100814DE2F42E4F2D401BA8
:1034F000410F0D5FC60160E024E533E0E32E0E943A
:10350000E615C60161E00E943213F5010081F01A50
:10351000F10E0D5FC60160E04F2D24E50E94881575
:10352000C753DF4F84E08993F5018081181B115D3B
:103530001883AB9669917991C6010E94C126888152
:1035400081508883DF91CF911F910F91FF90EF9071
:10355000DF90CF90BF90AF9008954F925F926F929F
:103560007F928F929F92AF92BF92CF92DF92EF9213
:10357000FF920F931F932C01FC01628C738C60945B
:103580007094882499240E9466245B016C010E9437
:1035900066247B018C01F201418052800E946624E6
:1035A000460E571EA094B094C094D094E094F0942A
:1035B00000951095C601B501A80197010E94962BB0
:1035C000A40193010E94962B460E571EC2010E9431
:1035D00061281F910F91FF90EF90DF90CF90BF90E7
:1035E000AF909F908F907F906F905F904F900895D5
:1035F000AF92BF92CF92DF92EF92FF920F931F9301
:10360000CF93DF93EC01E1EFAE2EB12CA80EB91EE3
:10361000F501E080F180028113810E945824E61AAE
:10362000F70A080B190B70EFC72ED12CCC0EDD1E3C
:10363000F601808190E0A0E0B0E08E159F05A00724
:10364000B10708F081C08E0104511F4FF80180813D
:103650009181A281B3810097A105B10509F474C0DD
:103660000E945824F6012081620F711D811D911D59
:10367000F5016083718382839383FE01EE51FF4FD6
:1036800080819181A281B3810196A11DB11D8083AA
:103690009183A283B383F801108211821282138274
:1036A0000E946624C851DF4F688379838A839B8395
:1036B000C85ED040CE010E942412CE010A960E941C
:1036C0000A13CE0148960E94961281E032C08E0104
:1036D0000B5D1F4FC8010E94F31EC8010E94D71F37
:1036E000C8010E945321CE010E94451ACE010E94BA
:1036F000D4198E0100541F4FC8010E94C417CA5329
:10370000DF4F8881C65CD040882319F4C8010E942D
:1037100004180E946624C451DF4F688379838A832A
:103720009B83249728813981621B730B7A936A9358
:1037300080E0DF91CF911F910F91FF90EF90DF908C
:10374000CF90BF90AF900895C451DF4F8881998189
:10375000AA81BB81CC5ED0400097A105B10541F79D
:10376000B6CF2F923F924F925F926F927F928F923D
:103770009F92AF92BF92CF92DF92EF92FF920F9300
:103780001F93DF93CF93CDB7DEB72B970FB6F89487
:10379000DEBF0FBECDBF9B878A877A8369835C8338
:1037A0004B838C010F511F4FF8018081882309F44E
:1037B00022C18A859B8588539F4F9B878A8781E09A
:1037C000EA85FB85808312921292E65CF040FB87CB
:1037D000EA87108E90ECE92EF12CEE0EFF1EC70149
:1037E00061E00E9432138AE0282E312C8A859B8565
:1037F000280E391EB5E26B2E712C680E791EE981F8
:10380000FA81F491FD83A9EC8A2E912C880E991EE1
:10381000FAECCF2ED12CC80ED91EE4EC4E2E512C32
:10382000480E591E8B539F4F9F838E8372EEA72E97
:10383000B12C8A859B85A80EB91E198708878A85B1
:103840009B850E94F81A8823D1F39D81992311F456
:1038500010E003C0EE81FF811081C70160E040E00D
:1038600021E435E00E9421168B819C81892B41F057
:10387000145FC70160E0412F2B813C810E9421161B
:10388000F40110828CE0F6018083C70169817A819E
:103890000E94C126F201208130E0C901880F991FE2
:1038A000820F931F909581959F4F8D5AF4018083CD
:1038B000EE81FF81208130E0C901880F991F820FBE
:1038C000931F909581959F4F835DF6018083F5014D
:1038D000808184FF04C0C70161EC75E003C0C701AB
:1038E0006DEB75E00E940C27F201208130E0C901E8
:1038F000880F991F820F931F909581959F4F8D5A26
:10390000F4018083F60180818F5F8083EA85FB85E7
:1039100086A9882321F0C70169EB75E003C0C701C0
:1039200065EB75E00E940C27F201808190E09C011C
:10393000220F331F280F391F309521953F4F2D5AE5
:10394000F4012083F60180818F5F8083C70161EBE2
:1039500075E00E940C27C10165E00E94E2128823F5
:1039600051F0EA85FB8566A96F5FC3010E9468225A
:10397000C3010E946222C10164E00E94E212882316
:1039800099F4E885F9856081262F30E040E050E029
:10399000F50180819181A281B38182179307A407E9
:1039A000B50708F16F3FF9F08A859B858F519F4FCE
:1039B0009B878A878FEFEA85FB858083E15EF040F5
:1039C000FB87EA87C30160E00E94601EC3010E947A
:1039D0005C2281E0EA85FB85808F0DC08A859B850E
:1039E0000E948F192CCFC10166E00E94E212882349
:1039F00009F425CFF3CF2B960FB6F894DEBF0FBE98
:103A0000CDBFCF91DF911F910F91FF90EF90DF908D
:103A1000CF90BF90AF909F908F907F906F905F906E
:103A20004F903F902F900895AF92BF92CF92DF9228
:103A3000EF920F93CF93DF936C0180EF90E0C80E6D
:103A4000D91E82E3F601808381E090E0A0E0B0E03F
:103A5000B293A293929382936F0185EF9FEFC80E6A
:103A6000D91E8FEFF60180838FE19FEFC80ED91E1C
:103A7000C6010E94F718C6010E941B12C6016FEF13
:103A80000E941F124AE0A42EB12CAC0CBD1CC50133
:103A90000E94D212C5010E940A13C60148960E94D4
:103AA0008C12C60180549F4F6DE04BE020E10FE087
:103AB0003EE0E32E0E941918E601A596CE010E9471
:103AC0007522C50165E00E94E212882329F0CE012B
:103AD00060E00E94682218C0CE0167EC75E040E00B
:103AE0000E94851ECE0167EC75E041E00E94851EB4
:103AF000CE0167EC75E042E00E94851ECE0167ECC6
:103B000075E043E00E94851EDF91CF910F91EF9009
:103B1000DF90CF90BF90AF9008950F93CF93DF9336
:103B2000DC01043008F05AC0623009F443C063304D
:103B300030F4662359F0613009F050C00DC0633095
:103B400009F43EC0643009F049C040C0A00FB11D67
:103B5000A15BBF4F4C9342C0602F70E0EB01CC0FD4
:103B6000DD1FC80FD91F842F90E0880F991F2BA944
:103B70003CA9280F391FF90185919491CD58DF4F49
:103B800099838883FC0145915491042FFD01E60F30
:103B9000F71FE558FF4F4083252F3327842F90E0F0
:103BA0002817390708F4052FA60FB71FA158BF4FD4
:103BB0000C9314C0FC01E00FF11DE55AFF4F0BC040
:103BC000FC01E00FF11DED59FF4F05C0FC01E00FB6
:103BD000F11DE559FF4F408334962083DF91CF914B
:103BE0000F910895CF93DF93EC012430F0F4A22FCE
:103BF000B0E0FC01EA0FFB1FE95BFF4F60833496E6
:103C00004083E05CFF4F1082CD01880F991FC80FE1
:103C1000D91FCD57DF4F19821882F89781E0808332
:103C2000A052B94F8C9334961082DF91CF910895B2
:103C3000CF93DF93EC01643008F03FC0A62FB0E0D3
:103C4000FC01EA0FFB1FED5AFF4F108238971082DC
:103C5000CD01880F991FC80FD91FCD57DF4F19828B
:103C600018823C961082FD01E451F94F1082FD014B
:103C7000E851F94F1082A052B94F1C928091E00692
:103C8000882311F490E002C09091EC068091E10647
:103C9000882319F08091ED06980F8091E206882321
:103CA00019F08091EE06980F8091E306882319F0B1
:103CB0008091EF06980F9093B400DF91CF91089513
:103CC0001F93CF93DF93EC01162F643028F40E94EA
:103CD000181EC10FD11D1C82DF91CF911F91089535
:103CE0000F931F938C0160E00E94601EC80161E089
:103CF0000E94601EC80162E00E94601EC80163E06D
:103D00000E94601E1F910F910895EF92FF921F93E2
:103D1000CF93DF93EC017B01142F4430F0F4642F38
:103D20000E94601E812F90E0FC01EE0FFF1FEC0F40
:103D3000FD1FF4A6E3A6FF9611821082FE01E80F94
:103D4000F91F81E08483E15BFF4F89E080833C962B
:103D500010823896108238961082DF91CF911F9191
:103D6000FF90EF9008951F93CF93DF93AC01162F30
:103D70006430A8F5262F30E0EC01C20FD31F8881F4
:103D8000882369F18C81882351F5D901AA0FBB1FC3
:103D9000A40FB51F8B8D90E0880F991F5396ED915E
:103DA000FC915497E80FF91F859194912FEF8F3F65
:103DB000920711F4188213C09FA390E0880F991FF7
:103DC0005F96ED91FC919097E80FF91F65917491C2
:103DD000CA01412F0E94851E8B8D8F5F8B8FDF91D3
:103DE000CF911F9108950F931F938C0160E00E9463
:103DF000B31EC80161E00E94B31EC80162E00E94C8
:103E0000B31EC80163E00E94B31E1F910F91089575
:103E10006F927F929F92AF92BF92CF92DF92EF927A
:103E2000FF920F931F93CF93DF937C01962E23E095
:103E3000261708F4AEC0C62EDD24DC01AC0DBD1D76
:103E400014968C911497882309F4A3C0A55BBF4FE7
:103E50008C91AB54B040882309F09BC05601AA0C4A
:103E6000BB1CAE0CBF1C8501015C1F4FE801E88143
:103E7000F981EE0FFF1FE5014BA55CA5E40FF51FCF
:103E8000259134912115310509F047C0DB968C91BD
:103E9000DB97813039F4F80111821082FA01259103
:103EA00034913BC014961C9214978C91882381F016
:103EB000C7010E94B31ED8018D919C91880F991F54
:103EC000E501EBA5FCA5E80FF91F2591349125C06C
:103ED000C7010E94181E5DC0E6E036952795EA9559
:103EE000E1F76F70422F4F7175E0369527957A95FF
:103EF000E1F72051C701092D0E948D1D888199810C
:103F0000019699838883880F991FD501ED91FC91C3
:103F1000E80FF91F259134910DC03601660C771C0E
:103F2000C701860D971DEC01EF964BE2A42EB12C34
:103F3000A80EB91EB901769567957695679520FD0F
:103F4000CBCFF701EC0DFD1DE95BFF4F862F8F7383
:103F5000808334963083E05CFF4F1082D701A60D3A
:103F6000B71DAD57BF4F11961C921E92F89781E076
:103F70008083C0EED6E0CC0EDD1EE6018883349649
:103F80001082A454B0408D919C91119701968D930D
:103F90009C93DF91CF911F910F91FF90EF90DF9055
:103FA000CF90BF90AF909F907F906F9008950F93A8
:103FB0001F938C0160E00E94081FC80161E00E940D
:103FC000081FC80162E00E94081FC80163E00E9448
:103FD000081F1F910F910895DF92EF92FF920F93A8
:103FE0001F93CF93DF937C01D62E43E0461708F44E
:103FF00052C1062F10E0DC01A00FB11FAD5ABF4F18
:104000008C91A355B040882309F445C1FD01E55BBF
:10401000FF4F8081882321F4C7010E94181E3BC1F5
:1040200081508083BD0165577F4FFB0180818823CC
:1040300009F052C0F801EE0FFF1FEE0DFF1DEF015A
:10404000CD57DF4F888199810196880F991FED58D0
:10405000FF4F0190F081E02DE80FF91F2591349179
:10406000A157BF4F822F87708C93A901F3E056951B
:104070004795FA95E1F7CA01969587951496232FEF
:104080003327269526952C938F73F7012089829FDD
:10409000802D1124FB018083F801E051F94F41701C
:1040A00040838881998101969983888358972C91C0
:1040B000AB57B04030E08217930770F0A158BF4F64
:1040C0008C91882329F0281B31093983288304C067
:1040D000C7016D2D0E94181EE701C00FD11FFE0100
:1040E000E557FF4F808181508083FE01E95AFF4FE1
:1040F00090819F5F9083FE01ED56FF4FC95BDF4FBC
:10410000E0818881C754D040E80F8FA1E80FE8878D
:10411000CD59DF4F6881C356D040662389F0892F7F
:10412000992787FD909570E00E94D52BC959DF4FE4
:104130008881C756D040869F802D11248E0F888796
:10414000F701E00FF11F808590E0CB966BE370E004
:104150000E94D52B8087E15BFF4F2081EF54F04018
:104160002487E55AFF4F6081EB55F0406623A1F0AC
:10417000E95AFF4F8081772767FD7095992787FD62
:1041800090950E94D52B38968081EF55F040869F00
:10419000802D1124820F8487F701E00FF11FE5596C
:1041A000FF4F6081EB56F0406623C1F0E95AFF4FA4
:1041B0008081992787FD909570E00E94D52BCB01D7
:1041C00062E070E00E94D52B78969081EF56F04027
:1041D000899F802D11249485890F8487F701E00F32
:1041E000F11F84858A300CF089E0F701E00FF11FA0
:1041F00087FD80E08487F701E00FF11FE95BFF4F47
:104200008081E754F0408F3309F41486F894A701B5
:10421000400F511FDA011896EC91F0E0E551FA4F8A
:10422000E491D801AC51B94FEC93FA0124853327BE
:1042300027FD309549565F4FDA018C9190E0F901E6
:10424000E89F9001E99F300DF89F300D1124D701B0
:1042500051968C9190E0F901E89F9001E99F300D13
:10426000F89F300D112448505040DA018C91992765
:1042700087FD9095FC012E9FC0012F9F900D3E9FC2
:10428000900D1124F801E851F94F80830451194F22
:10429000D8018C937894DF91CF911F910F91FF906B
:1042A000EF90DF9008950F931F938C0160E00E94C0
:1042B000EC1FC80161E00E94EC1FC80162E00E948F
:1042C000EC1FC80163E00E94EC1F1F910F9108953D
:1042D0006091E806662341F18091DC068F5F809350
:1042E000DC069091E4068917F8F090E08091E006F2
:1042F000882309F491E09093E0061092DC06809107
:10430000F006882379F08091F30123E4829FC001B5
:104310001124895B8093F30190E070E00E94C12B2F
:104320008093EC0621E001C020E06091E90666235D
:1043300039F18091DD068F5F8093DD069091E5066F
:104340008917F0F090E08091E106882309F491E06C
:104350009093E1061092DD068091F106882379F0B2
:104360008091F30123E4829FC0011124895B809333
:10437000F30190E070E00E94C12B8093ED0621E0F4
:104380006091EA06662339F18091DE068F5F8093A3
:10439000DE069091E6068917F0F090E08091E20643
:1043A000882309F491E09093E2061092DE06809152
:1043B000F206882379F08091F30123E4829FC00103
:1043C0001124895B8093F30190E070E00E94C12B7F
:1043D0008093EE0621E06091EB06662339F180912F
:1043E000DF068F5F8093DF069091E7068917F0F074
:1043F00090E08091E306882309F491E09093E3062E
:104400001092DF068091F306882391F08091F301EA
:1044100023E4829FC0011124895B8093F30190E023
:1044200070E00E94C12B8093EF0602C02223F9F0B6
:104430008091E006882311F490E002C09091EC0690
:104440008091E106882319F08091ED06980F809104
:10445000E206882319F08091EE06980F8091E3061A
:10446000882319F08091EF06980F9093B400089577
:104470001F920F920FB60F9211242F933F934F93D9
:104480005F936F937F938F939F93AF93BF93EF93BC
:10449000FF930E946821FF91EF91BF91AF919F918F
:1044A0008F917F916F915F914F913F912F910F90DD
:1044B0000FBE0F901F90189563EE75E040E00E94CC
:1044C000851E089565ED75E040E00E94851E089503
:1044D000FC01862F628970E06F5F7F4F992787FD0F
:1044E00090950E94D52B818B08959F92AF92BF9299
:1044F000CF92DF92EF92FF920F931F93CF93DF93B0
:10450000EC0181E0888B67E9C62ED12CCC0EDD1E34
:1045100053E3E52EF12CEC0EFD1E10E0992493944C
:1045200046E2A42E46E0B42EF60191926F01F70107
:10453000A192B1927F01CE0161E040E020E0012F25
:104540000E948D1D1F5F143079F783E061E070E0F9
:104550000E9442258091B100887F81608093B100E4
:10456000F8941092800010928100109285001092B1
:10457000840088E191E09093890080938800809185
:1045800081008860809381008091810081608093A8
:10459000810080916F00826080936F007894DF913A
:1045A000CF911F910F91FF90EF90DF90CF90BF9030
:1045B000AF909F9008950F931F93CF93DF93BC010B
:1045C0008230910510F462E070E0E091FF06F09116
:1045D0000007A0E0B0E040E050E024C0808191817D
:1045E00086179707D0F08617970771F48281938119
:1045F000109729F013969C938E9312972CC090934A
:1046000000078093FF0627C04115510519F0841754
:10461000950718F4EF018D01AC01DF0182819381D0
:104620009C01F9013097D1F641155105F9F0CA0105
:10463000861B970B8430910580F48A819B8101153C
:10464000110521F0F8019383828304C09093000741
:104650008093FF06FE01329645C0FE01E80FF91F68
:10466000619371930297998388833CC08091FD0682
:104670009091FE06892B41F48091F6019091F7010B
:104680009093FE068093FD064091F8015091F90148
:104690004115510541F44DB75EB78091F4019091F9
:1046A000F501481B590B2091FD063091FE06241799
:1046B0003507B0F4CA01821B930B8617970780F069
:1046C000AB014E5F5F4F8417950750F0420F531FA9
:1046D0005093FE064093FD06F9016193719302C069
:1046E000E0E0F0E0CF01DF91CF911F910F910895AD
:1046F000CF93DF939C01009709F48FC0EC012297C0
:104700001B821A826091FF06709100076115710586
:1047100081F488819981820F931F2091FD06309149
:10472000FE062817390739F5D093FE06C093FD061B
:1047300074C0DB0140E050E0AC17BD0708F1BB835B
:10474000AA83FE0121913191E20FF31FAE17BF073B
:1047500079F48D919C911197280F391F2E5F3F4F4F
:104760003983288312968D919C9113979B838A831A
:104770004115510571F4D0930007C093FF064DC059
:1047800012968D919C911397AD01009711F0DC0169
:10479000D3CFDA011396DC93CE931297FA012191CD
:1047A0003191E20FF31FCE17DF0769F488819981F9
:1047B000280F391F2E5F3F4FFA01318320838A81F2
:1047C0009B8193838283E0E0F0E0DB0112968D9180
:1047D0009C911397009719F0BC01FD01F6CFAB0136
:1047E0004E5F5F4FDB018D919C91840F951F20914F
:1047F000FD063091FE062817390779F4309729F421
:10480000109200071092FF0602C0138212824250DB
:1048100050405093FE064093FD06DF91CF910895DE
:104820001F920F920FB60F9211242F933F938F93E5
:104830009F93AF93BF938091F8069091F906A09152
:10484000FA06B091FB063091FC060196A11DB11D40
:10485000232F2D5F2D3720F02D570196A11DB11D5F
:104860002093FC068093F8069093F906A093FA062D
:10487000B093FB068091F4069091F506A091F606A0
:10488000B091F7060196A11DB11D8093F406909397
:10489000F506A093F606B093F706BF91AF919F91EE
:1048A0008F913F912F910F900FBE0F901F901895F1
:1048B0008FB7F8942091F8063091F9064091FA06E6
:1048C0005091FB068FBFB901CA0108959FB7F894B4
:1048D0002091F4063091F5064091F6065091F706C6
:1048E00086B5A89B06C08F3F21F02F5F3F4F4F4FEB
:1048F0005F4F9FBF542F432F322F2227280F311D88
:10490000411D511D82E0220F331F441F551F8A9500
:10491000D1F7B901CA0108959B01AC017FB7F894A2
:104920008091F4069091F506A091F606B091F706F5
:1049300066B5A89B05C06F3F19F00196A11DB11D7A
:104940007FBFBA2FA92F982F8827860F911DA11DF1
:10495000B11D62E0880F991FAA1FBB1F6A95D1F78E
:10496000BC012DC0FFB7F8948091F4069091F50634
:10497000A091F606B091F706E6B5A89B05C0EF3FFB
:1049800019F00196A11DB11DFFBFBA2FA92F982FB5
:1049900088278E0F911DA11DB11DE2E0880F991F80
:1049A000AA1FBB1FEA95D1F7861B970B885E934021
:1049B000C8F2215030404040504068517C4F211592
:1049C00031054105510571F60895789484B58260EA
:1049D00084BD84B5816084BD85B5826085BD85B5A3
:1049E000816085BDEEE6F0E0808181608083E1E852
:1049F000F0E010828081826080838081816080838A
:104A0000E0E8F0E0808181608083E1EBF0E080818C
:104A100084608083E0EBF0E0808181608083EAE75E
:104A2000F0E08081846080838081826080838081E7
:104A3000816080838081806880831092C1000895A6
:104A4000982F8E3008F09E5097708091FA018295D1
:104A5000880F880F807C892B80937C0080917A005E
:104A6000806480937A0080917A0086FDFCCF20914B
:104A7000780040917900942F80E030E0282B392B8A
:104A8000C90108951F93CF93DF93182FEB0161E0C5
:104A90000E94A225209709F44AC0CF3FD10509F40E
:104AA00049C0E12FF0E0E858F94F84918330C1F01C
:104AB000843028F4813051F08230B1F50CC086305A
:104AC00019F1873049F1843079F514C084B58068D4
:104AD00084BDC7BD33C084B5806284BDC8BD2EC04F
:104AE00080918000806880938000D0938900C0937B
:104AF000880024C080918000806280938000D093E1
:104B00008B00C0938A001AC08091B00080688093A7
:104B1000B000C093B30012C08091B0008062809357
:104B2000B000C093B4000AC0C038D1051CF4812F76
:104B300060E002C0812F61E00E94E125DF91CF910A
:104B40001F910895CF93DF93482F50E0CA018C59ED
:104B5000994FFC013491405B594FFA0184918823AD
:104B600069F190E0880F991FFC01EE5CF94FA59167
:104B7000B491FC01E45CF94FC591D491662351F4E2
:104B80002FB7F8948C91932F909589238C938881DB
:104B900089230BC0623061F42FB7F8948C91932F66
:104BA000909589238C938881832B88832FBF06C09F
:104BB0009FB7F8948C91832B8C939FBFDF91CF91FB
:104BC0000895482F50E0CA018858994FFC0124915C
:104BD000CA018C59994FFC019491405B594FFA01DD
:104BE0003491332309F440C0222351F1233071F072
:104BF000243028F42130A1F0223011F514C02630E1
:104C0000B1F02730C1F02430D9F404C08091800085
:104C10008F7703C0809180008F7D8093800010C0CB
:104C200084B58F7702C084B58F7D84BD09C0809123
:104C3000B0008F7703C08091B0008F7D8093B0006B
:104C4000E32FF0E0EE0FFF1FE45CF94FA591B49164
:104C50002FB7F894662321F48C919095892302C094
:104C60008C91892B8C932FBF0895682F70E0CB0116
:104C70008858994FFC012491CB018C59994FFC0124
:104C80004491605B794FFB019491992319F420E0E2
:104C900030E03CC0222351F1233071F0243028F45D
:104CA0002130A1F0223011F514C02630B1F02730A8
:104CB000C1F02430D9F404C0809180008F7703C004
:104CC000809180008F7D8093800010C084B58F77A5
:104CD00002C084B58F7D84BD09C08091B0008F77FC
:104CE00003C08091B0008F7D8093B000892F90E049
:104CF000880F991F8A5B994FFC01A591B4918C9103
:104D000020E030E0842311F021E030E0C901089573
:104D1000CF93DF930E94E5240E94C511C0E0D0E04C
:104D20000E946B112097E1F30E940000F9CFCF920F
:104D3000DF92EF92FF920F931F93CF93DF937C014B
:104D40006B018A01C0E0D0E00FC0D6016D916D010A
:104D5000D701ED91FC910190F081E02DC7010995FB
:104D6000C80FD91F015010400115110571F7CE0170
:104D7000DF91CF911F910F91FF90EF90DF90CF9037
:104D80000895EF92FF920F931F93CF93DF937C01CF
:104D90008B01C0E0D0E0F8010F5F1F4F64916623E4
:104DA00059F0D701ED91FC910190F081E02DC70100
:104DB0000995C80FD91FEFCFCE01DF91CF911F9179
:104DC0000F91FF90EF900895DC01ED91FC9101901F
:104DD000F081E02D09950895EF92FF920F931F93B4
:104DE0008C01DC01ED91FC910190F081E02D6DE0F2
:104DF00009957C01D801ED91FC910190F081E02DA5
:104E0000C8016AE009959C012E0D3F1DC9011F9143
:104E10000F91FF90EF900895EF92FF920F931F93E1
:104E20007C010E94C1268C01C7010E94EC269C01D6
:104E3000200F311FC9011F910F91FF90EF9008952E
:104E4000CF93DF93EC016115710519F420E030E098
:104E50000FC0DB010D900020E9F71197A61BB70BDF
:104E6000E881F9810280F381E02DAD0109959C0173
:104E7000C901DF91CF9108954F925F927F928F92F7
:104E80009F92AF92BF92CF92DF92EF92FF920F93D9
:104E90001F93DF93CF93CDB7DEB7A1970FB6F894EA
:104EA000DEBF0FBECDBF2C01742ECB01223008F423
:104EB0002AE019A231E2C32ED12CCC0EDD1E822EA7
:104EC0009924AA24BB24672D752FA50194010E9463
:104ED000E82B79018A01C801B701A50194010E945C
:104EE000962B472D461B0894C108D1084A3014F46C
:104EF000405D01C0495CF6014083E114F104010505
:104F0000110521F07E2C5F2DC801DDCFC201B60155
:104F10000E942027A1960FB6F894DEBF0FBECDBF2A
:104F2000CF91DF911F910F91FF90EF90DF90CF9085
:104F3000BF90AF909F908F907F905F904F9008951B
:104F4000CF92DF92EF92FF920F931F93CF93DF9355
:104F5000EC016A017B012115310541F4E881F981F9
:104F60000190F081E02D642F09951FC02A30310592
:104F7000D1F477FF17C0E881F9810190F081E02D2D
:104F80006DE209958C0144275527BA014C195D093A
:104F90006E097F09CE012AE00E943C279801280F64
:104FA000391F04C02AE00E943C279C01C901DF91FF
:104FB000CF911F910F91FF90EF90DF90CF900895C8
:104FC000EF92FF920F931F937B019A010027F7FC4A
:104FD0000095102FB801A7010E94A0271F910F91E3
:104FE000FF90EF9008950E94202708952F923F92FE
:104FF0004F925F926F927F928F929F92AF92BF92E9
:10500000CF92DF92EF92FF920F931F93DF93CF9394
:10501000CDB7DEB73B014C0119012A016D897E89AC
:105020008F89988D6A197B098C099D09621A730A08
:10503000840A950AA40193010E94962BE218F308B2
:1050400004091509A80197010E940A2C2A0D3B1D8D
:105050004C1D5D1DB901CA01CF91DF911F910F91C8
:10506000FF90EF90DF90CF90BF90AF909F908F9088
:105070007F906F905F904F903F902F900895EF92A8
:10508000FF920F931F937B018C01611571058105C0
:10509000910529F420E030E040E050E00BC00E9490
:1050A000C503A80197010E940A2CAC01CB01DA01CB
:1050B0009C01AD01B901CA011F910F91FF90EF90C2
:1050C0000895009729F0BC0180E090E00E94CA0397
:1050D0000895DC01FB0114968D919C911597892B05
:1050E00031F461157105A9F090E0808108C00D9040
:1050F000BC91A02D6115710529F490E08C91882355
:1051000049F407C0CD010E94DC039C0190E0232BF1
:1051100009F491E0892F08950F931F93CF93DF93A4
:10512000EC018B016F5F7F4F888199810E942E294E
:10513000009711F480E005C0998388831B830A835C
:1051400081E0DF91CF911F910F910895CF93DF936D
:10515000EC0188819981892B29F08A819B818617AE
:10516000970760F4CE010E948C28882341F08C813F
:105170009D81892B19F4E881F981108281E0DF910A
:10518000CF910895CF93DF93EC01888199810097A7
:1051900011F00E947823198218821D821C821B82C2
:1051A0001A82DF91CF910895EF92FF920F931F9390
:1051B000CF93DF93EC017B018A01BA010E94A628FC
:1051C000882321F4CE010E94C22807C01D830C83CE
:1051D00088819981B7010E94E503CE01DF91CF91CB
:1051E0001F910F91FF90EF900895CF93DF93EC0103
:1051F000198218821B821A821D821C821E826115EE
:10520000710551F0DB010D900020E9F71197A61B05
:10521000B70BAD010E94D428DF91CF9108950F9371
:105220001F93182F092F6115710559F0DB010D909F
:105230000020E9F71197A61BB70BAD010E94D428F7
:1052400002C00E94C228812F902F1F910F910895B4
:10525000FC01808191810E94782308956F927F9252
:105260008F929F92AF92BF92CF92DF92EF92FF9276
:105270000F931F93CF93DF938C01009729F4CB01F9
:105280000E94DB228C01BBC08EEFE82E8FEFF82E40
:10529000E00EF11E4801860E971E8E149F0408F43E
:1052A000ACC0D7014D915C91119746175707B8F0E4
:1052B0004530510508F4A3C0CA0104978617970723
:1052C00008F49DC042505040461B570BF4014193D7
:1052D00051936D937C93CF010E94782390C05B0122
:1052E000A41AB50A3801640E751EA091FF06B0918C
:1052F0000007CC24DD24E0E0F0E047C0A615B705A8
:10530000A9F5CD91DC911197CE0102968A159B05E6
:1053100068F1CE018A199B09029612962C91129778
:1053200013963C91059758F0F40122833383CA19F0
:10533000DB09D183C083D7016D937C9309C04E5F95
:105340005F4F4C0F5D1FF70151834083C901FC0182
:10535000C114D10431F0D6011396FC93EE93129749
:105360004EC0F0930007E093FF0649C08D919C91D9
:105370001197E817F90708F4FC016D0112968C915A
:10538000129713969C919C01D901109709F0B6CF02
:105390008091FD069091FE0686159705E9F4E617C3
:1053A000F707D0F42091F8013091F901211531056A
:1053B00041F42DB73EB78091F4019091F501281B7F
:1053C000390B82169306C8F49092FE068092FD0671
:1053D000F7017183608313C0CB010E94DB22EC01D3
:1053E000009759F0D7014D915C91B8010E94D30309
:1053F000C8010E9478238E0102C000E010E0C801BD
:10540000DF91CF911F910F91FF90EF90DF90CF90A0
:10541000BF90AF909F908F907F906F90089550585D
:10542000BB27AA270ED0E5C0D6D030F0DBD020F0C5
:1054300031F49F3F11F41EF4CBC00EF4E095E7FB6E
:10544000C1C0E92FE7D080F3BA176207730784075A
:10545000950718F071F49EF5FFC00EF4E0950B2E41
:10546000BA2FA02D0B01B90190010C01CA01A001B6
:105470001124FF27591B99F0593F50F4503E68F111
:105480001A16F040A22F232F342F4427585FF3CF52
:10549000469537952795A795F0405395C9F77EF423
:1054A0001F16BA0B620B730B840BBAF09150A1F06C
:1054B000FF0FBB1F661F771F881FC2F70EC0BA0FF2
:1054C000621F731F841F48F4879577956795B7957A
:1054D000F7959E3F08F0B3CF9395880F08F0992772
:1054E000EE0F97958795089504D06894B111B5C0D3
:1054F000089598D088F09F5790F0B92F9927B75109
:10550000A0F0D1F0660F771F881F991F1AF0BA9587
:10551000C9F712C0B13081F09FD0B1E008959CC0AE
:10552000672F782F8827B85F39F0B93FCCF386957D
:1055300077956795B395D9F73EF4909580957095DA
:1055400061957F4F8F4F9F4F0895E89409C097FB57
:105550003EF490958095709561957F4F8F4F9F4F4A
:105560009923A9F0F92F96E9BB279395F69587958E
:1055700077956795B795F111F8CFFAF4BB0F11F451
:1055800060FF1BC06F5F7F4F8F4F9F4F16C08823F8
:1055900011F096E911C0772321F09EE8872F762F2E
:1055A00005C0662371F096E8862F70E060E02AF06F
:1055B0009A95660F771F881FDAF7880F969587955B
:1055C00097F9089597F99F6780E870E060E0089583
:1055D0009FEF80EC089500240A941616170618060B
:1055E0000906089500240A941216130614060506E7
:1055F0000895092E0394000C11F4882352F0BB0F78
:1056000040F4BF2B11F460FF04C06F5F7F4F8F4FDA
:105610009F4F089557FD9058440F551F59F05F3F15
:1056200071F04795880F97FB991F61F09F3F79F0C4
:1056300087950895121613061406551FF2CF469546
:10564000F1DF08C0161617061806991FF1CF8695C8
:105650007105610508940895E894BB2766277727AC
:10566000CB0197F908950BD0C4CFB5DF28F0BADF8E
:1056700018F0952309F0A6CFABCF1124EECFCADFE7
:10568000A0F3959FD1F3950F50E0551F629FF00155
:10569000729FBB27F00DB11D639FAA27F00DB11DAE
:1056A000AA1F649F6627B00DA11D661F829F222737
:1056B000B00DA11D621F739FB00DA11D621F839FBE
:1056C000A00D611D221F749F3327A00D611D231F94
:1056D000849F600D211D822F762F6A2F11249F57E2
:1056E00050408AF0E1F088234AF0EE0FFF1FBB1F05
:1056F000661F771F881F91505040A9F79E3F5105A4
:1057000070F060CFAACF5F3FECF3983EDCF3869554
:1057100077956795B795F795E7959F5FC1F7FE2B4E
:10572000880F911D9695879597F90895629FD001EE
:10573000739FF001829FE00DF11D649FE00DF11D4C
:10574000929FF00D839FF00D749FF00D659FF00DFB
:105750009927729FB00DE11DF91F639FB00DE11DE8
:10576000F91FBD01CF0111240895991B79E004C0F0
:10577000991F961708F0961B881F7A95C9F7809590
:105780000895AA1BBB1B51E107C0AA1FBB1FA61788
:10579000B70710F0A61BB70B881F991F5A95A9F7DA
:1057A00080959095BC01CD01089597FB092E0726A1
:1057B0000AD077FD04D0E5DF06D000201AF47095FA
:1057C00061957F4F0895F6F7909581959F4F0895C5
:1057D000A1E21A2EAA1BBB1BFD010DC0AA1FBB1FF5
:1057E000EE1FFF1FA217B307E407F50720F0A21B67
:1057F000B30BE40BF50B661F771F881F991F1A94D4
:1058000069F760957095809590959B01AC01BD01FD
:10581000CF01089597FB092E05260ED057FD04D021
:10582000D7DF0AD0001C38F450954095309521956B
:105830003F4F4F4F5F4F0895F6F7909580957095C5
:1058400061957F4F8F4F9F4F0895EE0FFF1F05907B
:10585000F491E02D09942F923F924F925F926F92B4
:105860007F928F929F92AF92BF92CF92DF92EF92F0
:10587000FF920F931F93CF93DF93CDB7DEB7CA1B71
:10588000DB0B0FB6F894DEBF0FBECDBF09942A889C
:10589000398848885F846E847D848C849B84AA8444
:1058A000B984C884DF80EE80FD800C811B81AA81D1
:1058B000B981CE0FD11D0FB6F894DEBF0FBECDBF9C
:1058C000ED01089516E0CEE8D6E004C0FE010E9486
:0E58D000272C2296C039D107C9F7F894FFCFD4
:1058DE000067616D656F766572006E65776C6966DF
:1058EE0065006E65776C6576656C0072756E6E69B7
:1058FE006E670020204C4153542020202020202071
:10590E002020484947480020413A20504C41592018
:10591E0020202020433A2051554954006E65776768
:10592E00616D650047414D45204F5645520050521E
:10593E00455353204220544F20434F4E54494E5509
:10594E0045007469746C65004C4F4144455200012A
:10595E00000000000004000800080008000800080D
:10596E000004000000FCFFF8FFF8FFF8FFF8FFF856
:10597E00FFFCFFF8FFF8FFF8FFFCFF000004000833
:10598E0000080008000800080004000000FCFFF8F2
:10599E00FFF8FF04000400FCFFFCFF0800080008ED
:1059AE00000800F8FFF8FFF8FFF8FFF8FF0800F80E
:1059BE00FF0800F8FFFCFF0400080008000400FCCC
:1059CE00FFF8FF01800001070000010000240039EC
:1059DE00000100010001000500060001000F003962
:1059EE000001000100020007000800010014003948
:1059FE000001000100020007000800010019003933
:105A0E000001000100020007000800000000000273
:105A1E00000100000000000400050000003A000034
:105A2E000000000000000007000800000000000059
:105A3E000000000200010007000300000002000049
:105A4E00000000020001000700030001000C003AF4
:105A5E0000000000000000070002000000280039CE
:105A6E0000010001000100060006000000000067B2
:045A7E001797260050
:00000001FF
